{
  "contractName": "ERC20PresetMinterRebaser",
  "abi": [
    {
      "inputs": [
        {
          "internalType": "string",
          "name": "name",
          "type": "string"
        },
        {
          "internalType": "string",
          "name": "symbol",
          "type": "string"
        }
      ],
      "stateMutability": "nonpayable",
      "type": "constructor"
    },
    {
      "anonymous": false,
      "inputs": [
        {
          "indexed": true,
          "internalType": "address",
          "name": "owner",
          "type": "address"
        },
        {
          "indexed": true,
          "internalType": "address",
          "name": "spender",
          "type": "address"
        },
        {
          "indexed": false,
          "internalType": "uint256",
          "name": "value",
          "type": "uint256"
        }
      ],
      "name": "Approval",
      "type": "event"
    },
    {
      "anonymous": false,
      "inputs": [
        {
          "indexed": true,
          "internalType": "bytes32",
          "name": "role",
          "type": "bytes32"
        },
        {
          "indexed": true,
          "internalType": "bytes32",
          "name": "previousAdminRole",
          "type": "bytes32"
        },
        {
          "indexed": true,
          "internalType": "bytes32",
          "name": "newAdminRole",
          "type": "bytes32"
        }
      ],
      "name": "RoleAdminChanged",
      "type": "event"
    },
    {
      "anonymous": false,
      "inputs": [
        {
          "indexed": true,
          "internalType": "bytes32",
          "name": "role",
          "type": "bytes32"
        },
        {
          "indexed": true,
          "internalType": "address",
          "name": "account",
          "type": "address"
        },
        {
          "indexed": true,
          "internalType": "address",
          "name": "sender",
          "type": "address"
        }
      ],
      "name": "RoleGranted",
      "type": "event"
    },
    {
      "anonymous": false,
      "inputs": [
        {
          "indexed": true,
          "internalType": "bytes32",
          "name": "role",
          "type": "bytes32"
        },
        {
          "indexed": true,
          "internalType": "address",
          "name": "account",
          "type": "address"
        },
        {
          "indexed": true,
          "internalType": "address",
          "name": "sender",
          "type": "address"
        }
      ],
      "name": "RoleRevoked",
      "type": "event"
    },
    {
      "anonymous": false,
      "inputs": [
        {
          "indexed": true,
          "internalType": "address",
          "name": "from",
          "type": "address"
        },
        {
          "indexed": true,
          "internalType": "address",
          "name": "to",
          "type": "address"
        },
        {
          "indexed": false,
          "internalType": "uint256",
          "name": "value",
          "type": "uint256"
        }
      ],
      "name": "Transfer",
      "type": "event"
    },
    {
      "inputs": [],
      "name": "DEFAULT_ADMIN_ROLE",
      "outputs": [
        {
          "internalType": "bytes32",
          "name": "",
          "type": "bytes32"
        }
      ],
      "stateMutability": "view",
      "type": "function"
    },
    {
      "inputs": [],
      "name": "MINTER_ROLE",
      "outputs": [
        {
          "internalType": "bytes32",
          "name": "",
          "type": "bytes32"
        }
      ],
      "stateMutability": "view",
      "type": "function"
    },
    {
      "inputs": [],
      "name": "REBASER_ROLE",
      "outputs": [
        {
          "internalType": "bytes32",
          "name": "",
          "type": "bytes32"
        }
      ],
      "stateMutability": "view",
      "type": "function"
    },
    {
      "inputs": [
        {
          "internalType": "address",
          "name": "owner",
          "type": "address"
        },
        {
          "internalType": "address",
          "name": "spender",
          "type": "address"
        }
      ],
      "name": "allowance",
      "outputs": [
        {
          "internalType": "uint256",
          "name": "",
          "type": "uint256"
        }
      ],
      "stateMutability": "view",
      "type": "function"
    },
    {
      "inputs": [
        {
          "internalType": "address",
          "name": "spender",
          "type": "address"
        },
        {
          "internalType": "uint256",
          "name": "amount",
          "type": "uint256"
        }
      ],
      "name": "approve",
      "outputs": [
        {
          "internalType": "bool",
          "name": "",
          "type": "bool"
        }
      ],
      "stateMutability": "nonpayable",
      "type": "function"
    },
    {
      "inputs": [
        {
          "internalType": "address",
          "name": "account",
          "type": "address"
        }
      ],
      "name": "balanceOf",
      "outputs": [
        {
          "internalType": "uint256",
          "name": "",
          "type": "uint256"
        }
      ],
      "stateMutability": "view",
      "type": "function"
    },
    {
      "inputs": [
        {
          "internalType": "uint256",
          "name": "amount",
          "type": "uint256"
        }
      ],
      "name": "burn",
      "outputs": [],
      "stateMutability": "nonpayable",
      "type": "function"
    },
    {
      "inputs": [
        {
          "internalType": "address",
          "name": "account",
          "type": "address"
        },
        {
          "internalType": "uint256",
          "name": "amount",
          "type": "uint256"
        }
      ],
      "name": "burnFrom",
      "outputs": [],
      "stateMutability": "nonpayable",
      "type": "function"
    },
    {
      "inputs": [],
      "name": "decimals",
      "outputs": [
        {
          "internalType": "uint8",
          "name": "",
          "type": "uint8"
        }
      ],
      "stateMutability": "view",
      "type": "function"
    },
    {
      "inputs": [
        {
          "internalType": "address",
          "name": "spender",
          "type": "address"
        },
        {
          "internalType": "uint256",
          "name": "subtractedValue",
          "type": "uint256"
        }
      ],
      "name": "decreaseAllowance",
      "outputs": [
        {
          "internalType": "bool",
          "name": "",
          "type": "bool"
        }
      ],
      "stateMutability": "nonpayable",
      "type": "function"
    },
    {
      "inputs": [
        {
          "internalType": "bytes32",
          "name": "role",
          "type": "bytes32"
        }
      ],
      "name": "getRoleAdmin",
      "outputs": [
        {
          "internalType": "bytes32",
          "name": "",
          "type": "bytes32"
        }
      ],
      "stateMutability": "view",
      "type": "function"
    },
    {
      "inputs": [
        {
          "internalType": "bytes32",
          "name": "role",
          "type": "bytes32"
        },
        {
          "internalType": "uint256",
          "name": "index",
          "type": "uint256"
        }
      ],
      "name": "getRoleMember",
      "outputs": [
        {
          "internalType": "address",
          "name": "",
          "type": "address"
        }
      ],
      "stateMutability": "view",
      "type": "function"
    },
    {
      "inputs": [
        {
          "internalType": "bytes32",
          "name": "role",
          "type": "bytes32"
        }
      ],
      "name": "getRoleMemberCount",
      "outputs": [
        {
          "internalType": "uint256",
          "name": "",
          "type": "uint256"
        }
      ],
      "stateMutability": "view",
      "type": "function"
    },
    {
      "inputs": [
        {
          "internalType": "bytes32",
          "name": "role",
          "type": "bytes32"
        },
        {
          "internalType": "address",
          "name": "account",
          "type": "address"
        }
      ],
      "name": "grantRole",
      "outputs": [],
      "stateMutability": "nonpayable",
      "type": "function"
    },
    {
      "inputs": [
        {
          "internalType": "bytes32",
          "name": "role",
          "type": "bytes32"
        },
        {
          "internalType": "address",
          "name": "account",
          "type": "address"
        }
      ],
      "name": "hasRole",
      "outputs": [
        {
          "internalType": "bool",
          "name": "",
          "type": "bool"
        }
      ],
      "stateMutability": "view",
      "type": "function"
    },
    {
      "inputs": [
        {
          "internalType": "address",
          "name": "spender",
          "type": "address"
        },
        {
          "internalType": "uint256",
          "name": "addedValue",
          "type": "uint256"
        }
      ],
      "name": "increaseAllowance",
      "outputs": [
        {
          "internalType": "bool",
          "name": "",
          "type": "bool"
        }
      ],
      "stateMutability": "nonpayable",
      "type": "function"
    },
    {
      "inputs": [],
      "name": "name",
      "outputs": [
        {
          "internalType": "string",
          "name": "",
          "type": "string"
        }
      ],
      "stateMutability": "view",
      "type": "function"
    },
    {
      "inputs": [
        {
          "internalType": "bytes32",
          "name": "role",
          "type": "bytes32"
        },
        {
          "internalType": "address",
          "name": "account",
          "type": "address"
        }
      ],
      "name": "renounceRole",
      "outputs": [],
      "stateMutability": "nonpayable",
      "type": "function"
    },
    {
      "inputs": [
        {
          "internalType": "bytes32",
          "name": "role",
          "type": "bytes32"
        },
        {
          "internalType": "address",
          "name": "account",
          "type": "address"
        }
      ],
      "name": "revokeRole",
      "outputs": [],
      "stateMutability": "nonpayable",
      "type": "function"
    },
    {
      "inputs": [
        {
          "internalType": "bytes4",
          "name": "interfaceId",
          "type": "bytes4"
        }
      ],
      "name": "supportsInterface",
      "outputs": [
        {
          "internalType": "bool",
          "name": "",
          "type": "bool"
        }
      ],
      "stateMutability": "view",
      "type": "function"
    },
    {
      "inputs": [],
      "name": "symbol",
      "outputs": [
        {
          "internalType": "string",
          "name": "",
          "type": "string"
        }
      ],
      "stateMutability": "view",
      "type": "function"
    },
    {
      "inputs": [],
      "name": "totalSupply",
      "outputs": [
        {
          "internalType": "uint256",
          "name": "",
          "type": "uint256"
        }
      ],
      "stateMutability": "view",
      "type": "function"
    },
    {
      "inputs": [
        {
          "internalType": "address",
          "name": "to",
          "type": "address"
        },
        {
          "internalType": "uint256",
          "name": "amount",
          "type": "uint256"
        }
      ],
      "name": "transfer",
      "outputs": [
        {
          "internalType": "bool",
          "name": "",
          "type": "bool"
        }
      ],
      "stateMutability": "nonpayable",
      "type": "function"
    },
    {
      "inputs": [
        {
          "internalType": "address",
          "name": "from",
          "type": "address"
        },
        {
          "internalType": "address",
          "name": "to",
          "type": "address"
        },
        {
          "internalType": "uint256",
          "name": "amount",
          "type": "uint256"
        }
      ],
      "name": "transferFrom",
      "outputs": [
        {
          "internalType": "bool",
          "name": "",
          "type": "bool"
        }
      ],
      "stateMutability": "nonpayable",
      "type": "function"
    }
  ],
  "bytecode": "0x608060405234801562000010575f80fd5b5060405162002f8738038062002f878339818101604052810190620000369190620004fd565b81818160059081620000499190620007b7565b5080600690816200005b9190620007b7565b505050620000815f801b620000756200010b60201b60201c565b6200011260201b60201c565b620000c27f9f2df0fed2c77648de5860a4cc508cd0818c85b8b8a1ab4ceeef8d981c8956a6620000b66200010b60201b60201c565b6200011260201b60201c565b620001037f5fde63b561377d1441afa201ff619faac2ff8fed70a7fbdbe7a5cb07768c0b75620000f76200010b60201b60201c565b6200011260201b60201c565b50506200089b565b5f33905090565b6200012482826200012860201b60201c565b5050565b6200013a82826200016460201b60201c565b6200015f8160015f8581526020019081526020015f206200024f60201b90919060201c565b505050565b6200017682826200028460201b60201c565b6200024b5760015f808481526020019081526020015f205f015f8373ffffffffffffffffffffffffffffffffffffffff1673ffffffffffffffffffffffffffffffffffffffff1681526020019081526020015f205f6101000a81548160ff021916908315150217905550620001f06200010b60201b60201c565b73ffffffffffffffffffffffffffffffffffffffff168173ffffffffffffffffffffffffffffffffffffffff16837f2f8788117e7eff1d82e926ec794901d17c78024a50270940304540a733656f0d60405160405180910390a45b5050565b5f6200027c835f018373ffffffffffffffffffffffffffffffffffffffff165f1b620002e760201b60201c565b905092915050565b5f805f8481526020019081526020015f205f015f8373ffffffffffffffffffffffffffffffffffffffff1673ffffffffffffffffffffffffffffffffffffffff1681526020019081526020015f205f9054906101000a900460ff16905092915050565b5f620002fa83836200035860201b60201c565b6200034e57825f0182908060018154018082558091505060019003905f5260205f20015f9091909190915055825f0180549050836001015f8481526020019081526020015f20819055506001905062000352565b5f90505b92915050565b5f80836001015f8481526020019081526020015f20541415905092915050565b5f604051905090565b5f80fd5b5f80fd5b5f80fd5b5f80fd5b5f601f19601f8301169050919050565b7f4e487b71000000000000000000000000000000000000000000000000000000005f52604160045260245ffd5b620003d98262000391565b810181811067ffffffffffffffff82111715620003fb57620003fa620003a1565b5b80604052505050565b5f6200040f62000378565b90506200041d8282620003ce565b919050565b5f67ffffffffffffffff8211156200043f576200043e620003a1565b5b6200044a8262000391565b9050602081019050919050565b5f5b838110156200047657808201518184015260208101905062000459565b5f8484015250505050565b5f62000497620004918462000422565b62000404565b905082815260208101848484011115620004b657620004b56200038d565b5b620004c384828562000457565b509392505050565b5f82601f830112620004e257620004e162000389565b5b8151620004f484826020860162000481565b91505092915050565b5f806040838503121562000516576200051562000381565b5b5f83015167ffffffffffffffff81111562000536576200053562000385565b5b6200054485828601620004cb565b925050602083015167ffffffffffffffff81111562000568576200056762000385565b5b6200057685828601620004cb565b9150509250929050565b5f81519050919050565b7f4e487b71000000000000000000000000000000000000000000000000000000005f52602260045260245ffd5b5f6002820490506001821680620005cf57607f821691505b602082108103620005e557620005e46200058a565b5b50919050565b5f819050815f5260205f209050919050565b5f6020601f8301049050919050565b5f82821b905092915050565b5f60088302620006497fffffffffffffffffffffffffffffffffffffffffffffffffffffffffffffffff826200060c565b6200065586836200060c565b95508019841693508086168417925050509392505050565b5f819050919050565b5f819050919050565b5f6200069f6200069962000693846200066d565b62000676565b6200066d565b9050919050565b5f819050919050565b620006ba836200067f565b620006d2620006c982620006a6565b84845462000618565b825550505050565b5f90565b620006e8620006da565b620006f5818484620006af565b505050565b5b818110156200071c57620007105f82620006de565b600181019050620006fb565b5050565b601f8211156200076b576200073581620005eb565b6200074084620005fd565b8101602085101562000750578190505b620007686200075f85620005fd565b830182620006fa565b50505b505050565b5f82821c905092915050565b5f6200078d5f198460080262000770565b1980831691505092915050565b5f620007a783836200077c565b9150826002028217905092915050565b620007c28262000580565b67ffffffffffffffff811115620007de57620007dd620003a1565b5b620007ea8254620005b7565b620007f782828562000720565b5f60209050601f8311600181146200082d575f841562000818578287015190505b6200082485826200079a565b86555062000893565b601f1984166200083d86620005eb565b5f5b8281101562000866578489015182556001820191506020850194506020810190506200083f565b8683101562000886578489015162000882601f8916826200077c565b8355505b6001600288020188555050505b505050505050565b6126de80620008a95f395ff3fe608060405234801561000f575f80fd5b5060043610610156575f3560e01c806379cc6790116100c1578063a457c2d71161007a578063a457c2d7146103fe578063a9059cbb1461042e578063ca15c8731461045e578063d53913931461048e578063d547741f146104ac578063dd62ed3e146104c857610156565b806379cc67901461032857806383eb70e5146103445780639010d07c1461036257806391d148541461039257806395d89b41146103c2578063a217fddf146103e057610156565b80632f2ff15d116101135780632f2ff15d14610256578063313ce5671461027257806336568abe1461029057806339509351146102ac57806342966c68146102dc57806370a08231146102f857610156565b806301ffc9a71461015a57806306fdde031461018a578063095ea7b3146101a857806318160ddd146101d857806323b872dd146101f6578063248a9ca314610226575b5f80fd5b610174600480360381019061016f91906119b7565b6104f8565b60405161018191906119fc565b60405180910390f35b610192610571565b60405161019f9190611a9f565b60405180910390f35b6101c260048036038101906101bd9190611b4c565b610601565b6040516101cf91906119fc565b60405180910390f35b6101e0610623565b6040516101ed9190611b99565b60405180910390f35b610210600480360381019061020b9190611bb2565b61062c565b60405161021d91906119fc565b60405180910390f35b610240600480360381019061023b9190611c35565b61065a565b60405161024d9190611c6f565b60405180910390f35b610270600480360381019061026b9190611c88565b610676565b005b61027a610697565b6040516102879190611ce1565b60405180910390f35b6102aa60048036038101906102a59190611c88565b61069f565b005b6102c660048036038101906102c19190611b4c565b610722565b6040516102d391906119fc565b60405180910390f35b6102f660048036038101906102f19190611cfa565b610758565b005b610312600480360381019061030d9190611d25565b61076c565b60405161031f9190611b99565b60405180910390f35b610342600480360381019061033d9190611b4c565b6107b2565b005b61034c6107d2565b6040516103599190611c6f565b60405180910390f35b61037c60048036038101906103779190611d50565b6107f6565b6040516103899190611d9d565b60405180910390f35b6103ac60048036038101906103a79190611c88565b610822565b6040516103b991906119fc565b60405180910390f35b6103ca610885565b6040516103d79190611a9f565b60405180910390f35b6103e8610915565b6040516103f59190611c6f565b60405180910390f35b61041860048036038101906104139190611b4c565b61091b565b60405161042591906119fc565b60405180910390f35b61044860048036038101906104439190611b4c565b610990565b60405161045591906119fc565b60405180910390f35b61047860048036038101906104739190611c35565b6109b2565b6040516104859190611b99565b60405180910390f35b6104966109d3565b6040516104a39190611c6f565b60405180910390f35b6104c660048036038101906104c19190611c88565b6109f7565b005b6104e260048036038101906104dd9190611db6565b610a18565b6040516104ef9190611b99565b60405180910390f35b5f7f5a05180f000000000000000000000000000000000000000000000000000000007bffffffffffffffffffffffffffffffffffffffffffffffffffffffff1916827bffffffffffffffffffffffffffffffffffffffffffffffffffffffff1916148061056a575061056982610a9a565b5b9050919050565b60606005805461058090611e21565b80601f01602080910402602001604051908101604052809291908181526020018280546105ac90611e21565b80156105f75780601f106105ce576101008083540402835291602001916105f7565b820191905f5260205f20905b8154815290600101906020018083116105da57829003601f168201915b5050505050905090565b5f8061060b610b13565b9050610618818585610b1a565b600191505092915050565b5f600454905090565b5f80610636610b13565b9050610643858285610cdd565b61064e858585610d68565b60019150509392505050565b5f805f8381526020019081526020015f20600101549050919050565b61067f8261065a565b61068881610fd7565b6106928383610feb565b505050565b5f6012905090565b6106a7610b13565b73ffffffffffffffffffffffffffffffffffffffff168173ffffffffffffffffffffffffffffffffffffffff1614610714576040517f08c379a000000000000000000000000000000000000000000000000000000000815260040161070b90611ec1565b60405180910390fd5b61071e828261101d565b5050565b5f8061072c610b13565b905061074d81858561073e8589610a18565b6107489190611f0c565b610b1a565b600191505092915050565b610769610763610b13565b8261104f565b50565b5f60025f8373ffffffffffffffffffffffffffffffffffffffff1673ffffffffffffffffffffffffffffffffffffffff1681526020019081526020015f20549050919050565b6107c4826107be610b13565b83610cdd565b6107ce828261104f565b5050565b7f5fde63b561377d1441afa201ff619faac2ff8fed70a7fbdbe7a5cb07768c0b7581565b5f61081a8260015f8681526020019081526020015f2061121490919063ffffffff16565b905092915050565b5f805f8481526020019081526020015f205f015f8373ffffffffffffffffffffffffffffffffffffffff1673ffffffffffffffffffffffffffffffffffffffff1681526020019081526020015f205f9054906101000a900460ff16905092915050565b60606006805461089490611e21565b80601f01602080910402602001604051908101604052809291908181526020018280546108c090611e21565b801561090b5780601f106108e25761010080835404028352916020019161090b565b820191905f5260205f20905b8154815290600101906020018083116108ee57829003601f168201915b5050505050905090565b5f801b81565b5f80610925610b13565b90505f6109328286610a18565b905083811015610977576040517f08c379a000000000000000000000000000000000000000000000000000000000815260040161096e90611faf565b60405180910390fd5b6109848286868403610b1a565b60019250505092915050565b5f8061099a610b13565b90506109a7818585610d68565b600191505092915050565b5f6109cc60015f8481526020019081526020015f2061122b565b9050919050565b7f9f2df0fed2c77648de5860a4cc508cd0818c85b8b8a1ab4ceeef8d981c8956a681565b610a008261065a565b610a0981610fd7565b610a13838361101d565b505050565b5f60035f8473ffffffffffffffffffffffffffffffffffffffff1673ffffffffffffffffffffffffffffffffffffffff1681526020019081526020015f205f8373ffffffffffffffffffffffffffffffffffffffff1673ffffffffffffffffffffffffffffffffffffffff1681526020019081526020015f2054905092915050565b5f7f7965db0b000000000000000000000000000000000000000000000000000000007bffffffffffffffffffffffffffffffffffffffffffffffffffffffff1916827bffffffffffffffffffffffffffffffffffffffffffffffffffffffff19161480610b0c5750610b0b8261123e565b5b9050919050565b5f33905090565b5f73ffffffffffffffffffffffffffffffffffffffff168373ffffffffffffffffffffffffffffffffffffffff1603610b88576040517f08c379a0000000000000000000000000000000000000000000000000000000008152600401610b7f9061203d565b60405180910390fd5b5f73ffffffffffffffffffffffffffffffffffffffff168273ffffffffffffffffffffffffffffffffffffffff1603610bf6576040517f08c379a0000000000000000000000000000000000000000000000000000000008152600401610bed906120cb565b60405180910390fd5b8060035f8573ffffffffffffffffffffffffffffffffffffffff1673ffffffffffffffffffffffffffffffffffffffff1681526020019081526020015f205f8473ffffffffffffffffffffffffffffffffffffffff1673ffffffffffffffffffffffffffffffffffffffff1681526020019081526020015f20819055508173ffffffffffffffffffffffffffffffffffffffff168373ffffffffffffffffffffffffffffffffffffffff167f8c5be1e5ebec7d5bd14f71427d1e84f3dd0314c0f7b2291e5b200ac8c7c3b92583604051610cd09190611b99565b60405180910390a3505050565b5f610ce88484610a18565b90507fffffffffffffffffffffffffffffffffffffffffffffffffffffffffffffffff8114610d625781811015610d54576040517f08c379a0000000000000000000000000000000000000000000000000000000008152600401610d4b90612133565b60405180910390fd5b610d618484848403610b1a565b5b50505050565b5f73ffffffffffffffffffffffffffffffffffffffff168373ffffffffffffffffffffffffffffffffffffffff1603610dd6576040517f08c379a0000000000000000000000000000000000000000000000000000000008152600401610dcd906121c1565b60405180910390fd5b5f73ffffffffffffffffffffffffffffffffffffffff168273ffffffffffffffffffffffffffffffffffffffff1603610e44576040517f08c379a0000000000000000000000000000000000000000000000000000000008152600401610e3b9061224f565b60405180910390fd5b610e4f8383836112a7565b5f60025f8573ffffffffffffffffffffffffffffffffffffffff1673ffffffffffffffffffffffffffffffffffffffff1681526020019081526020015f2054905081811015610ed3576040517f08c379a0000000000000000000000000000000000000000000000000000000008152600401610eca906122dd565b60405180910390fd5b81810360025f8673ffffffffffffffffffffffffffffffffffffffff1673ffffffffffffffffffffffffffffffffffffffff1681526020019081526020015f20819055508160025f8573ffffffffffffffffffffffffffffffffffffffff1673ffffffffffffffffffffffffffffffffffffffff1681526020019081526020015f205f82825401925050819055508273ffffffffffffffffffffffffffffffffffffffff168473ffffffffffffffffffffffffffffffffffffffff167fddf252ad1be2c89b69c2b068fc378daa952ba7f163c4a11628f55a4df523b3ef84604051610fbe9190611b99565b60405180910390a3610fd18484846112ac565b50505050565b610fe881610fe3610b13565b6112b1565b50565b610ff58282611335565b6110188160015f8581526020019081526020015f2061140f90919063ffffffff16565b505050565b611027828261143c565b61104a8160015f8581526020019081526020015f2061151690919063ffffffff16565b505050565b5f73ffffffffffffffffffffffffffffffffffffffff168273ffffffffffffffffffffffffffffffffffffffff16036110bd576040517f08c379a00000000000000000000000000000000000000000000000000000000081526004016110b49061236b565b60405180910390fd5b6110c8825f836112a7565b5f60025f8473ffffffffffffffffffffffffffffffffffffffff1673ffffffffffffffffffffffffffffffffffffffff1681526020019081526020015f205490508181101561114c576040517f08c379a0000000000000000000000000000000000000000000000000000000008152600401611143906123f9565b60405180910390fd5b81810360025f8573ffffffffffffffffffffffffffffffffffffffff1673ffffffffffffffffffffffffffffffffffffffff1681526020019081526020015f20819055508160045f82825403925050819055505f73ffffffffffffffffffffffffffffffffffffffff168373ffffffffffffffffffffffffffffffffffffffff167fddf252ad1be2c89b69c2b068fc378daa952ba7f163c4a11628f55a4df523b3ef846040516111fc9190611b99565b60405180910390a361120f835f846112ac565b505050565b5f611221835f0183611543565b5f1c905092915050565b5f611237825f0161156a565b9050919050565b5f7f01ffc9a7000000000000000000000000000000000000000000000000000000007bffffffffffffffffffffffffffffffffffffffffffffffffffffffff1916827bffffffffffffffffffffffffffffffffffffffffffffffffffffffff1916149050919050565b505050565b505050565b6112bb8282610822565b611331576112c881611579565b6112d5835f1c60206115a6565b6040516020016112e69291906124e5565b6040516020818303038152906040526040517f08c379a00000000000000000000000000000000000000000000000000000000081526004016113289190611a9f565b60405180910390fd5b5050565b61133f8282610822565b61140b5760015f808481526020019081526020015f205f015f8373ffffffffffffffffffffffffffffffffffffffff1673ffffffffffffffffffffffffffffffffffffffff1681526020019081526020015f205f6101000a81548160ff0219169083151502179055506113b0610b13565b73ffffffffffffffffffffffffffffffffffffffff168173ffffffffffffffffffffffffffffffffffffffff16837f2f8788117e7eff1d82e926ec794901d17c78024a50270940304540a733656f0d60405160405180910390a45b5050565b5f611434835f018373ffffffffffffffffffffffffffffffffffffffff165f1b6117db565b905092915050565b6114468282610822565b15611512575f805f8481526020019081526020015f205f015f8373ffffffffffffffffffffffffffffffffffffffff1673ffffffffffffffffffffffffffffffffffffffff1681526020019081526020015f205f6101000a81548160ff0219169083151502179055506114b7610b13565b73ffffffffffffffffffffffffffffffffffffffff168173ffffffffffffffffffffffffffffffffffffffff16837ff6391f5c32d9c69d2a47ea670b442974b53935d1edc7fd64eb21e047a839171b60405160405180910390a45b5050565b5f61153b835f018373ffffffffffffffffffffffffffffffffffffffff165f1b611842565b905092915050565b5f825f0182815481106115595761155861251e565b5b905f5260205f200154905092915050565b5f815f01805490509050919050565b606061159f8273ffffffffffffffffffffffffffffffffffffffff16601460ff166115a6565b9050919050565b60605f60028360026115b8919061254b565b6115c29190611f0c565b67ffffffffffffffff8111156115db576115da61258c565b5b6040519080825280601f01601f19166020018201604052801561160d5781602001600182028036833780820191505090505b5090507f3000000000000000000000000000000000000000000000000000000000000000815f815181106116445761164361251e565b5b60200101907effffffffffffffffffffffffffffffffffffffffffffffffffffffffffffff191690815f1a9053507f7800000000000000000000000000000000000000000000000000000000000000816001815181106116a7576116a661251e565b5b60200101907effffffffffffffffffffffffffffffffffffffffffffffffffffffffffffff191690815f1a9053505f60018460026116e5919061254b565b6116ef9190611f0c565b90505b600181111561178e577f3031323334353637383961626364656600000000000000000000000000000000600f8616601081106117315761173061251e565b5b1a60f81b8282815181106117485761174761251e565b5b60200101907effffffffffffffffffffffffffffffffffffffffffffffffffffffffffffff191690815f1a905350600485901c945080611787906125b9565b90506116f2565b505f84146117d1576040517f08c379a00000000000000000000000000000000000000000000000000000000081526004016117c89061262a565b60405180910390fd5b8091505092915050565b5f6117e6838361193e565b61183857825f0182908060018154018082558091505060019003905f5260205f20015f9091909190915055825f0180549050836001015f8481526020019081526020015f20819055506001905061183c565b5f90505b92915050565b5f80836001015f8481526020019081526020015f205490505f8114611933575f60018261186f9190612648565b90505f6001865f01805490506118859190612648565b90508181146118eb575f865f0182815481106118a4576118a361251e565b5b905f5260205f200154905080875f0184815481106118c5576118c461251e565b5b905f5260205f20018190555083876001015f8381526020019081526020015f2081905550505b855f018054806118fe576118fd61267b565b5b600190038181905f5260205f20015f90559055856001015f8681526020019081526020015f205f905560019350505050611938565b5f9150505b92915050565b5f80836001015f8481526020019081526020015f20541415905092915050565b5f80fd5b5f7fffffffff0000000000000000000000000000000000000000000000000000000082169050919050565b61199681611962565b81146119a0575f80fd5b50565b5f813590506119b18161198d565b92915050565b5f602082840312156119cc576119cb61195e565b5b5f6119d9848285016119a3565b91505092915050565b5f8115159050919050565b6119f6816119e2565b82525050565b5f602082019050611a0f5f8301846119ed565b92915050565b5f81519050919050565b5f82825260208201905092915050565b5f5b83811015611a4c578082015181840152602081019050611a31565b5f8484015250505050565b5f601f19601f8301169050919050565b5f611a7182611a15565b611a7b8185611a1f565b9350611a8b818560208601611a2f565b611a9481611a57565b840191505092915050565b5f6020820190508181035f830152611ab78184611a67565b905092915050565b5f73ffffffffffffffffffffffffffffffffffffffff82169050919050565b5f611ae882611abf565b9050919050565b611af881611ade565b8114611b02575f80fd5b50565b5f81359050611b1381611aef565b92915050565b5f819050919050565b611b2b81611b19565b8114611b35575f80fd5b50565b5f81359050611b4681611b22565b92915050565b5f8060408385031215611b6257611b6161195e565b5b5f611b6f85828601611b05565b9250506020611b8085828601611b38565b9150509250929050565b611b9381611b19565b82525050565b5f602082019050611bac5f830184611b8a565b92915050565b5f805f60608486031215611bc957611bc861195e565b5b5f611bd686828701611b05565b9350506020611be786828701611b05565b9250506040611bf886828701611b38565b9150509250925092565b5f819050919050565b611c1481611c02565b8114611c1e575f80fd5b50565b5f81359050611c2f81611c0b565b92915050565b5f60208284031215611c4a57611c4961195e565b5b5f611c5784828501611c21565b91505092915050565b611c6981611c02565b82525050565b5f602082019050611c825f830184611c60565b92915050565b5f8060408385031215611c9e57611c9d61195e565b5b5f611cab85828601611c21565b9250506020611cbc85828601611b05565b9150509250929050565b5f60ff82169050919050565b611cdb81611cc6565b82525050565b5f602082019050611cf45f830184611cd2565b92915050565b5f60208284031215611d0f57611d0e61195e565b5b5f611d1c84828501611b38565b91505092915050565b5f60208284031215611d3a57611d3961195e565b5b5f611d4784828501611b05565b91505092915050565b5f8060408385031215611d6657611d6561195e565b5b5f611d7385828601611c21565b9250506020611d8485828601611b38565b9150509250929050565b611d9781611ade565b82525050565b5f602082019050611db05f830184611d8e565b92915050565b5f8060408385031215611dcc57611dcb61195e565b5b5f611dd985828601611b05565b9250506020611dea85828601611b05565b9150509250929050565b7f4e487b71000000000000000000000000000000000000000000000000000000005f52602260045260245ffd5b5f6002820490506001821680611e3857607f821691505b602082108103611e4b57611e4a611df4565b5b50919050565b7f416363657373436f6e74726f6c3a2063616e206f6e6c792072656e6f756e63655f8201527f20726f6c657320666f722073656c660000000000000000000000000000000000602082015250565b5f611eab602f83611a1f565b9150611eb682611e51565b604082019050919050565b5f6020820190508181035f830152611ed881611e9f565b9050919050565b7f4e487b71000000000000000000000000000000000000000000000000000000005f52601160045260245ffd5b5f611f1682611b19565b9150611f2183611b19565b9250828201905080821115611f3957611f38611edf565b5b92915050565b7f45524332303a2064656372656173656420616c6c6f77616e63652062656c6f775f8201527f207a65726f000000000000000000000000000000000000000000000000000000602082015250565b5f611f99602583611a1f565b9150611fa482611f3f565b604082019050919050565b5f6020820190508181035f830152611fc681611f8d565b9050919050565b7f45524332303a20617070726f76652066726f6d20746865207a65726f206164645f8201527f7265737300000000000000000000000000000000000000000000000000000000602082015250565b5f612027602483611a1f565b915061203282611fcd565b604082019050919050565b5f6020820190508181035f8301526120548161201b565b9050919050565b7f45524332303a20617070726f766520746f20746865207a65726f2061646472655f8201527f7373000000000000000000000000000000000000000000000000000000000000602082015250565b5f6120b5602283611a1f565b91506120c08261205b565b604082019050919050565b5f6020820190508181035f8301526120e2816120a9565b9050919050565b7f45524332303a20696e73756666696369656e7420616c6c6f77616e63650000005f82015250565b5f61211d601d83611a1f565b9150612128826120e9565b602082019050919050565b5f6020820190508181035f83015261214a81612111565b9050919050565b7f45524332303a207472616e736665722066726f6d20746865207a65726f2061645f8201527f6472657373000000000000000000000000000000000000000000000000000000602082015250565b5f6121ab602583611a1f565b91506121b682612151565b604082019050919050565b5f6020820190508181035f8301526121d88161219f565b9050919050565b7f45524332303a207472616e7366657220746f20746865207a65726f20616464725f8201527f6573730000000000000000000000000000000000000000000000000000000000602082015250565b5f612239602383611a1f565b9150612244826121df565b604082019050919050565b5f6020820190508181035f8301526122668161222d565b9050919050565b7f45524332303a207472616e7366657220616d6f756e74206578636565647320625f8201527f616c616e63650000000000000000000000000000000000000000000000000000602082015250565b5f6122c7602683611a1f565b91506122d28261226d565b604082019050919050565b5f6020820190508181035f8301526122f4816122bb565b9050919050565b7f45524332303a206275726e2066726f6d20746865207a65726f206164647265735f8201527f7300000000000000000000000000000000000000000000000000000000000000602082015250565b5f612355602183611a1f565b9150612360826122fb565b604082019050919050565b5f6020820190508181035f83015261238281612349565b9050919050565b7f45524332303a206275726e20616d6f756e7420657863656564732062616c616e5f8201527f6365000000000000000000000000000000000000000000000000000000000000602082015250565b5f6123e3602283611a1f565b91506123ee82612389565b604082019050919050565b5f6020820190508181035f830152612410816123d7565b9050919050565b5f81905092915050565b7f416363657373436f6e74726f6c3a206163636f756e74200000000000000000005f82015250565b5f612455601783612417565b915061246082612421565b601782019050919050565b5f61247582611a15565b61247f8185612417565b935061248f818560208601611a2f565b80840191505092915050565b7f206973206d697373696e6720726f6c65200000000000000000000000000000005f82015250565b5f6124cf601183612417565b91506124da8261249b565b601182019050919050565b5f6124ef82612449565b91506124fb828561246b565b9150612506826124c3565b9150612512828461246b565b91508190509392505050565b7f4e487b71000000000000000000000000000000000000000000000000000000005f52603260045260245ffd5b5f61255582611b19565b915061256083611b19565b925082820261256e81611b19565b9150828204841483151761258557612584611edf565b5b5092915050565b7f4e487b71000000000000000000000000000000000000000000000000000000005f52604160045260245ffd5b5f6125c382611b19565b91505f82036125d5576125d4611edf565b5b600182039050919050565b7f537472696e67733a20686578206c656e67746820696e73756666696369656e745f82015250565b5f612614602083611a1f565b915061261f826125e0565b602082019050919050565b5f6020820190508181035f83015261264181612608565b9050919050565b5f61265282611b19565b915061265d83611b19565b925082820390508181111561267557612674611edf565b5b92915050565b7f4e487b71000000000000000000000000000000000000000000000000000000005f52603160045260245ffdfea2646970667358221220ebb44e4636a3b37de471dabbc0db8a8e8b957760aa10c7e39fc4db3d9ba5ade364736f6c63430008150033",
  "immutableReferences": {},
  "source": "// SPDX-License-Identifier: MIT\r\npragma solidity ^0.8.19;\r\n\r\nimport \"../../utils/AccessControlEnumerable.sol\";\r\nimport \"./ERC20Burnable.sol\";\r\n\r\ncontract ERC20PresetMinterRebaser is\r\n    AccessControlEnumerable,\r\n    ERC20Burnable\r\n{\r\n    bytes32 public constant MINTER_ROLE = keccak256(\"MINTER_ROLE\");\r\n    bytes32 public constant REBASER_ROLE = keccak256(\"REBASER_ROLE\");\r\n\r\n    constructor(string memory name, string memory symbol) ERC20(name, symbol) {\r\n        _setupRole(DEFAULT_ADMIN_ROLE, _msgSender());\r\n\r\n        _setupRole(MINTER_ROLE, _msgSender());\r\n        _setupRole(REBASER_ROLE, _msgSender());\r\n    }\r\n}",
  "sourcePath": "F:\\Works\\Hundpad\\Staking\\V2\\rebasing-contract\\contracts\\tokens\\extensions\\ERC20PresetMinterRebaser.sol",
  "compiler": {
    "name": "solc",
    "version": "0.8.21+commit.d9974bed.Emscripten.clang"
  },
  "schemaVersion": "3.4.16",
  "updatedAt": "2024-06-07T12:45:09.880Z",
  "devdoc": {
    "kind": "dev",
    "methods": {},
    "version": 1
  },
  "userdoc": {
    "kind": "user",
    "methods": {},
    "version": 1
  }
}