{
  "contractName": "ERC20PresetMinterRebaser",
  "abi": [
    {
      "inputs": [
        {
          "internalType": "string",
          "name": "name",
          "type": "string"
        },
        {
          "internalType": "string",
          "name": "symbol",
          "type": "string"
        }
      ],
      "stateMutability": "nonpayable",
      "type": "constructor"
    },
    {
      "anonymous": false,
      "inputs": [
        {
          "indexed": true,
          "internalType": "address",
          "name": "owner",
          "type": "address"
        },
        {
          "indexed": true,
          "internalType": "address",
          "name": "spender",
          "type": "address"
        },
        {
          "indexed": false,
          "internalType": "uint256",
          "name": "value",
          "type": "uint256"
        }
      ],
      "name": "Approval",
      "type": "event"
    },
    {
      "anonymous": false,
      "inputs": [
        {
          "indexed": true,
          "internalType": "bytes32",
          "name": "role",
          "type": "bytes32"
        },
        {
          "indexed": true,
          "internalType": "bytes32",
          "name": "previousAdminRole",
          "type": "bytes32"
        },
        {
          "indexed": true,
          "internalType": "bytes32",
          "name": "newAdminRole",
          "type": "bytes32"
        }
      ],
      "name": "RoleAdminChanged",
      "type": "event"
    },
    {
      "anonymous": false,
      "inputs": [
        {
          "indexed": true,
          "internalType": "bytes32",
          "name": "role",
          "type": "bytes32"
        },
        {
          "indexed": true,
          "internalType": "address",
          "name": "account",
          "type": "address"
        },
        {
          "indexed": true,
          "internalType": "address",
          "name": "sender",
          "type": "address"
        }
      ],
      "name": "RoleGranted",
      "type": "event"
    },
    {
      "anonymous": false,
      "inputs": [
        {
          "indexed": true,
          "internalType": "bytes32",
          "name": "role",
          "type": "bytes32"
        },
        {
          "indexed": true,
          "internalType": "address",
          "name": "account",
          "type": "address"
        },
        {
          "indexed": true,
          "internalType": "address",
          "name": "sender",
          "type": "address"
        }
      ],
      "name": "RoleRevoked",
      "type": "event"
    },
    {
      "anonymous": false,
      "inputs": [
        {
          "indexed": true,
          "internalType": "address",
          "name": "from",
          "type": "address"
        },
        {
          "indexed": true,
          "internalType": "address",
          "name": "to",
          "type": "address"
        },
        {
          "indexed": false,
          "internalType": "uint256",
          "name": "value",
          "type": "uint256"
        }
      ],
      "name": "Transfer",
      "type": "event"
    },
    {
      "inputs": [],
      "name": "DEFAULT_ADMIN_ROLE",
      "outputs": [
        {
          "internalType": "bytes32",
          "name": "",
          "type": "bytes32"
        }
      ],
      "stateMutability": "view",
      "type": "function"
    },
    {
      "inputs": [],
      "name": "MINTER_ROLE",
      "outputs": [
        {
          "internalType": "bytes32",
          "name": "",
          "type": "bytes32"
        }
      ],
      "stateMutability": "view",
      "type": "function"
    },
    {
      "inputs": [],
      "name": "REBASER_ROLE",
      "outputs": [
        {
          "internalType": "bytes32",
          "name": "",
          "type": "bytes32"
        }
      ],
      "stateMutability": "view",
      "type": "function"
    },
    {
      "inputs": [
        {
          "internalType": "address",
          "name": "owner",
          "type": "address"
        },
        {
          "internalType": "address",
          "name": "spender",
          "type": "address"
        }
      ],
      "name": "allowance",
      "outputs": [
        {
          "internalType": "uint256",
          "name": "",
          "type": "uint256"
        }
      ],
      "stateMutability": "view",
      "type": "function"
    },
    {
      "inputs": [
        {
          "internalType": "address",
          "name": "spender",
          "type": "address"
        },
        {
          "internalType": "uint256",
          "name": "amount",
          "type": "uint256"
        }
      ],
      "name": "approve",
      "outputs": [
        {
          "internalType": "bool",
          "name": "",
          "type": "bool"
        }
      ],
      "stateMutability": "nonpayable",
      "type": "function"
    },
    {
      "inputs": [
        {
          "internalType": "address",
          "name": "account",
          "type": "address"
        }
      ],
      "name": "balanceOf",
      "outputs": [
        {
          "internalType": "uint256",
          "name": "",
          "type": "uint256"
        }
      ],
      "stateMutability": "view",
      "type": "function"
    },
    {
      "inputs": [
        {
          "internalType": "uint256",
          "name": "amount",
          "type": "uint256"
        }
      ],
      "name": "burn",
      "outputs": [],
      "stateMutability": "nonpayable",
      "type": "function"
    },
    {
      "inputs": [
        {
          "internalType": "address",
          "name": "account",
          "type": "address"
        },
        {
          "internalType": "uint256",
          "name": "amount",
          "type": "uint256"
        }
      ],
      "name": "burnFrom",
      "outputs": [],
      "stateMutability": "nonpayable",
      "type": "function"
    },
    {
      "inputs": [],
      "name": "decimals",
      "outputs": [
        {
          "internalType": "uint8",
          "name": "",
          "type": "uint8"
        }
      ],
      "stateMutability": "view",
      "type": "function"
    },
    {
      "inputs": [
        {
          "internalType": "address",
          "name": "spender",
          "type": "address"
        },
        {
          "internalType": "uint256",
          "name": "subtractedValue",
          "type": "uint256"
        }
      ],
      "name": "decreaseAllowance",
      "outputs": [
        {
          "internalType": "bool",
          "name": "",
          "type": "bool"
        }
      ],
      "stateMutability": "nonpayable",
      "type": "function"
    },
    {
      "inputs": [
        {
          "internalType": "bytes32",
          "name": "role",
          "type": "bytes32"
        }
      ],
      "name": "getRoleAdmin",
      "outputs": [
        {
          "internalType": "bytes32",
          "name": "",
          "type": "bytes32"
        }
      ],
      "stateMutability": "view",
      "type": "function"
    },
    {
      "inputs": [
        {
          "internalType": "bytes32",
          "name": "role",
          "type": "bytes32"
        },
        {
          "internalType": "uint256",
          "name": "index",
          "type": "uint256"
        }
      ],
      "name": "getRoleMember",
      "outputs": [
        {
          "internalType": "address",
          "name": "",
          "type": "address"
        }
      ],
      "stateMutability": "view",
      "type": "function"
    },
    {
      "inputs": [
        {
          "internalType": "bytes32",
          "name": "role",
          "type": "bytes32"
        }
      ],
      "name": "getRoleMemberCount",
      "outputs": [
        {
          "internalType": "uint256",
          "name": "",
          "type": "uint256"
        }
      ],
      "stateMutability": "view",
      "type": "function"
    },
    {
      "inputs": [
        {
          "internalType": "bytes32",
          "name": "role",
          "type": "bytes32"
        },
        {
          "internalType": "address",
          "name": "account",
          "type": "address"
        }
      ],
      "name": "grantRole",
      "outputs": [],
      "stateMutability": "nonpayable",
      "type": "function"
    },
    {
      "inputs": [
        {
          "internalType": "bytes32",
          "name": "role",
          "type": "bytes32"
        },
        {
          "internalType": "address",
          "name": "account",
          "type": "address"
        }
      ],
      "name": "hasRole",
      "outputs": [
        {
          "internalType": "bool",
          "name": "",
          "type": "bool"
        }
      ],
      "stateMutability": "view",
      "type": "function"
    },
    {
      "inputs": [
        {
          "internalType": "address",
          "name": "spender",
          "type": "address"
        },
        {
          "internalType": "uint256",
          "name": "addedValue",
          "type": "uint256"
        }
      ],
      "name": "increaseAllowance",
      "outputs": [
        {
          "internalType": "bool",
          "name": "",
          "type": "bool"
        }
      ],
      "stateMutability": "nonpayable",
      "type": "function"
    },
    {
      "inputs": [],
      "name": "name",
      "outputs": [
        {
          "internalType": "string",
          "name": "",
          "type": "string"
        }
      ],
      "stateMutability": "view",
      "type": "function"
    },
    {
      "inputs": [
        {
          "internalType": "bytes32",
          "name": "role",
          "type": "bytes32"
        },
        {
          "internalType": "address",
          "name": "account",
          "type": "address"
        }
      ],
      "name": "renounceRole",
      "outputs": [],
      "stateMutability": "nonpayable",
      "type": "function"
    },
    {
      "inputs": [
        {
          "internalType": "bytes32",
          "name": "role",
          "type": "bytes32"
        },
        {
          "internalType": "address",
          "name": "account",
          "type": "address"
        }
      ],
      "name": "revokeRole",
      "outputs": [],
      "stateMutability": "nonpayable",
      "type": "function"
    },
    {
      "inputs": [
        {
          "internalType": "bytes4",
          "name": "interfaceId",
          "type": "bytes4"
        }
      ],
      "name": "supportsInterface",
      "outputs": [
        {
          "internalType": "bool",
          "name": "",
          "type": "bool"
        }
      ],
      "stateMutability": "view",
      "type": "function"
    },
    {
      "inputs": [],
      "name": "symbol",
      "outputs": [
        {
          "internalType": "string",
          "name": "",
          "type": "string"
        }
      ],
      "stateMutability": "view",
      "type": "function"
    },
    {
      "inputs": [],
      "name": "totalSupply",
      "outputs": [
        {
          "internalType": "uint256",
          "name": "",
          "type": "uint256"
        }
      ],
      "stateMutability": "view",
      "type": "function"
    },
    {
      "inputs": [
        {
          "internalType": "address",
          "name": "to",
          "type": "address"
        },
        {
          "internalType": "uint256",
          "name": "amount",
          "type": "uint256"
        }
      ],
      "name": "transfer",
      "outputs": [
        {
          "internalType": "bool",
          "name": "",
          "type": "bool"
        }
      ],
      "stateMutability": "nonpayable",
      "type": "function"
    },
    {
      "inputs": [
        {
          "internalType": "address",
          "name": "from",
          "type": "address"
        },
        {
          "internalType": "address",
          "name": "to",
          "type": "address"
        },
        {
          "internalType": "uint256",
          "name": "amount",
          "type": "uint256"
        }
      ],
      "name": "transferFrom",
      "outputs": [
        {
          "internalType": "bool",
          "name": "",
          "type": "bool"
        }
      ],
      "stateMutability": "nonpayable",
      "type": "function"
    }
  ],
  "bytecode": "0x60806040523480156200001157600080fd5b50604051620030de380380620030de83398181016040528101906200003791906200052c565b818181600590816200004a9190620007fc565b5080600690816200005c9190620007fc565b505050620000836000801b620000776200010d60201b60201c565b6200011560201b60201c565b620000c47f9f2df0fed2c77648de5860a4cc508cd0818c85b8b8a1ab4ceeef8d981c8956a6620000b86200010d60201b60201c565b6200011560201b60201c565b620001057f5fde63b561377d1441afa201ff619faac2ff8fed70a7fbdbe7a5cb07768c0b75620000f96200010d60201b60201c565b6200011560201b60201c565b5050620008e3565b600033905090565b6200012782826200012b60201b60201c565b5050565b6200013d82826200016960201b60201c565b6200016481600160008581526020019081526020016000206200025a60201b90919060201c565b505050565b6200017b82826200029260201b60201c565b6200025657600160008084815260200190815260200160002060000160008373ffffffffffffffffffffffffffffffffffffffff1673ffffffffffffffffffffffffffffffffffffffff16815260200190815260200160002060006101000a81548160ff021916908315150217905550620001fb6200010d60201b60201c565b73ffffffffffffffffffffffffffffffffffffffff168173ffffffffffffffffffffffffffffffffffffffff16837f2f8788117e7eff1d82e926ec794901d17c78024a50270940304540a733656f0d60405160405180910390a45b5050565b60006200028a836000018373ffffffffffffffffffffffffffffffffffffffff1660001b620002fc60201b60201c565b905092915050565b600080600084815260200190815260200160002060000160008373ffffffffffffffffffffffffffffffffffffffff1673ffffffffffffffffffffffffffffffffffffffff16815260200190815260200160002060009054906101000a900460ff16905092915050565b60006200031083836200037660201b60201c565b6200036b57826000018290806001815401808255809150506001900390600052602060002001600090919091909150558260000180549050836001016000848152602001908152602001600020819055506001905062000370565b600090505b92915050565b600080836001016000848152602001908152602001600020541415905092915050565b6000604051905090565b600080fd5b600080fd5b600080fd5b600080fd5b6000601f19601f8301169050919050565b7f4e487b7100000000000000000000000000000000000000000000000000000000600052604160045260246000fd5b6200040282620003b7565b810181811067ffffffffffffffff82111715620004245762000423620003c8565b5b80604052505050565b60006200043962000399565b9050620004478282620003f7565b919050565b600067ffffffffffffffff8211156200046a5762000469620003c8565b5b6200047582620003b7565b9050602081019050919050565b60005b83811015620004a257808201518184015260208101905062000485565b60008484015250505050565b6000620004c5620004bf846200044c565b6200042d565b905082815260208101848484011115620004e457620004e3620003b2565b5b620004f184828562000482565b509392505050565b600082601f830112620005115762000510620003ad565b5b815162000523848260208601620004ae565b91505092915050565b60008060408385031215620005465762000545620003a3565b5b600083015167ffffffffffffffff811115620005675762000566620003a8565b5b6200057585828601620004f9565b925050602083015167ffffffffffffffff811115620005995762000598620003a8565b5b620005a785828601620004f9565b9150509250929050565b600081519050919050565b7f4e487b7100000000000000000000000000000000000000000000000000000000600052602260045260246000fd5b600060028204905060018216806200060457607f821691505b6020821081036200061a5762000619620005bc565b5b50919050565b60008190508160005260206000209050919050565b60006020601f8301049050919050565b600082821b905092915050565b600060088302620006847fffffffffffffffffffffffffffffffffffffffffffffffffffffffffffffffff8262000645565b62000690868362000645565b95508019841693508086168417925050509392505050565b6000819050919050565b6000819050919050565b6000620006dd620006d7620006d184620006a8565b620006b2565b620006a8565b9050919050565b6000819050919050565b620006f983620006bc565b620007116200070882620006e4565b84845462000652565b825550505050565b600090565b6200072862000719565b62000735818484620006ee565b505050565b5b818110156200075d57620007516000826200071e565b6001810190506200073b565b5050565b601f821115620007ac57620007768162000620565b620007818462000635565b8101602085101562000791578190505b620007a9620007a08562000635565b8301826200073a565b50505b505050565b600082821c905092915050565b6000620007d160001984600802620007b1565b1980831691505092915050565b6000620007ec8383620007be565b9150826002028217905092915050565b6200080782620005b1565b67ffffffffffffffff811115620008235762000822620003c8565b5b6200082f8254620005eb565b6200083c82828562000761565b600060209050601f8311600181146200087457600084156200085f578287015190505b6200086b8582620007de565b865550620008db565b601f198416620008848662000620565b60005b82811015620008ae5784890151825560018201915060208501945060208101905062000887565b86831015620008ce5784890151620008ca601f891682620007be565b8355505b6001600288020188555050505b505050505050565b6127eb80620008f36000396000f3fe608060405234801561001057600080fd5b50600436106101585760003560e01c806379cc6790116100c3578063a457c2d71161007c578063a457c2d714610401578063a9059cbb14610431578063ca15c87314610461578063d539139314610491578063d547741f146104af578063dd62ed3e146104cb57610158565b806379cc67901461032b57806383eb70e5146103475780639010d07c1461036557806391d148541461039557806395d89b41146103c5578063a217fddf146103e357610158565b80632f2ff15d116101155780632f2ff15d14610259578063313ce5671461027557806336568abe1461029357806339509351146102af57806342966c68146102df57806370a08231146102fb57610158565b806301ffc9a71461015d57806306fdde031461018d578063095ea7b3146101ab57806318160ddd146101db57806323b872dd146101f9578063248a9ca314610229575b600080fd5b61017760048036038101906101729190611a50565b6104fb565b6040516101849190611a98565b60405180910390f35b610195610575565b6040516101a29190611b43565b60405180910390f35b6101c560048036038101906101c09190611bf9565b610607565b6040516101d29190611a98565b60405180910390f35b6101e361062a565b6040516101f09190611c48565b60405180910390f35b610213600480360381019061020e9190611c63565b610634565b6040516102209190611a98565b60405180910390f35b610243600480360381019061023e9190611cec565b610663565b6040516102509190611d28565b60405180910390f35b610273600480360381019061026e9190611d43565b610682565b005b61027d6106a3565b60405161028a9190611d9f565b60405180910390f35b6102ad60048036038101906102a89190611d43565b6106ac565b005b6102c960048036038101906102c49190611bf9565b61072f565b6040516102d69190611a98565b60405180910390f35b6102f960048036038101906102f49190611dba565b610766565b005b61031560048036038101906103109190611de7565b61077a565b6040516103229190611c48565b60405180910390f35b61034560048036038101906103409190611bf9565b6107c3565b005b61034f6107e3565b60405161035c9190611d28565b60405180910390f35b61037f600480360381019061037a9190611e14565b610807565b60405161038c9190611e63565b60405180910390f35b6103af60048036038101906103aa9190611d43565b610836565b6040516103bc9190611a98565b60405180910390f35b6103cd6108a0565b6040516103da9190611b43565b60405180910390f35b6103eb610932565b6040516103f89190611d28565b60405180910390f35b61041b60048036038101906104169190611bf9565b610939565b6040516104289190611a98565b60405180910390f35b61044b60048036038101906104469190611bf9565b6109b0565b6040516104589190611a98565b60405180910390f35b61047b60048036038101906104769190611cec565b6109d3565b6040516104889190611c48565b60405180910390f35b6104996109f7565b6040516104a69190611d28565b60405180910390f35b6104c960048036038101906104c49190611d43565b610a1b565b005b6104e560048036038101906104e09190611e7e565b610a3c565b6040516104f29190611c48565b60405180910390f35b60007f5a05180f000000000000000000000000000000000000000000000000000000007bffffffffffffffffffffffffffffffffffffffffffffffffffffffff1916827bffffffffffffffffffffffffffffffffffffffffffffffffffffffff1916148061056e575061056d82610ac3565b5b9050919050565b60606005805461058490611eed565b80601f01602080910402602001604051908101604052809291908181526020018280546105b090611eed565b80156105fd5780601f106105d2576101008083540402835291602001916105fd565b820191906000526020600020905b8154815290600101906020018083116105e057829003601f168201915b5050505050905090565b600080610612610b3d565b905061061f818585610b45565b600191505092915050565b6000600454905090565b60008061063f610b3d565b905061064c858285610d0e565b610657858585610d9a565b60019150509392505050565b6000806000838152602001908152602001600020600101549050919050565b61068b82610663565b61069481611013565b61069e8383611027565b505050565b60006012905090565b6106b4610b3d565b73ffffffffffffffffffffffffffffffffffffffff168173ffffffffffffffffffffffffffffffffffffffff1614610721576040517f08c379a000000000000000000000000000000000000000000000000000000000815260040161071890611f90565b60405180910390fd5b61072b828261105b565b5050565b60008061073a610b3d565b905061075b81858561074c8589610a3c565b6107569190611fdf565b610b45565b600191505092915050565b610777610771610b3d565b8261108f565b50565b6000600260008373ffffffffffffffffffffffffffffffffffffffff1673ffffffffffffffffffffffffffffffffffffffff168152602001908152602001600020549050919050565b6107d5826107cf610b3d565b83610d0e565b6107df828261108f565b5050565b7f5fde63b561377d1441afa201ff619faac2ff8fed70a7fbdbe7a5cb07768c0b7581565b600061082e826001600086815260200190815260200160002061125e90919063ffffffff16565b905092915050565b600080600084815260200190815260200160002060000160008373ffffffffffffffffffffffffffffffffffffffff1673ffffffffffffffffffffffffffffffffffffffff16815260200190815260200160002060009054906101000a900460ff16905092915050565b6060600680546108af90611eed565b80601f01602080910402602001604051908101604052809291908181526020018280546108db90611eed565b80156109285780601f106108fd57610100808354040283529160200191610928565b820191906000526020600020905b81548152906001019060200180831161090b57829003601f168201915b5050505050905090565b6000801b81565b600080610944610b3d565b905060006109528286610a3c565b905083811015610997576040517f08c379a000000000000000000000000000000000000000000000000000000000815260040161098e90612085565b60405180910390fd5b6109a48286868403610b45565b60019250505092915050565b6000806109bb610b3d565b90506109c8818585610d9a565b600191505092915050565b60006109f060016000848152602001908152602001600020611278565b9050919050565b7f9f2df0fed2c77648de5860a4cc508cd0818c85b8b8a1ab4ceeef8d981c8956a681565b610a2482610663565b610a2d81611013565b610a37838361105b565b505050565b6000600360008473ffffffffffffffffffffffffffffffffffffffff1673ffffffffffffffffffffffffffffffffffffffff16815260200190815260200160002060008373ffffffffffffffffffffffffffffffffffffffff1673ffffffffffffffffffffffffffffffffffffffff16815260200190815260200160002054905092915050565b60007f7965db0b000000000000000000000000000000000000000000000000000000007bffffffffffffffffffffffffffffffffffffffffffffffffffffffff1916827bffffffffffffffffffffffffffffffffffffffffffffffffffffffff19161480610b365750610b358261128d565b5b9050919050565b600033905090565b600073ffffffffffffffffffffffffffffffffffffffff168373ffffffffffffffffffffffffffffffffffffffff1603610bb4576040517f08c379a0000000000000000000000000000000000000000000000000000000008152600401610bab90612117565b60405180910390fd5b600073ffffffffffffffffffffffffffffffffffffffff168273ffffffffffffffffffffffffffffffffffffffff1603610c23576040517f08c379a0000000000000000000000000000000000000000000000000000000008152600401610c1a906121a9565b60405180910390fd5b80600360008573ffffffffffffffffffffffffffffffffffffffff1673ffffffffffffffffffffffffffffffffffffffff16815260200190815260200160002060008473ffffffffffffffffffffffffffffffffffffffff1673ffffffffffffffffffffffffffffffffffffffff168152602001908152602001600020819055508173ffffffffffffffffffffffffffffffffffffffff168373ffffffffffffffffffffffffffffffffffffffff167f8c5be1e5ebec7d5bd14f71427d1e84f3dd0314c0f7b2291e5b200ac8c7c3b92583604051610d019190611c48565b60405180910390a3505050565b6000610d1a8484610a3c565b90507fffffffffffffffffffffffffffffffffffffffffffffffffffffffffffffffff8114610d945781811015610d86576040517f08c379a0000000000000000000000000000000000000000000000000000000008152600401610d7d90612215565b60405180910390fd5b610d938484848403610b45565b5b50505050565b600073ffffffffffffffffffffffffffffffffffffffff168373ffffffffffffffffffffffffffffffffffffffff1603610e09576040517f08c379a0000000000000000000000000000000000000000000000000000000008152600401610e00906122a7565b60405180910390fd5b600073ffffffffffffffffffffffffffffffffffffffff168273ffffffffffffffffffffffffffffffffffffffff1603610e78576040517f08c379a0000000000000000000000000000000000000000000000000000000008152600401610e6f90612339565b60405180910390fd5b610e838383836112f7565b6000600260008573ffffffffffffffffffffffffffffffffffffffff1673ffffffffffffffffffffffffffffffffffffffff16815260200190815260200160002054905081811015610f0a576040517f08c379a0000000000000000000000000000000000000000000000000000000008152600401610f01906123cb565b60405180910390fd5b818103600260008673ffffffffffffffffffffffffffffffffffffffff1673ffffffffffffffffffffffffffffffffffffffff1681526020019081526020016000208190555081600260008573ffffffffffffffffffffffffffffffffffffffff1673ffffffffffffffffffffffffffffffffffffffff168152602001908152602001600020600082825401925050819055508273ffffffffffffffffffffffffffffffffffffffff168473ffffffffffffffffffffffffffffffffffffffff167fddf252ad1be2c89b69c2b068fc378daa952ba7f163c4a11628f55a4df523b3ef84604051610ffa9190611c48565b60405180910390a361100d8484846112fc565b50505050565b6110248161101f610b3d565b611301565b50565b6110318282611386565b611056816001600085815260200190815260200160002061146690919063ffffffff16565b505050565b6110658282611496565b61108a816001600085815260200190815260200160002061157790919063ffffffff16565b505050565b600073ffffffffffffffffffffffffffffffffffffffff168273ffffffffffffffffffffffffffffffffffffffff16036110fe576040517f08c379a00000000000000000000000000000000000000000000000000000000081526004016110f59061245d565b60405180910390fd5b61110a826000836112f7565b6000600260008473ffffffffffffffffffffffffffffffffffffffff1673ffffffffffffffffffffffffffffffffffffffff16815260200190815260200160002054905081811015611191576040517f08c379a0000000000000000000000000000000000000000000000000000000008152600401611188906124ef565b60405180910390fd5b818103600260008573ffffffffffffffffffffffffffffffffffffffff1673ffffffffffffffffffffffffffffffffffffffff1681526020019081526020016000208190555081600460008282540392505081905550600073ffffffffffffffffffffffffffffffffffffffff168373ffffffffffffffffffffffffffffffffffffffff167fddf252ad1be2c89b69c2b068fc378daa952ba7f163c4a11628f55a4df523b3ef846040516112459190611c48565b60405180910390a3611259836000846112fc565b505050565b600061126d83600001836115a7565b60001c905092915050565b6000611286826000016115d2565b9050919050565b60007f01ffc9a7000000000000000000000000000000000000000000000000000000007bffffffffffffffffffffffffffffffffffffffffffffffffffffffff1916827bffffffffffffffffffffffffffffffffffffffffffffffffffffffff1916149050919050565b505050565b505050565b61130b8282610836565b61138257611318816115e3565b6113268360001c6020611610565b6040516020016113379291906125e3565b6040516020818303038152906040526040517f08c379a00000000000000000000000000000000000000000000000000000000081526004016113799190611b43565b60405180910390fd5b5050565b6113908282610836565b61146257600160008084815260200190815260200160002060000160008373ffffffffffffffffffffffffffffffffffffffff1673ffffffffffffffffffffffffffffffffffffffff16815260200190815260200160002060006101000a81548160ff021916908315150217905550611407610b3d565b73ffffffffffffffffffffffffffffffffffffffff168173ffffffffffffffffffffffffffffffffffffffff16837f2f8788117e7eff1d82e926ec794901d17c78024a50270940304540a733656f0d60405160405180910390a45b5050565b600061148e836000018373ffffffffffffffffffffffffffffffffffffffff1660001b61184c565b905092915050565b6114a08282610836565b1561157357600080600084815260200190815260200160002060000160008373ffffffffffffffffffffffffffffffffffffffff1673ffffffffffffffffffffffffffffffffffffffff16815260200190815260200160002060006101000a81548160ff021916908315150217905550611518610b3d565b73ffffffffffffffffffffffffffffffffffffffff168173ffffffffffffffffffffffffffffffffffffffff16837ff6391f5c32d9c69d2a47ea670b442974b53935d1edc7fd64eb21e047a839171b60405160405180910390a45b5050565b600061159f836000018373ffffffffffffffffffffffffffffffffffffffff1660001b6118bc565b905092915050565b60008260000182815481106115bf576115be61261d565b5b9060005260206000200154905092915050565b600081600001805490509050919050565b60606116098273ffffffffffffffffffffffffffffffffffffffff16601460ff16611610565b9050919050565b606060006002836002611623919061264c565b61162d9190611fdf565b67ffffffffffffffff8111156116465761164561268e565b5b6040519080825280601f01601f1916602001820160405280156116785781602001600182028036833780820191505090505b5090507f3000000000000000000000000000000000000000000000000000000000000000816000815181106116b0576116af61261d565b5b60200101907effffffffffffffffffffffffffffffffffffffffffffffffffffffffffffff1916908160001a9053507f7800000000000000000000000000000000000000000000000000000000000000816001815181106117145761171361261d565b5b60200101907effffffffffffffffffffffffffffffffffffffffffffffffffffffffffffff1916908160001a90535060006001846002611754919061264c565b61175e9190611fdf565b90505b60018111156117fe577f3031323334353637383961626364656600000000000000000000000000000000600f8616601081106117a05761179f61261d565b5b1a60f81b8282815181106117b7576117b661261d565b5b60200101907effffffffffffffffffffffffffffffffffffffffffffffffffffffffffffff1916908160001a905350600485901c9450806117f7906126bd565b9050611761565b5060008414611842576040517f08c379a000000000000000000000000000000000000000000000000000000000815260040161183990612732565b60405180910390fd5b8091505092915050565b600061185883836119d0565b6118b15782600001829080600181540180825580915050600190039060005260206000200160009091909190915055826000018054905083600101600084815260200190815260200160002081905550600190506118b6565b600090505b92915050565b600080836001016000848152602001908152602001600020549050600081146119c45760006001826118ee9190612752565b90506000600186600001805490506119069190612752565b90508181146119755760008660000182815481106119275761192661261d565b5b906000526020600020015490508087600001848154811061194b5761194a61261d565b5b90600052602060002001819055508387600101600083815260200190815260200160002081905550505b8560000180548061198957611988612786565b5b6001900381819060005260206000200160009055905585600101600086815260200190815260200160002060009055600193505050506119ca565b60009150505b92915050565b600080836001016000848152602001908152602001600020541415905092915050565b600080fd5b60007fffffffff0000000000000000000000000000000000000000000000000000000082169050919050565b611a2d816119f8565b8114611a3857600080fd5b50565b600081359050611a4a81611a24565b92915050565b600060208284031215611a6657611a656119f3565b5b6000611a7484828501611a3b565b91505092915050565b60008115159050919050565b611a9281611a7d565b82525050565b6000602082019050611aad6000830184611a89565b92915050565b600081519050919050565b600082825260208201905092915050565b60005b83811015611aed578082015181840152602081019050611ad2565b60008484015250505050565b6000601f19601f8301169050919050565b6000611b1582611ab3565b611b1f8185611abe565b9350611b2f818560208601611acf565b611b3881611af9565b840191505092915050565b60006020820190508181036000830152611b5d8184611b0a565b905092915050565b600073ffffffffffffffffffffffffffffffffffffffff82169050919050565b6000611b9082611b65565b9050919050565b611ba081611b85565b8114611bab57600080fd5b50565b600081359050611bbd81611b97565b92915050565b6000819050919050565b611bd681611bc3565b8114611be157600080fd5b50565b600081359050611bf381611bcd565b92915050565b60008060408385031215611c1057611c0f6119f3565b5b6000611c1e85828601611bae565b9250506020611c2f85828601611be4565b9150509250929050565b611c4281611bc3565b82525050565b6000602082019050611c5d6000830184611c39565b92915050565b600080600060608486031215611c7c57611c7b6119f3565b5b6000611c8a86828701611bae565b9350506020611c9b86828701611bae565b9250506040611cac86828701611be4565b9150509250925092565b6000819050919050565b611cc981611cb6565b8114611cd457600080fd5b50565b600081359050611ce681611cc0565b92915050565b600060208284031215611d0257611d016119f3565b5b6000611d1084828501611cd7565b91505092915050565b611d2281611cb6565b82525050565b6000602082019050611d3d6000830184611d19565b92915050565b60008060408385031215611d5a57611d596119f3565b5b6000611d6885828601611cd7565b9250506020611d7985828601611bae565b9150509250929050565b600060ff82169050919050565b611d9981611d83565b82525050565b6000602082019050611db46000830184611d90565b92915050565b600060208284031215611dd057611dcf6119f3565b5b6000611dde84828501611be4565b91505092915050565b600060208284031215611dfd57611dfc6119f3565b5b6000611e0b84828501611bae565b91505092915050565b60008060408385031215611e2b57611e2a6119f3565b5b6000611e3985828601611cd7565b9250506020611e4a85828601611be4565b9150509250929050565b611e5d81611b85565b82525050565b6000602082019050611e786000830184611e54565b92915050565b60008060408385031215611e9557611e946119f3565b5b6000611ea385828601611bae565b9250506020611eb485828601611bae565b9150509250929050565b7f4e487b7100000000000000000000000000000000000000000000000000000000600052602260045260246000fd5b60006002820490506001821680611f0557607f821691505b602082108103611f1857611f17611ebe565b5b50919050565b7f416363657373436f6e74726f6c3a2063616e206f6e6c792072656e6f756e636560008201527f20726f6c657320666f722073656c660000000000000000000000000000000000602082015250565b6000611f7a602f83611abe565b9150611f8582611f1e565b604082019050919050565b60006020820190508181036000830152611fa981611f6d565b9050919050565b7f4e487b7100000000000000000000000000000000000000000000000000000000600052601160045260246000fd5b6000611fea82611bc3565b9150611ff583611bc3565b925082820190508082111561200d5761200c611fb0565b5b92915050565b7f45524332303a2064656372656173656420616c6c6f77616e63652062656c6f7760008201527f207a65726f000000000000000000000000000000000000000000000000000000602082015250565b600061206f602583611abe565b915061207a82612013565b604082019050919050565b6000602082019050818103600083015261209e81612062565b9050919050565b7f45524332303a20617070726f76652066726f6d20746865207a65726f2061646460008201527f7265737300000000000000000000000000000000000000000000000000000000602082015250565b6000612101602483611abe565b915061210c826120a5565b604082019050919050565b60006020820190508181036000830152612130816120f4565b9050919050565b7f45524332303a20617070726f766520746f20746865207a65726f20616464726560008201527f7373000000000000000000000000000000000000000000000000000000000000602082015250565b6000612193602283611abe565b915061219e82612137565b604082019050919050565b600060208201905081810360008301526121c281612186565b9050919050565b7f45524332303a20696e73756666696369656e7420616c6c6f77616e6365000000600082015250565b60006121ff601d83611abe565b915061220a826121c9565b602082019050919050565b6000602082019050818103600083015261222e816121f2565b9050919050565b7f45524332303a207472616e736665722066726f6d20746865207a65726f20616460008201527f6472657373000000000000000000000000000000000000000000000000000000602082015250565b6000612291602583611abe565b915061229c82612235565b604082019050919050565b600060208201905081810360008301526122c081612284565b9050919050565b7f45524332303a207472616e7366657220746f20746865207a65726f206164647260008201527f6573730000000000000000000000000000000000000000000000000000000000602082015250565b6000612323602383611abe565b915061232e826122c7565b604082019050919050565b6000602082019050818103600083015261235281612316565b9050919050565b7f45524332303a207472616e7366657220616d6f756e742065786365656473206260008201527f616c616e63650000000000000000000000000000000000000000000000000000602082015250565b60006123b5602683611abe565b91506123c082612359565b604082019050919050565b600060208201905081810360008301526123e4816123a8565b9050919050565b7f45524332303a206275726e2066726f6d20746865207a65726f2061646472657360008201527f7300000000000000000000000000000000000000000000000000000000000000602082015250565b6000612447602183611abe565b9150612452826123eb565b604082019050919050565b600060208201905081810360008301526124768161243a565b9050919050565b7f45524332303a206275726e20616d6f756e7420657863656564732062616c616e60008201527f6365000000000000000000000000000000000000000000000000000000000000602082015250565b60006124d9602283611abe565b91506124e48261247d565b604082019050919050565b60006020820190508181036000830152612508816124cc565b9050919050565b600081905092915050565b7f416363657373436f6e74726f6c3a206163636f756e7420000000000000000000600082015250565b600061255060178361250f565b915061255b8261251a565b601782019050919050565b600061257182611ab3565b61257b818561250f565b935061258b818560208601611acf565b80840191505092915050565b7f206973206d697373696e6720726f6c6520000000000000000000000000000000600082015250565b60006125cd60118361250f565b91506125d882612597565b601182019050919050565b60006125ee82612543565b91506125fa8285612566565b9150612605826125c0565b91506126118284612566565b91508190509392505050565b7f4e487b7100000000000000000000000000000000000000000000000000000000600052603260045260246000fd5b600061265782611bc3565b915061266283611bc3565b925082820261267081611bc3565b9150828204841483151761268757612686611fb0565b5b5092915050565b7f4e487b7100000000000000000000000000000000000000000000000000000000600052604160045260246000fd5b60006126c882611bc3565b9150600082036126db576126da611fb0565b5b600182039050919050565b7f537472696e67733a20686578206c656e67746820696e73756666696369656e74600082015250565b600061271c602083611abe565b9150612727826126e6565b602082019050919050565b6000602082019050818103600083015261274b8161270f565b9050919050565b600061275d82611bc3565b915061276883611bc3565b92508282039050818111156127805761277f611fb0565b5b92915050565b7f4e487b7100000000000000000000000000000000000000000000000000000000600052603160045260246000fdfea264697066735822122040c03d9cd899b1ce74d09e176af40e1bdb9dabbf6c3721abbbb417a719b36de364736f6c63430008130033",
  "immutableReferences": {},
  "source": "// SPDX-License-Identifier: MIT\r\npragma solidity ^0.8.19;\r\n\r\nimport \"../../utils/AccessControlEnumerable.sol\";\r\nimport \"./ERC20Burnable.sol\";\r\n\r\ncontract ERC20PresetMinterRebaser is\r\n    AccessControlEnumerable,\r\n    ERC20Burnable\r\n{\r\n    bytes32 public constant MINTER_ROLE = keccak256(\"MINTER_ROLE\");\r\n    bytes32 public constant REBASER_ROLE = keccak256(\"REBASER_ROLE\");\r\n\r\n    constructor(string memory name, string memory symbol) ERC20(name, symbol) {\r\n        _setupRole(DEFAULT_ADMIN_ROLE, _msgSender());\r\n\r\n        _setupRole(MINTER_ROLE, _msgSender());\r\n        _setupRole(REBASER_ROLE, _msgSender());\r\n    }\r\n}",
  "sourcePath": "F:\\Works\\Hundpad\\Staking\\V2\\rebasing-contract\\contracts\\tokens\\extensions\\ERC20PresetMinterRebaser.sol",
  "compiler": {
    "name": "solc",
    "version": "0.8.19+commit.7dd6d404.Emscripten.clang"
  },
  "schemaVersion": "3.4.16",
  "updatedAt": "2024-06-07T12:59:52.871Z",
  "devdoc": {
    "kind": "dev",
    "methods": {},
    "version": 1
  },
  "userdoc": {
    "kind": "user",
    "methods": {},
    "version": 1
  }
}