{
  "contractName": "RebasingToken",
  "abi": [
    {
      "inputs": [],
      "stateMutability": "nonpayable",
      "type": "constructor"
    },
    {
      "anonymous": false,
      "inputs": [
        {
          "indexed": true,
          "internalType": "address",
          "name": "owner",
          "type": "address"
        },
        {
          "indexed": true,
          "internalType": "address",
          "name": "spender",
          "type": "address"
        },
        {
          "indexed": false,
          "internalType": "uint256",
          "name": "value",
          "type": "uint256"
        }
      ],
      "name": "Approval",
      "type": "event"
    },
    {
      "anonymous": false,
      "inputs": [
        {
          "indexed": true,
          "internalType": "address",
          "name": "previousOwner",
          "type": "address"
        },
        {
          "indexed": true,
          "internalType": "address",
          "name": "newOwner",
          "type": "address"
        }
      ],
      "name": "OwnershipTransferred",
      "type": "event"
    },
    {
      "anonymous": false,
      "inputs": [
        {
          "indexed": true,
          "internalType": "bytes32",
          "name": "role",
          "type": "bytes32"
        },
        {
          "indexed": true,
          "internalType": "bytes32",
          "name": "previousAdminRole",
          "type": "bytes32"
        },
        {
          "indexed": true,
          "internalType": "bytes32",
          "name": "newAdminRole",
          "type": "bytes32"
        }
      ],
      "name": "RoleAdminChanged",
      "type": "event"
    },
    {
      "anonymous": false,
      "inputs": [
        {
          "indexed": true,
          "internalType": "bytes32",
          "name": "role",
          "type": "bytes32"
        },
        {
          "indexed": true,
          "internalType": "address",
          "name": "account",
          "type": "address"
        },
        {
          "indexed": true,
          "internalType": "address",
          "name": "sender",
          "type": "address"
        }
      ],
      "name": "RoleGranted",
      "type": "event"
    },
    {
      "anonymous": false,
      "inputs": [
        {
          "indexed": true,
          "internalType": "bytes32",
          "name": "role",
          "type": "bytes32"
        },
        {
          "indexed": true,
          "internalType": "address",
          "name": "account",
          "type": "address"
        },
        {
          "indexed": true,
          "internalType": "address",
          "name": "sender",
          "type": "address"
        }
      ],
      "name": "RoleRevoked",
      "type": "event"
    },
    {
      "anonymous": false,
      "inputs": [
        {
          "indexed": true,
          "internalType": "address",
          "name": "from",
          "type": "address"
        },
        {
          "indexed": true,
          "internalType": "address",
          "name": "to",
          "type": "address"
        },
        {
          "indexed": false,
          "internalType": "uint256",
          "name": "value",
          "type": "uint256"
        }
      ],
      "name": "Transfer",
      "type": "event"
    },
    {
      "inputs": [],
      "name": "DEFAULT_ADMIN_ROLE",
      "outputs": [
        {
          "internalType": "bytes32",
          "name": "",
          "type": "bytes32"
        }
      ],
      "stateMutability": "view",
      "type": "function"
    },
    {
      "inputs": [],
      "name": "MINTER_ROLE",
      "outputs": [
        {
          "internalType": "bytes32",
          "name": "",
          "type": "bytes32"
        }
      ],
      "stateMutability": "view",
      "type": "function"
    },
    {
      "inputs": [],
      "name": "REBASER_ROLE",
      "outputs": [
        {
          "internalType": "bytes32",
          "name": "",
          "type": "bytes32"
        }
      ],
      "stateMutability": "view",
      "type": "function"
    },
    {
      "inputs": [
        {
          "internalType": "address",
          "name": "owner",
          "type": "address"
        },
        {
          "internalType": "address",
          "name": "spender",
          "type": "address"
        }
      ],
      "name": "allowance",
      "outputs": [
        {
          "internalType": "uint256",
          "name": "",
          "type": "uint256"
        }
      ],
      "stateMutability": "view",
      "type": "function"
    },
    {
      "inputs": [
        {
          "internalType": "address",
          "name": "spender",
          "type": "address"
        },
        {
          "internalType": "uint256",
          "name": "amount",
          "type": "uint256"
        }
      ],
      "name": "approve",
      "outputs": [
        {
          "internalType": "bool",
          "name": "",
          "type": "bool"
        }
      ],
      "stateMutability": "nonpayable",
      "type": "function"
    },
    {
      "inputs": [
        {
          "internalType": "uint256",
          "name": "amount",
          "type": "uint256"
        }
      ],
      "name": "burn",
      "outputs": [],
      "stateMutability": "nonpayable",
      "type": "function"
    },
    {
      "inputs": [
        {
          "internalType": "address",
          "name": "account",
          "type": "address"
        },
        {
          "internalType": "uint256",
          "name": "amount",
          "type": "uint256"
        }
      ],
      "name": "burnFrom",
      "outputs": [],
      "stateMutability": "nonpayable",
      "type": "function"
    },
    {
      "inputs": [],
      "name": "decimals",
      "outputs": [
        {
          "internalType": "uint8",
          "name": "",
          "type": "uint8"
        }
      ],
      "stateMutability": "view",
      "type": "function"
    },
    {
      "inputs": [
        {
          "internalType": "address",
          "name": "spender",
          "type": "address"
        },
        {
          "internalType": "uint256",
          "name": "subtractedValue",
          "type": "uint256"
        }
      ],
      "name": "decreaseAllowance",
      "outputs": [
        {
          "internalType": "bool",
          "name": "",
          "type": "bool"
        }
      ],
      "stateMutability": "nonpayable",
      "type": "function"
    },
    {
      "inputs": [
        {
          "internalType": "bytes32",
          "name": "role",
          "type": "bytes32"
        }
      ],
      "name": "getRoleAdmin",
      "outputs": [
        {
          "internalType": "bytes32",
          "name": "",
          "type": "bytes32"
        }
      ],
      "stateMutability": "view",
      "type": "function"
    },
    {
      "inputs": [
        {
          "internalType": "bytes32",
          "name": "role",
          "type": "bytes32"
        },
        {
          "internalType": "uint256",
          "name": "index",
          "type": "uint256"
        }
      ],
      "name": "getRoleMember",
      "outputs": [
        {
          "internalType": "address",
          "name": "",
          "type": "address"
        }
      ],
      "stateMutability": "view",
      "type": "function"
    },
    {
      "inputs": [
        {
          "internalType": "bytes32",
          "name": "role",
          "type": "bytes32"
        }
      ],
      "name": "getRoleMemberCount",
      "outputs": [
        {
          "internalType": "uint256",
          "name": "",
          "type": "uint256"
        }
      ],
      "stateMutability": "view",
      "type": "function"
    },
    {
      "inputs": [
        {
          "internalType": "bytes32",
          "name": "role",
          "type": "bytes32"
        },
        {
          "internalType": "address",
          "name": "account",
          "type": "address"
        }
      ],
      "name": "grantRole",
      "outputs": [],
      "stateMutability": "nonpayable",
      "type": "function"
    },
    {
      "inputs": [
        {
          "internalType": "bytes32",
          "name": "role",
          "type": "bytes32"
        },
        {
          "internalType": "address",
          "name": "account",
          "type": "address"
        }
      ],
      "name": "hasRole",
      "outputs": [
        {
          "internalType": "bool",
          "name": "",
          "type": "bool"
        }
      ],
      "stateMutability": "view",
      "type": "function"
    },
    {
      "inputs": [
        {
          "internalType": "address",
          "name": "spender",
          "type": "address"
        },
        {
          "internalType": "uint256",
          "name": "addedValue",
          "type": "uint256"
        }
      ],
      "name": "increaseAllowance",
      "outputs": [
        {
          "internalType": "bool",
          "name": "",
          "type": "bool"
        }
      ],
      "stateMutability": "nonpayable",
      "type": "function"
    },
    {
      "inputs": [],
      "name": "name",
      "outputs": [
        {
          "internalType": "string",
          "name": "",
          "type": "string"
        }
      ],
      "stateMutability": "view",
      "type": "function"
    },
    {
      "inputs": [],
      "name": "owner",
      "outputs": [
        {
          "internalType": "address",
          "name": "",
          "type": "address"
        }
      ],
      "stateMutability": "view",
      "type": "function"
    },
    {
      "inputs": [],
      "name": "renounceOwnership",
      "outputs": [],
      "stateMutability": "nonpayable",
      "type": "function"
    },
    {
      "inputs": [
        {
          "internalType": "bytes32",
          "name": "role",
          "type": "bytes32"
        },
        {
          "internalType": "address",
          "name": "account",
          "type": "address"
        }
      ],
      "name": "renounceRole",
      "outputs": [],
      "stateMutability": "nonpayable",
      "type": "function"
    },
    {
      "inputs": [
        {
          "internalType": "bytes32",
          "name": "role",
          "type": "bytes32"
        },
        {
          "internalType": "address",
          "name": "account",
          "type": "address"
        }
      ],
      "name": "revokeRole",
      "outputs": [],
      "stateMutability": "nonpayable",
      "type": "function"
    },
    {
      "inputs": [
        {
          "internalType": "bytes4",
          "name": "interfaceId",
          "type": "bytes4"
        }
      ],
      "name": "supportsInterface",
      "outputs": [
        {
          "internalType": "bool",
          "name": "",
          "type": "bool"
        }
      ],
      "stateMutability": "view",
      "type": "function"
    },
    {
      "inputs": [],
      "name": "symbol",
      "outputs": [
        {
          "internalType": "string",
          "name": "",
          "type": "string"
        }
      ],
      "stateMutability": "view",
      "type": "function"
    },
    {
      "inputs": [
        {
          "internalType": "address",
          "name": "newOwner",
          "type": "address"
        }
      ],
      "name": "transferOwnership",
      "outputs": [],
      "stateMutability": "nonpayable",
      "type": "function"
    },
    {
      "inputs": [],
      "name": "totalSupply",
      "outputs": [
        {
          "internalType": "uint256",
          "name": "",
          "type": "uint256"
        }
      ],
      "stateMutability": "view",
      "type": "function"
    },
    {
      "inputs": [
        {
          "internalType": "address",
          "name": "account",
          "type": "address"
        }
      ],
      "name": "balanceOf",
      "outputs": [
        {
          "internalType": "uint256",
          "name": "",
          "type": "uint256"
        }
      ],
      "stateMutability": "view",
      "type": "function"
    },
    {
      "inputs": [
        {
          "internalType": "address",
          "name": "recipient",
          "type": "address"
        },
        {
          "internalType": "uint256",
          "name": "amount",
          "type": "uint256"
        }
      ],
      "name": "transfer",
      "outputs": [
        {
          "internalType": "bool",
          "name": "",
          "type": "bool"
        }
      ],
      "stateMutability": "nonpayable",
      "type": "function"
    },
    {
      "inputs": [
        {
          "internalType": "address",
          "name": "sender",
          "type": "address"
        },
        {
          "internalType": "address",
          "name": "recipient",
          "type": "address"
        },
        {
          "internalType": "uint256",
          "name": "amount",
          "type": "uint256"
        }
      ],
      "name": "transferFrom",
      "outputs": [
        {
          "internalType": "bool",
          "name": "",
          "type": "bool"
        }
      ],
      "stateMutability": "nonpayable",
      "type": "function"
    },
    {
      "inputs": [
        {
          "internalType": "uint256",
          "name": "newSupply",
          "type": "uint256"
        }
      ],
      "name": "rebase",
      "outputs": [],
      "stateMutability": "nonpayable",
      "type": "function"
    }
  ],
  "bytecode": "0x60806040523480156200001157600080fd5b506040518060400160405280600d81526020017f5265626173696e67546f6b656e000000000000000000000000000000000000008152506040518060400160405280600381526020017f52425400000000000000000000000000000000000000000000000000000000008152508181816005908162000091919062000a93565b508060069081620000a3919062000a93565b505050620000ca6000801b620000be6200021c60201b60201c565b6200022460201b60201c565b6200010b7f9f2df0fed2c77648de5860a4cc508cd0818c85b8b8a1ab4ceeef8d981c8956a6620000ff6200021c60201b60201c565b6200022460201b60201c565b6200014c7f5fde63b561377d1441afa201ff619faac2ff8fed70a7fbdbe7a5cb07768c0b75620001406200021c60201b60201c565b6200022460201b60201c565b50506200016e620001626200021c60201b60201c565b6200023a60201b60201c565b670de0b6b3a764000069d3c21bcecceda10000006200018e919062000ba9565b60088190555069d3c21bcecceda1000000600854620001ae919062000c23565b600981905550600854600a60003373ffffffffffffffffffffffffffffffffffffffff1673ffffffffffffffffffffffffffffffffffffffff16815260200190815260200160002081905550620002163369d3c21bcecceda10000006200030060201b60201c565b62000d82565b600033905090565b6200023682826200046e60201b60201c565b5050565b6000600760009054906101000a900473ffffffffffffffffffffffffffffffffffffffff16905081600760006101000a81548173ffffffffffffffffffffffffffffffffffffffff021916908373ffffffffffffffffffffffffffffffffffffffff1602179055508173ffffffffffffffffffffffffffffffffffffffff168173ffffffffffffffffffffffffffffffffffffffff167f8be0079c531659141344cd1fd0a4f28419497f9722a3daafe3b4186f6b6457e060405160405180910390a35050565b600073ffffffffffffffffffffffffffffffffffffffff168273ffffffffffffffffffffffffffffffffffffffff160362000372576040517f08c379a0000000000000000000000000000000000000000000000000000000008152600401620003699062000cbc565b60405180910390fd5b6200038660008383620004ac60201b60201c565b80600460008282546200039a919062000cde565b9250508190555080600260008473ffffffffffffffffffffffffffffffffffffffff1673ffffffffffffffffffffffffffffffffffffffff168152602001908152602001600020600082825401925050819055508173ffffffffffffffffffffffffffffffffffffffff16600073ffffffffffffffffffffffffffffffffffffffff167fddf252ad1be2c89b69c2b068fc378daa952ba7f163c4a11628f55a4df523b3ef836040516200044e919062000d2a565b60405180910390a36200046a60008383620005e460201b60201c565b5050565b620004808282620005e960201b60201c565b620004a78160016000858152602001908152602001600020620006da60201b90919060201c565b505050565b600073ffffffffffffffffffffffffffffffffffffffff168373ffffffffffffffffffffffffffffffffffffffff161480620005145750600073ffffffffffffffffffffffffffffffffffffffff168273ffffffffffffffffffffffffffffffffffffffff16145b620005df576000600954826200052b919062000ba9565b905080600a60008673ffffffffffffffffffffffffffffffffffffffff1673ffffffffffffffffffffffffffffffffffffffff16815260200190815260200160002060008282546200057e919062000d47565b9250508190555080600a60008573ffffffffffffffffffffffffffffffffffffffff1673ffffffffffffffffffffffffffffffffffffffff1681526020019081526020016000206000828254620005d6919062000cde565b92505081905550505b505050565b505050565b620005fb82826200071260201b60201c565b620006d657600160008084815260200190815260200160002060000160008373ffffffffffffffffffffffffffffffffffffffff1673ffffffffffffffffffffffffffffffffffffffff16815260200190815260200160002060006101000a81548160ff0219169083151502179055506200067b6200021c60201b60201c565b73ffffffffffffffffffffffffffffffffffffffff168173ffffffffffffffffffffffffffffffffffffffff16837f2f8788117e7eff1d82e926ec794901d17c78024a50270940304540a733656f0d60405160405180910390a45b5050565b60006200070a836000018373ffffffffffffffffffffffffffffffffffffffff1660001b6200077c60201b60201c565b905092915050565b600080600084815260200190815260200160002060000160008373ffffffffffffffffffffffffffffffffffffffff1673ffffffffffffffffffffffffffffffffffffffff16815260200190815260200160002060009054906101000a900460ff16905092915050565b6000620007908383620007f660201b60201c565b620007eb578260000182908060018154018082558091505060019003906000526020600020016000909190919091505582600001805490508360010160008481526020019081526020016000208190555060019050620007f0565b600090505b92915050565b600080836001016000848152602001908152602001600020541415905092915050565b600081519050919050565b7f4e487b7100000000000000000000000000000000000000000000000000000000600052604160045260246000fd5b7f4e487b7100000000000000000000000000000000000000000000000000000000600052602260045260246000fd5b600060028204905060018216806200089b57607f821691505b602082108103620008b157620008b062000853565b5b50919050565b60008190508160005260206000209050919050565b60006020601f8301049050919050565b600082821b905092915050565b6000600883026200091b7fffffffffffffffffffffffffffffffffffffffffffffffffffffffffffffffff82620008dc565b620009278683620008dc565b95508019841693508086168417925050509392505050565b6000819050919050565b6000819050919050565b6000620009746200096e62000968846200093f565b62000949565b6200093f565b9050919050565b6000819050919050565b620009908362000953565b620009a86200099f826200097b565b848454620008e9565b825550505050565b600090565b620009bf620009b0565b620009cc81848462000985565b505050565b5b81811015620009f457620009e8600082620009b5565b600181019050620009d2565b5050565b601f82111562000a435762000a0d81620008b7565b62000a1884620008cc565b8101602085101562000a28578190505b62000a4062000a3785620008cc565b830182620009d1565b50505b505050565b600082821c905092915050565b600062000a686000198460080262000a48565b1980831691505092915050565b600062000a83838362000a55565b9150826002028217905092915050565b62000a9e8262000819565b67ffffffffffffffff81111562000aba5762000ab962000824565b5b62000ac6825462000882565b62000ad3828285620009f8565b600060209050601f83116001811462000b0b576000841562000af6578287015190505b62000b02858262000a75565b86555062000b72565b601f19841662000b1b86620008b7565b60005b8281101562000b455784890151825560018201915060208501945060208101905062000b1e565b8683101562000b65578489015162000b61601f89168262000a55565b8355505b6001600288020188555050505b505050505050565b7f4e487b7100000000000000000000000000000000000000000000000000000000600052601160045260246000fd5b600062000bb6826200093f565b915062000bc3836200093f565b925082820262000bd3816200093f565b9150828204841483151762000bed5762000bec62000b7a565b5b5092915050565b7f4e487b7100000000000000000000000000000000000000000000000000000000600052601260045260246000fd5b600062000c30826200093f565b915062000c3d836200093f565b92508262000c505762000c4f62000bf4565b5b828204905092915050565b600082825260208201905092915050565b7f45524332303a206d696e7420746f20746865207a65726f206164647265737300600082015250565b600062000ca4601f8362000c5b565b915062000cb18262000c6c565b602082019050919050565b6000602082019050818103600083015262000cd78162000c95565b9050919050565b600062000ceb826200093f565b915062000cf8836200093f565b925082820190508082111562000d135762000d1262000b7a565b5b92915050565b62000d24816200093f565b82525050565b600060208201905062000d41600083018462000d19565b92915050565b600062000d54826200093f565b915062000d61836200093f565b925082820390508181111562000d7c5762000d7b62000b7a565b5b92915050565b6131cd8062000d926000396000f3fe608060405234801561001057600080fd5b50600436106101c45760003560e01c806383eb70e5116100f9578063a9059cbb11610097578063d539139311610071578063d539139314610541578063d547741f1461055f578063dd62ed3e1461057b578063f2fde38b146105ab576101c4565b8063a9059cbb146104c5578063bc4f2d6d146104f5578063ca15c87314610511576101c4565b806391d14854116100d357806391d148541461042957806395d89b4114610459578063a217fddf14610477578063a457c2d714610495576101c4565b806383eb70e5146103bd5780638da5cb5b146103db5780639010d07c146103f9576101c4565b8063313ce5671161016657806342966c681161014057806342966c681461034b57806370a0823114610367578063715018a61461039757806379cc6790146103a1576101c4565b8063313ce567146102e157806336568abe146102ff578063395093511461031b576101c4565b806318160ddd116101a257806318160ddd1461024757806323b872dd14610265578063248a9ca3146102955780632f2ff15d146102c5576101c4565b806301ffc9a7146101c957806306fdde03146101f9578063095ea7b314610217575b600080fd5b6101e360048036038101906101de91906121d6565b6105c7565b6040516101f0919061221e565b60405180910390f35b610201610641565b60405161020e91906122c9565b60405180910390f35b610231600480360381019061022c919061237f565b6106d3565b60405161023e919061221e565b60405180910390f35b61024f6106f6565b60405161025c91906123ce565b60405180910390f35b61027f600480360381019061027a91906123e9565b61070d565b60405161028c919061221e565b60405180910390f35b6102af60048036038101906102aa9190612472565b6107e1565b6040516102bc91906124ae565b60405180910390f35b6102df60048036038101906102da91906124c9565b610800565b005b6102e9610821565b6040516102f69190612525565b60405180910390f35b610319600480360381019061031491906124c9565b61082a565b005b6103356004803603810190610330919061237f565b6108ad565b604051610342919061221e565b60405180910390f35b61036560048036038101906103609190612540565b6108e4565b005b610381600480360381019061037c919061256d565b6108f8565b60405161038e91906123ce565b60405180910390f35b61039f61094e565b005b6103bb60048036038101906103b6919061237f565b610962565b005b6103c5610982565b6040516103d291906124ae565b60405180910390f35b6103e36109a6565b6040516103f091906125a9565b60405180910390f35b610413600480360381019061040e91906125c4565b6109d0565b60405161042091906125a9565b60405180910390f35b610443600480360381019061043e91906124c9565b6109ff565b604051610450919061221e565b60405180910390f35b610461610a69565b60405161046e91906122c9565b60405180910390f35b61047f610afb565b60405161048c91906124ae565b60405180910390f35b6104af60048036038101906104aa919061237f565b610b02565b6040516104bc919061221e565b60405180910390f35b6104df60048036038101906104da919061237f565b610b79565b6040516104ec919061221e565b60405180910390f35b61050f600480360381019061050a9190612540565b610c52565b005b61052b60048036038101906105269190612472565b610cbe565b60405161053891906123ce565b60405180910390f35b610549610ce2565b60405161055691906124ae565b60405180910390f35b610579600480360381019061057491906124c9565b610d06565b005b61059560048036038101906105909190612604565b610d27565b6040516105a291906123ce565b60405180910390f35b6105c560048036038101906105c0919061256d565b610dae565b005b60007f5a05180f000000000000000000000000000000000000000000000000000000007bffffffffffffffffffffffffffffffffffffffffffffffffffffffff1916827bffffffffffffffffffffffffffffffffffffffffffffffffffffffff1916148061063a575061063982610e31565b5b9050919050565b60606005805461065090612673565b80601f016020809104026020016040519081016040528092919081815260200182805461067c90612673565b80156106c95780601f1061069e576101008083540402835291602001916106c9565b820191906000526020600020905b8154815290600101906020018083116106ac57829003601f168201915b5050505050905090565b6000806106de610eab565b90506106eb818585610eb3565b600191505092915050565b60006009546008546107089190612702565b905090565b6000806009548361071e9190612733565b905080600a60008773ffffffffffffffffffffffffffffffffffffffff1673ffffffffffffffffffffffffffffffffffffffff168152602001908152602001600020600082825461076f9190612775565b9250508190555080600a60008673ffffffffffffffffffffffffffffffffffffffff1673ffffffffffffffffffffffffffffffffffffffff16815260200190815260200160002060008282546107c591906127a9565b925050819055506107d785858561107c565b9150509392505050565b6000806000838152602001908152602001600020600101549050919050565b610809826107e1565b610812816110ab565b61081c83836110bf565b505050565b60006012905090565b610832610eab565b73ffffffffffffffffffffffffffffffffffffffff168173ffffffffffffffffffffffffffffffffffffffff161461089f576040517f08c379a00000000000000000000000000000000000000000000000000000000081526004016108969061284f565b60405180910390fd5b6108a982826110f3565b5050565b6000806108b8610eab565b90506108d98185856108ca8589610d27565b6108d491906127a9565b610eb3565b600191505092915050565b6108f56108ef610eab565b82611127565b50565b6000600954600a60008473ffffffffffffffffffffffffffffffffffffffff1673ffffffffffffffffffffffffffffffffffffffff168152602001908152602001600020546109479190612702565b9050919050565b6109566112f6565b6109606000611374565b565b6109748261096e610eab565b8361143a565b61097e8282611127565b5050565b7f5fde63b561377d1441afa201ff619faac2ff8fed70a7fbdbe7a5cb07768c0b7581565b6000600760009054906101000a900473ffffffffffffffffffffffffffffffffffffffff16905090565b60006109f782600160008681526020019081526020016000206114c690919063ffffffff16565b905092915050565b600080600084815260200190815260200160002060000160008373ffffffffffffffffffffffffffffffffffffffff1673ffffffffffffffffffffffffffffffffffffffff16815260200190815260200160002060009054906101000a900460ff16905092915050565b606060068054610a7890612673565b80601f0160208091040260200160405190810160405280929190818152602001828054610aa490612673565b8015610af15780601f10610ac657610100808354040283529160200191610af1565b820191906000526020600020905b815481529060010190602001808311610ad457829003601f168201915b5050505050905090565b6000801b81565b600080610b0d610eab565b90506000610b1b8286610d27565b905083811015610b60576040517f08c379a0000000000000000000000000000000000000000000000000000000008152600401610b57906128e1565b60405180910390fd5b610b6d8286868403610eb3565b60019250505092915050565b60008060095483610b8a9190612733565b905080600a6000610b99610eab565b73ffffffffffffffffffffffffffffffffffffffff1673ffffffffffffffffffffffffffffffffffffffff1681526020019081526020016000206000828254610be29190612775565b9250508190555080600a60008673ffffffffffffffffffffffffffffffffffffffff1673ffffffffffffffffffffffffffffffffffffffff1681526020019081526020016000206000828254610c3891906127a9565b92505081905550610c4984846114e0565b91505092915050565b610c5a6112f6565b60008111610c9d576040517f08c379a0000000000000000000000000000000000000000000000000000000008152600401610c9490612973565b60405180910390fd5b80600854610cab9190612702565b600981905550610cbb3382611503565b50565b6000610cdb6001600084815260200190815260200160002061165a565b9050919050565b7f9f2df0fed2c77648de5860a4cc508cd0818c85b8b8a1ab4ceeef8d981c8956a681565b610d0f826107e1565b610d18816110ab565b610d2283836110f3565b505050565b6000600360008473ffffffffffffffffffffffffffffffffffffffff1673ffffffffffffffffffffffffffffffffffffffff16815260200190815260200160002060008373ffffffffffffffffffffffffffffffffffffffff1673ffffffffffffffffffffffffffffffffffffffff16815260200190815260200160002054905092915050565b610db66112f6565b600073ffffffffffffffffffffffffffffffffffffffff168173ffffffffffffffffffffffffffffffffffffffff1603610e25576040517f08c379a0000000000000000000000000000000000000000000000000000000008152600401610e1c90612a05565b60405180910390fd5b610e2e81611374565b50565b60007f7965db0b000000000000000000000000000000000000000000000000000000007bffffffffffffffffffffffffffffffffffffffffffffffffffffffff1916827bffffffffffffffffffffffffffffffffffffffffffffffffffffffff19161480610ea45750610ea38261166f565b5b9050919050565b600033905090565b600073ffffffffffffffffffffffffffffffffffffffff168373ffffffffffffffffffffffffffffffffffffffff1603610f22576040517f08c379a0000000000000000000000000000000000000000000000000000000008152600401610f1990612a97565b60405180910390fd5b600073ffffffffffffffffffffffffffffffffffffffff168273ffffffffffffffffffffffffffffffffffffffff1603610f91576040517f08c379a0000000000000000000000000000000000000000000000000000000008152600401610f8890612b29565b60405180910390fd5b80600360008573ffffffffffffffffffffffffffffffffffffffff1673ffffffffffffffffffffffffffffffffffffffff16815260200190815260200160002060008473ffffffffffffffffffffffffffffffffffffffff1673ffffffffffffffffffffffffffffffffffffffff168152602001908152602001600020819055508173ffffffffffffffffffffffffffffffffffffffff168373ffffffffffffffffffffffffffffffffffffffff167f8c5be1e5ebec7d5bd14f71427d1e84f3dd0314c0f7b2291e5b200ac8c7c3b9258360405161106f91906123ce565b60405180910390a3505050565b600080611087610eab565b905061109485828561143a565b61109f8585856116d9565b60019150509392505050565b6110bc816110b7610eab565b611952565b50565b6110c982826119d7565b6110ee8160016000858152602001908152602001600020611ab790919063ffffffff16565b505050565b6110fd8282611ae7565b6111228160016000858152602001908152602001600020611bc890919063ffffffff16565b505050565b600073ffffffffffffffffffffffffffffffffffffffff168273ffffffffffffffffffffffffffffffffffffffff1603611196576040517f08c379a000000000000000000000000000000000000000000000000000000000815260040161118d90612bbb565b60405180910390fd5b6111a282600083611bf8565b6000600260008473ffffffffffffffffffffffffffffffffffffffff1673ffffffffffffffffffffffffffffffffffffffff16815260200190815260200160002054905081811015611229576040517f08c379a000000000000000000000000000000000000000000000000000000000815260040161122090612c4d565b60405180910390fd5b818103600260008573ffffffffffffffffffffffffffffffffffffffff1673ffffffffffffffffffffffffffffffffffffffff1681526020019081526020016000208190555081600460008282540392505081905550600073ffffffffffffffffffffffffffffffffffffffff168373ffffffffffffffffffffffffffffffffffffffff167fddf252ad1be2c89b69c2b068fc378daa952ba7f163c4a11628f55a4df523b3ef846040516112dd91906123ce565b60405180910390a36112f183600084611d28565b505050565b6112fe610eab565b73ffffffffffffffffffffffffffffffffffffffff1661131c6109a6565b73ffffffffffffffffffffffffffffffffffffffff1614611372576040517f08c379a000000000000000000000000000000000000000000000000000000000815260040161136990612cb9565b60405180910390fd5b565b6000600760009054906101000a900473ffffffffffffffffffffffffffffffffffffffff16905081600760006101000a81548173ffffffffffffffffffffffffffffffffffffffff021916908373ffffffffffffffffffffffffffffffffffffffff1602179055508173ffffffffffffffffffffffffffffffffffffffff168173ffffffffffffffffffffffffffffffffffffffff167f8be0079c531659141344cd1fd0a4f28419497f9722a3daafe3b4186f6b6457e060405160405180910390a35050565b60006114468484610d27565b90507fffffffffffffffffffffffffffffffffffffffffffffffffffffffffffffffff81146114c057818110156114b2576040517f08c379a00000000000000000000000000000000000000000000000000000000081526004016114a990612d25565b60405180910390fd5b6114bf8484848403610eb3565b5b50505050565b60006114d58360000183611d2d565b60001c905092915050565b6000806114eb610eab565b90506114f88185856116d9565b600191505092915050565b600073ffffffffffffffffffffffffffffffffffffffff168273ffffffffffffffffffffffffffffffffffffffff1603611572576040517f08c379a000000000000000000000000000000000000000000000000000000000815260040161156990612d91565b60405180910390fd5b61157e60008383611bf8565b806004600082825461159091906127a9565b9250508190555080600260008473ffffffffffffffffffffffffffffffffffffffff1673ffffffffffffffffffffffffffffffffffffffff168152602001908152602001600020600082825401925050819055508173ffffffffffffffffffffffffffffffffffffffff16600073ffffffffffffffffffffffffffffffffffffffff167fddf252ad1be2c89b69c2b068fc378daa952ba7f163c4a11628f55a4df523b3ef8360405161164291906123ce565b60405180910390a361165660008383611d28565b5050565b600061166882600001611d58565b9050919050565b60007f01ffc9a7000000000000000000000000000000000000000000000000000000007bffffffffffffffffffffffffffffffffffffffffffffffffffffffff1916827bffffffffffffffffffffffffffffffffffffffffffffffffffffffff1916149050919050565b600073ffffffffffffffffffffffffffffffffffffffff168373ffffffffffffffffffffffffffffffffffffffff1603611748576040517f08c379a000000000000000000000000000000000000000000000000000000000815260040161173f90612e23565b60405180910390fd5b600073ffffffffffffffffffffffffffffffffffffffff168273ffffffffffffffffffffffffffffffffffffffff16036117b7576040517f08c379a00000000000000000000000000000000000000000000000000000000081526004016117ae90612eb5565b60405180910390fd5b6117c2838383611bf8565b6000600260008573ffffffffffffffffffffffffffffffffffffffff1673ffffffffffffffffffffffffffffffffffffffff16815260200190815260200160002054905081811015611849576040517f08c379a000000000000000000000000000000000000000000000000000000000815260040161184090612f47565b60405180910390fd5b818103600260008673ffffffffffffffffffffffffffffffffffffffff1673ffffffffffffffffffffffffffffffffffffffff1681526020019081526020016000208190555081600260008573ffffffffffffffffffffffffffffffffffffffff1673ffffffffffffffffffffffffffffffffffffffff168152602001908152602001600020600082825401925050819055508273ffffffffffffffffffffffffffffffffffffffff168473ffffffffffffffffffffffffffffffffffffffff167fddf252ad1be2c89b69c2b068fc378daa952ba7f163c4a11628f55a4df523b3ef8460405161193991906123ce565b60405180910390a361194c848484611d28565b50505050565b61195c82826109ff565b6119d35761196981611d69565b6119778360001c6020611d96565b60405160200161198892919061303b565b6040516020818303038152906040526040517f08c379a00000000000000000000000000000000000000000000000000000000081526004016119ca91906122c9565b60405180910390fd5b5050565b6119e182826109ff565b611ab357600160008084815260200190815260200160002060000160008373ffffffffffffffffffffffffffffffffffffffff1673ffffffffffffffffffffffffffffffffffffffff16815260200190815260200160002060006101000a81548160ff021916908315150217905550611a58610eab565b73ffffffffffffffffffffffffffffffffffffffff168173ffffffffffffffffffffffffffffffffffffffff16837f2f8788117e7eff1d82e926ec794901d17c78024a50270940304540a733656f0d60405160405180910390a45b5050565b6000611adf836000018373ffffffffffffffffffffffffffffffffffffffff1660001b611fd2565b905092915050565b611af182826109ff565b15611bc457600080600084815260200190815260200160002060000160008373ffffffffffffffffffffffffffffffffffffffff1673ffffffffffffffffffffffffffffffffffffffff16815260200190815260200160002060006101000a81548160ff021916908315150217905550611b69610eab565b73ffffffffffffffffffffffffffffffffffffffff168173ffffffffffffffffffffffffffffffffffffffff16837ff6391f5c32d9c69d2a47ea670b442974b53935d1edc7fd64eb21e047a839171b60405160405180910390a45b5050565b6000611bf0836000018373ffffffffffffffffffffffffffffffffffffffff1660001b612042565b905092915050565b600073ffffffffffffffffffffffffffffffffffffffff168373ffffffffffffffffffffffffffffffffffffffff161480611c5f5750600073ffffffffffffffffffffffffffffffffffffffff168273ffffffffffffffffffffffffffffffffffffffff16145b611d2357600060095482611c739190612733565b905080600a60008673ffffffffffffffffffffffffffffffffffffffff1673ffffffffffffffffffffffffffffffffffffffff1681526020019081526020016000206000828254611cc49190612775565b9250508190555080600a60008573ffffffffffffffffffffffffffffffffffffffff1673ffffffffffffffffffffffffffffffffffffffff1681526020019081526020016000206000828254611d1a91906127a9565b92505081905550505b505050565b505050565b6000826000018281548110611d4557611d44613075565b5b9060005260206000200154905092915050565b600081600001805490509050919050565b6060611d8f8273ffffffffffffffffffffffffffffffffffffffff16601460ff16611d96565b9050919050565b606060006002836002611da99190612733565b611db391906127a9565b67ffffffffffffffff811115611dcc57611dcb6130a4565b5b6040519080825280601f01601f191660200182016040528015611dfe5781602001600182028036833780820191505090505b5090507f300000000000000000000000000000000000000000000000000000000000000081600081518110611e3657611e35613075565b5b60200101907effffffffffffffffffffffffffffffffffffffffffffffffffffffffffffff1916908160001a9053507f780000000000000000000000000000000000000000000000000000000000000081600181518110611e9a57611e99613075565b5b60200101907effffffffffffffffffffffffffffffffffffffffffffffffffffffffffffff1916908160001a90535060006001846002611eda9190612733565b611ee491906127a9565b90505b6001811115611f84577f3031323334353637383961626364656600000000000000000000000000000000600f861660108110611f2657611f25613075565b5b1a60f81b828281518110611f3d57611f3c613075565b5b60200101907effffffffffffffffffffffffffffffffffffffffffffffffffffffffffffff1916908160001a905350600485901c945080611f7d906130d3565b9050611ee7565b5060008414611fc8576040517f08c379a0000000000000000000000000000000000000000000000000000000008152600401611fbf90613148565b60405180910390fd5b8091505092915050565b6000611fde8383612156565b61203757826000018290806001815401808255809150506001900390600052602060002001600090919091909150558260000180549050836001016000848152602001908152602001600020819055506001905061203c565b600090505b92915050565b6000808360010160008481526020019081526020016000205490506000811461214a5760006001826120749190612775565b905060006001866000018054905061208c9190612775565b90508181146120fb5760008660000182815481106120ad576120ac613075565b5b90600052602060002001549050808760000184815481106120d1576120d0613075565b5b90600052602060002001819055508387600101600083815260200190815260200160002081905550505b8560000180548061210f5761210e613168565b5b600190038181906000526020600020016000905590558560010160008681526020019081526020016000206000905560019350505050612150565b60009150505b92915050565b600080836001016000848152602001908152602001600020541415905092915050565b600080fd5b60007fffffffff0000000000000000000000000000000000000000000000000000000082169050919050565b6121b38161217e565b81146121be57600080fd5b50565b6000813590506121d0816121aa565b92915050565b6000602082840312156121ec576121eb612179565b5b60006121fa848285016121c1565b91505092915050565b60008115159050919050565b61221881612203565b82525050565b6000602082019050612233600083018461220f565b92915050565b600081519050919050565b600082825260208201905092915050565b60005b83811015612273578082015181840152602081019050612258565b60008484015250505050565b6000601f19601f8301169050919050565b600061229b82612239565b6122a58185612244565b93506122b5818560208601612255565b6122be8161227f565b840191505092915050565b600060208201905081810360008301526122e38184612290565b905092915050565b600073ffffffffffffffffffffffffffffffffffffffff82169050919050565b6000612316826122eb565b9050919050565b6123268161230b565b811461233157600080fd5b50565b6000813590506123438161231d565b92915050565b6000819050919050565b61235c81612349565b811461236757600080fd5b50565b60008135905061237981612353565b92915050565b6000806040838503121561239657612395612179565b5b60006123a485828601612334565b92505060206123b58582860161236a565b9150509250929050565b6123c881612349565b82525050565b60006020820190506123e360008301846123bf565b92915050565b60008060006060848603121561240257612401612179565b5b600061241086828701612334565b935050602061242186828701612334565b92505060406124328682870161236a565b9150509250925092565b6000819050919050565b61244f8161243c565b811461245a57600080fd5b50565b60008135905061246c81612446565b92915050565b60006020828403121561248857612487612179565b5b60006124968482850161245d565b91505092915050565b6124a88161243c565b82525050565b60006020820190506124c3600083018461249f565b92915050565b600080604083850312156124e0576124df612179565b5b60006124ee8582860161245d565b92505060206124ff85828601612334565b9150509250929050565b600060ff82169050919050565b61251f81612509565b82525050565b600060208201905061253a6000830184612516565b92915050565b60006020828403121561255657612555612179565b5b60006125648482850161236a565b91505092915050565b60006020828403121561258357612582612179565b5b600061259184828501612334565b91505092915050565b6125a38161230b565b82525050565b60006020820190506125be600083018461259a565b92915050565b600080604083850312156125db576125da612179565b5b60006125e98582860161245d565b92505060206125fa8582860161236a565b9150509250929050565b6000806040838503121561261b5761261a612179565b5b600061262985828601612334565b925050602061263a85828601612334565b9150509250929050565b7f4e487b7100000000000000000000000000000000000000000000000000000000600052602260045260246000fd5b6000600282049050600182168061268b57607f821691505b60208210810361269e5761269d612644565b5b50919050565b7f4e487b7100000000000000000000000000000000000000000000000000000000600052601260045260246000fd5b7f4e487b7100000000000000000000000000000000000000000000000000000000600052601160045260246000fd5b600061270d82612349565b915061271883612349565b925082612728576127276126a4565b5b828204905092915050565b600061273e82612349565b915061274983612349565b925082820261275781612349565b9150828204841483151761276e5761276d6126d3565b5b5092915050565b600061278082612349565b915061278b83612349565b92508282039050818111156127a3576127a26126d3565b5b92915050565b60006127b482612349565b91506127bf83612349565b92508282019050808211156127d7576127d66126d3565b5b92915050565b7f416363657373436f6e74726f6c3a2063616e206f6e6c792072656e6f756e636560008201527f20726f6c657320666f722073656c660000000000000000000000000000000000602082015250565b6000612839602f83612244565b9150612844826127dd565b604082019050919050565b600060208201905081810360008301526128688161282c565b9050919050565b7f45524332303a2064656372656173656420616c6c6f77616e63652062656c6f7760008201527f207a65726f000000000000000000000000000000000000000000000000000000602082015250565b60006128cb602583612244565b91506128d68261286f565b604082019050919050565b600060208201905081810360008301526128fa816128be565b9050919050565b7f4e657720737570706c79206d7573742062652067726561746572207468616e2060008201527f3000000000000000000000000000000000000000000000000000000000000000602082015250565b600061295d602183612244565b915061296882612901565b604082019050919050565b6000602082019050818103600083015261298c81612950565b9050919050565b7f4f776e61626c653a206e6577206f776e657220697320746865207a65726f206160008201527f6464726573730000000000000000000000000000000000000000000000000000602082015250565b60006129ef602683612244565b91506129fa82612993565b604082019050919050565b60006020820190508181036000830152612a1e816129e2565b9050919050565b7f45524332303a20617070726f76652066726f6d20746865207a65726f2061646460008201527f7265737300000000000000000000000000000000000000000000000000000000602082015250565b6000612a81602483612244565b9150612a8c82612a25565b604082019050919050565b60006020820190508181036000830152612ab081612a74565b9050919050565b7f45524332303a20617070726f766520746f20746865207a65726f20616464726560008201527f7373000000000000000000000000000000000000000000000000000000000000602082015250565b6000612b13602283612244565b9150612b1e82612ab7565b604082019050919050565b60006020820190508181036000830152612b4281612b06565b9050919050565b7f45524332303a206275726e2066726f6d20746865207a65726f2061646472657360008201527f7300000000000000000000000000000000000000000000000000000000000000602082015250565b6000612ba5602183612244565b9150612bb082612b49565b604082019050919050565b60006020820190508181036000830152612bd481612b98565b9050919050565b7f45524332303a206275726e20616d6f756e7420657863656564732062616c616e60008201527f6365000000000000000000000000000000000000000000000000000000000000602082015250565b6000612c37602283612244565b9150612c4282612bdb565b604082019050919050565b60006020820190508181036000830152612c6681612c2a565b9050919050565b7f4f776e61626c653a2063616c6c6572206973206e6f7420746865206f776e6572600082015250565b6000612ca3602083612244565b9150612cae82612c6d565b602082019050919050565b60006020820190508181036000830152612cd281612c96565b9050919050565b7f45524332303a20696e73756666696369656e7420616c6c6f77616e6365000000600082015250565b6000612d0f601d83612244565b9150612d1a82612cd9565b602082019050919050565b60006020820190508181036000830152612d3e81612d02565b9050919050565b7f45524332303a206d696e7420746f20746865207a65726f206164647265737300600082015250565b6000612d7b601f83612244565b9150612d8682612d45565b602082019050919050565b60006020820190508181036000830152612daa81612d6e565b9050919050565b7f45524332303a207472616e736665722066726f6d20746865207a65726f20616460008201527f6472657373000000000000000000000000000000000000000000000000000000602082015250565b6000612e0d602583612244565b9150612e1882612db1565b604082019050919050565b60006020820190508181036000830152612e3c81612e00565b9050919050565b7f45524332303a207472616e7366657220746f20746865207a65726f206164647260008201527f6573730000000000000000000000000000000000000000000000000000000000602082015250565b6000612e9f602383612244565b9150612eaa82612e43565b604082019050919050565b60006020820190508181036000830152612ece81612e92565b9050919050565b7f45524332303a207472616e7366657220616d6f756e742065786365656473206260008201527f616c616e63650000000000000000000000000000000000000000000000000000602082015250565b6000612f31602683612244565b9150612f3c82612ed5565b604082019050919050565b60006020820190508181036000830152612f6081612f24565b9050919050565b600081905092915050565b7f416363657373436f6e74726f6c3a206163636f756e7420000000000000000000600082015250565b6000612fa8601783612f67565b9150612fb382612f72565b601782019050919050565b6000612fc982612239565b612fd38185612f67565b9350612fe3818560208601612255565b80840191505092915050565b7f206973206d697373696e6720726f6c6520000000000000000000000000000000600082015250565b6000613025601183612f67565b915061303082612fef565b601182019050919050565b600061304682612f9b565b91506130528285612fbe565b915061305d82613018565b91506130698284612fbe565b91508190509392505050565b7f4e487b7100000000000000000000000000000000000000000000000000000000600052603260045260246000fd5b7f4e487b7100000000000000000000000000000000000000000000000000000000600052604160045260246000fd5b60006130de82612349565b9150600082036130f1576130f06126d3565b5b600182039050919050565b7f537472696e67733a20686578206c656e67746820696e73756666696369656e74600082015250565b6000613132602083612244565b915061313d826130fc565b602082019050919050565b6000602082019050818103600083015261316181613125565b9050919050565b7f4e487b7100000000000000000000000000000000000000000000000000000000600052603160045260246000fdfea264697066735822122069ab336b51cd62e74123789c861ecb4bb21b2a08cd41e74ce7a69ccd73b3e08b64736f6c63430008130033",
  "immutableReferences": {},
  "source": "// SPDX-License-Identifier: MIT\r\npragma solidity ^0.8.19;\r\n\r\nimport \"./interfaces/IRebasingToken.sol\";\r\nimport \"./tokens/extensions/ERC20PresetMinterRebaser.sol\";\r\nimport \"./utils/Ownable.sol\";\r\n\r\ncontract RebasingToken is ERC20PresetMinterRebaser, Ownable, IRebasingToken {\r\n    uint256 private _totalGons;\r\n    uint256 private _gonsPerFragment;\r\n    uint256 private constant INITIAL_SUPPLY = 1000000 * 10 ** 18; // Initial supply of 1,000,000 tokens\r\n\r\n    mapping(address => uint256) private _gonBalances;\r\n\r\n    constructor() ERC20PresetMinterRebaser(\"RebasingToken\", \"RBT\") {\r\n        _totalGons = INITIAL_SUPPLY * 10**18; // Initialize total gons\r\n        _gonsPerFragment = _totalGons / INITIAL_SUPPLY; // Initial gons per fragment\r\n        _gonBalances[msg.sender] = _totalGons;\r\n        _mint(msg.sender, INITIAL_SUPPLY);\r\n    }\r\n\r\n    function _beforeTokenTransfer(address from, address to, uint256 amount) internal override {\r\n        if (from == address(0) || to == address(0)) return; // Ignore minting and burning\r\n        uint256 gonValue = amount * _gonsPerFragment;\r\n        _gonBalances[from] -= gonValue;\r\n        _gonBalances[to] += gonValue;\r\n    }\r\n\r\n    function totalSupply() public view override(ERC20, IRebasingToken) returns (uint256) {\r\n        return _totalGons / _gonsPerFragment;\r\n    }\r\n\r\n    function balanceOf(address account) public view override(ERC20, IRebasingToken) returns (uint256) {\r\n        return _gonBalances[account] / _gonsPerFragment;\r\n    }\r\n\r\n    function transfer(address recipient, uint256 amount) public override(ERC20, IRebasingToken) returns (bool) {\r\n        uint256 gonValue = amount * _gonsPerFragment;\r\n        _gonBalances[_msgSender()] -= gonValue;\r\n        _gonBalances[recipient] += gonValue;\r\n        return super.transfer(recipient, amount);\r\n    }\r\n\r\n    function transferFrom(address sender, address recipient, uint256 amount) public override(ERC20, IRebasingToken) returns (bool) {\r\n        uint256 gonValue = amount * _gonsPerFragment;\r\n        _gonBalances[sender] -= gonValue;\r\n        _gonBalances[recipient] += gonValue;\r\n        return super.transferFrom(sender, recipient, amount);\r\n    }\r\n\r\n    function rebase(uint256 newSupply) external onlyOwner override {\r\n        require(newSupply > 0, \"New supply must be greater than 0\");\r\n        _gonsPerFragment = _totalGons / newSupply;\r\n        _mint(msg.sender, newSupply);\r\n    }\r\n}",
  "sourcePath": "F:\\Works\\Hundpad\\Staking\\V2\\rebasing-contract\\contracts\\RebasingToken.sol",
  "compiler": {
    "name": "solc",
    "version": "0.8.19+commit.7dd6d404.Emscripten.clang"
  },
  "schemaVersion": "3.4.16",
  "updatedAt": "2024-06-07T12:59:52.761Z",
  "devdoc": {
    "kind": "dev",
    "methods": {},
    "version": 1
  },
  "userdoc": {
    "kind": "user",
    "methods": {},
    "version": 1
  }
}