{
  "contractName": "RebasingToken",
  "abi": [
    {
      "inputs": [],
      "stateMutability": "nonpayable",
      "type": "constructor"
    },
    {
      "anonymous": false,
      "inputs": [
        {
          "indexed": true,
          "internalType": "address",
          "name": "owner",
          "type": "address"
        },
        {
          "indexed": true,
          "internalType": "address",
          "name": "spender",
          "type": "address"
        },
        {
          "indexed": false,
          "internalType": "uint256",
          "name": "value",
          "type": "uint256"
        }
      ],
      "name": "Approval",
      "type": "event"
    },
    {
      "anonymous": false,
      "inputs": [
        {
          "indexed": true,
          "internalType": "address",
          "name": "previousOwner",
          "type": "address"
        },
        {
          "indexed": true,
          "internalType": "address",
          "name": "newOwner",
          "type": "address"
        }
      ],
      "name": "OwnershipTransferred",
      "type": "event"
    },
    {
      "anonymous": false,
      "inputs": [
        {
          "indexed": true,
          "internalType": "bytes32",
          "name": "role",
          "type": "bytes32"
        },
        {
          "indexed": true,
          "internalType": "bytes32",
          "name": "previousAdminRole",
          "type": "bytes32"
        },
        {
          "indexed": true,
          "internalType": "bytes32",
          "name": "newAdminRole",
          "type": "bytes32"
        }
      ],
      "name": "RoleAdminChanged",
      "type": "event"
    },
    {
      "anonymous": false,
      "inputs": [
        {
          "indexed": true,
          "internalType": "bytes32",
          "name": "role",
          "type": "bytes32"
        },
        {
          "indexed": true,
          "internalType": "address",
          "name": "account",
          "type": "address"
        },
        {
          "indexed": true,
          "internalType": "address",
          "name": "sender",
          "type": "address"
        }
      ],
      "name": "RoleGranted",
      "type": "event"
    },
    {
      "anonymous": false,
      "inputs": [
        {
          "indexed": true,
          "internalType": "bytes32",
          "name": "role",
          "type": "bytes32"
        },
        {
          "indexed": true,
          "internalType": "address",
          "name": "account",
          "type": "address"
        },
        {
          "indexed": true,
          "internalType": "address",
          "name": "sender",
          "type": "address"
        }
      ],
      "name": "RoleRevoked",
      "type": "event"
    },
    {
      "anonymous": false,
      "inputs": [
        {
          "indexed": true,
          "internalType": "address",
          "name": "from",
          "type": "address"
        },
        {
          "indexed": true,
          "internalType": "address",
          "name": "to",
          "type": "address"
        },
        {
          "indexed": false,
          "internalType": "uint256",
          "name": "value",
          "type": "uint256"
        }
      ],
      "name": "Transfer",
      "type": "event"
    },
    {
      "inputs": [],
      "name": "DEFAULT_ADMIN_ROLE",
      "outputs": [
        {
          "internalType": "bytes32",
          "name": "",
          "type": "bytes32"
        }
      ],
      "stateMutability": "view",
      "type": "function"
    },
    {
      "inputs": [],
      "name": "MINTER_ROLE",
      "outputs": [
        {
          "internalType": "bytes32",
          "name": "",
          "type": "bytes32"
        }
      ],
      "stateMutability": "view",
      "type": "function"
    },
    {
      "inputs": [],
      "name": "REBASER_ROLE",
      "outputs": [
        {
          "internalType": "bytes32",
          "name": "",
          "type": "bytes32"
        }
      ],
      "stateMutability": "view",
      "type": "function"
    },
    {
      "inputs": [
        {
          "internalType": "address",
          "name": "owner",
          "type": "address"
        },
        {
          "internalType": "address",
          "name": "spender",
          "type": "address"
        }
      ],
      "name": "allowance",
      "outputs": [
        {
          "internalType": "uint256",
          "name": "",
          "type": "uint256"
        }
      ],
      "stateMutability": "view",
      "type": "function"
    },
    {
      "inputs": [
        {
          "internalType": "address",
          "name": "spender",
          "type": "address"
        },
        {
          "internalType": "uint256",
          "name": "amount",
          "type": "uint256"
        }
      ],
      "name": "approve",
      "outputs": [
        {
          "internalType": "bool",
          "name": "",
          "type": "bool"
        }
      ],
      "stateMutability": "nonpayable",
      "type": "function"
    },
    {
      "inputs": [
        {
          "internalType": "uint256",
          "name": "amount",
          "type": "uint256"
        }
      ],
      "name": "burn",
      "outputs": [],
      "stateMutability": "nonpayable",
      "type": "function"
    },
    {
      "inputs": [
        {
          "internalType": "address",
          "name": "account",
          "type": "address"
        },
        {
          "internalType": "uint256",
          "name": "amount",
          "type": "uint256"
        }
      ],
      "name": "burnFrom",
      "outputs": [],
      "stateMutability": "nonpayable",
      "type": "function"
    },
    {
      "inputs": [],
      "name": "decimals",
      "outputs": [
        {
          "internalType": "uint8",
          "name": "",
          "type": "uint8"
        }
      ],
      "stateMutability": "view",
      "type": "function"
    },
    {
      "inputs": [
        {
          "internalType": "address",
          "name": "spender",
          "type": "address"
        },
        {
          "internalType": "uint256",
          "name": "subtractedValue",
          "type": "uint256"
        }
      ],
      "name": "decreaseAllowance",
      "outputs": [
        {
          "internalType": "bool",
          "name": "",
          "type": "bool"
        }
      ],
      "stateMutability": "nonpayable",
      "type": "function"
    },
    {
      "inputs": [
        {
          "internalType": "bytes32",
          "name": "role",
          "type": "bytes32"
        }
      ],
      "name": "getRoleAdmin",
      "outputs": [
        {
          "internalType": "bytes32",
          "name": "",
          "type": "bytes32"
        }
      ],
      "stateMutability": "view",
      "type": "function"
    },
    {
      "inputs": [
        {
          "internalType": "bytes32",
          "name": "role",
          "type": "bytes32"
        },
        {
          "internalType": "uint256",
          "name": "index",
          "type": "uint256"
        }
      ],
      "name": "getRoleMember",
      "outputs": [
        {
          "internalType": "address",
          "name": "",
          "type": "address"
        }
      ],
      "stateMutability": "view",
      "type": "function"
    },
    {
      "inputs": [
        {
          "internalType": "bytes32",
          "name": "role",
          "type": "bytes32"
        }
      ],
      "name": "getRoleMemberCount",
      "outputs": [
        {
          "internalType": "uint256",
          "name": "",
          "type": "uint256"
        }
      ],
      "stateMutability": "view",
      "type": "function"
    },
    {
      "inputs": [
        {
          "internalType": "bytes32",
          "name": "role",
          "type": "bytes32"
        },
        {
          "internalType": "address",
          "name": "account",
          "type": "address"
        }
      ],
      "name": "grantRole",
      "outputs": [],
      "stateMutability": "nonpayable",
      "type": "function"
    },
    {
      "inputs": [
        {
          "internalType": "bytes32",
          "name": "role",
          "type": "bytes32"
        },
        {
          "internalType": "address",
          "name": "account",
          "type": "address"
        }
      ],
      "name": "hasRole",
      "outputs": [
        {
          "internalType": "bool",
          "name": "",
          "type": "bool"
        }
      ],
      "stateMutability": "view",
      "type": "function"
    },
    {
      "inputs": [
        {
          "internalType": "address",
          "name": "spender",
          "type": "address"
        },
        {
          "internalType": "uint256",
          "name": "addedValue",
          "type": "uint256"
        }
      ],
      "name": "increaseAllowance",
      "outputs": [
        {
          "internalType": "bool",
          "name": "",
          "type": "bool"
        }
      ],
      "stateMutability": "nonpayable",
      "type": "function"
    },
    {
      "inputs": [],
      "name": "name",
      "outputs": [
        {
          "internalType": "string",
          "name": "",
          "type": "string"
        }
      ],
      "stateMutability": "view",
      "type": "function"
    },
    {
      "inputs": [],
      "name": "owner",
      "outputs": [
        {
          "internalType": "address",
          "name": "",
          "type": "address"
        }
      ],
      "stateMutability": "view",
      "type": "function"
    },
    {
      "inputs": [],
      "name": "renounceOwnership",
      "outputs": [],
      "stateMutability": "nonpayable",
      "type": "function"
    },
    {
      "inputs": [
        {
          "internalType": "bytes32",
          "name": "role",
          "type": "bytes32"
        },
        {
          "internalType": "address",
          "name": "account",
          "type": "address"
        }
      ],
      "name": "renounceRole",
      "outputs": [],
      "stateMutability": "nonpayable",
      "type": "function"
    },
    {
      "inputs": [
        {
          "internalType": "bytes32",
          "name": "role",
          "type": "bytes32"
        },
        {
          "internalType": "address",
          "name": "account",
          "type": "address"
        }
      ],
      "name": "revokeRole",
      "outputs": [],
      "stateMutability": "nonpayable",
      "type": "function"
    },
    {
      "inputs": [
        {
          "internalType": "bytes4",
          "name": "interfaceId",
          "type": "bytes4"
        }
      ],
      "name": "supportsInterface",
      "outputs": [
        {
          "internalType": "bool",
          "name": "",
          "type": "bool"
        }
      ],
      "stateMutability": "view",
      "type": "function"
    },
    {
      "inputs": [],
      "name": "symbol",
      "outputs": [
        {
          "internalType": "string",
          "name": "",
          "type": "string"
        }
      ],
      "stateMutability": "view",
      "type": "function"
    },
    {
      "inputs": [
        {
          "internalType": "address",
          "name": "newOwner",
          "type": "address"
        }
      ],
      "name": "transferOwnership",
      "outputs": [],
      "stateMutability": "nonpayable",
      "type": "function"
    },
    {
      "inputs": [],
      "name": "totalSupply",
      "outputs": [
        {
          "internalType": "uint256",
          "name": "",
          "type": "uint256"
        }
      ],
      "stateMutability": "view",
      "type": "function"
    },
    {
      "inputs": [
        {
          "internalType": "address",
          "name": "account",
          "type": "address"
        }
      ],
      "name": "balanceOf",
      "outputs": [
        {
          "internalType": "uint256",
          "name": "",
          "type": "uint256"
        }
      ],
      "stateMutability": "view",
      "type": "function"
    },
    {
      "inputs": [
        {
          "internalType": "address",
          "name": "recipient",
          "type": "address"
        },
        {
          "internalType": "uint256",
          "name": "amount",
          "type": "uint256"
        }
      ],
      "name": "transfer",
      "outputs": [
        {
          "internalType": "bool",
          "name": "",
          "type": "bool"
        }
      ],
      "stateMutability": "nonpayable",
      "type": "function"
    },
    {
      "inputs": [
        {
          "internalType": "address",
          "name": "sender",
          "type": "address"
        },
        {
          "internalType": "address",
          "name": "recipient",
          "type": "address"
        },
        {
          "internalType": "uint256",
          "name": "amount",
          "type": "uint256"
        }
      ],
      "name": "transferFrom",
      "outputs": [
        {
          "internalType": "bool",
          "name": "",
          "type": "bool"
        }
      ],
      "stateMutability": "nonpayable",
      "type": "function"
    },
    {
      "inputs": [
        {
          "internalType": "uint256",
          "name": "newSupply",
          "type": "uint256"
        }
      ],
      "name": "rebase",
      "outputs": [],
      "stateMutability": "nonpayable",
      "type": "function"
    }
  ],
  "bytecode": "0x608060405234801562000010575f80fd5b506040518060400160405280600d81526020017f5265626173696e67546f6b656e000000000000000000000000000000000000008152506040518060400160405280600381526020017f52425400000000000000000000000000000000000000000000000000000000008152508181816005908162000090919062000a46565b508060069081620000a2919062000a46565b505050620000c85f801b620000bc6200021860201b60201c565b6200021f60201b60201c565b620001097f9f2df0fed2c77648de5860a4cc508cd0818c85b8b8a1ab4ceeef8d981c8956a6620000fd6200021860201b60201c565b6200021f60201b60201c565b6200014a7f5fde63b561377d1441afa201ff619faac2ff8fed70a7fbdbe7a5cb07768c0b756200013e6200021860201b60201c565b6200021f60201b60201c565b50506200016c620001606200021860201b60201c565b6200023560201b60201c565b670de0b6b3a764000069d3c21bcecceda10000006200018c919062000b57565b60088190555069d3c21bcecceda1000000600854620001ac919062000bce565b600981905550600854600a5f3373ffffffffffffffffffffffffffffffffffffffff1673ffffffffffffffffffffffffffffffffffffffff1681526020019081526020015f2081905550620002123369d3c21bcecceda1000000620002f860201b60201c565b62000d23565b5f33905090565b6200023182826200045e60201b60201c565b5050565b5f60075f9054906101000a900473ffffffffffffffffffffffffffffffffffffffff1690508160075f6101000a81548173ffffffffffffffffffffffffffffffffffffffff021916908373ffffffffffffffffffffffffffffffffffffffff1602179055508173ffffffffffffffffffffffffffffffffffffffff168173ffffffffffffffffffffffffffffffffffffffff167f8be0079c531659141344cd1fd0a4f28419497f9722a3daafe3b4186f6b6457e060405160405180910390a35050565b5f73ffffffffffffffffffffffffffffffffffffffff168273ffffffffffffffffffffffffffffffffffffffff160362000369576040517f08c379a0000000000000000000000000000000000000000000000000000000008152600401620003609062000c63565b60405180910390fd5b6200037c5f83836200049a60201b60201c565b8060045f8282546200038f919062000c83565b925050819055508060025f8473ffffffffffffffffffffffffffffffffffffffff1673ffffffffffffffffffffffffffffffffffffffff1681526020019081526020015f205f82825401925050819055508173ffffffffffffffffffffffffffffffffffffffff165f73ffffffffffffffffffffffffffffffffffffffff167fddf252ad1be2c89b69c2b068fc378daa952ba7f163c4a11628f55a4df523b3ef836040516200043f919062000cce565b60405180910390a36200045a5f8383620005c960201b60201c565b5050565b620004708282620005ce60201b60201c565b620004958160015f8581526020019081526020015f20620006b960201b90919060201c565b505050565b5f73ffffffffffffffffffffffffffffffffffffffff168373ffffffffffffffffffffffffffffffffffffffff1614806200050057505f73ffffffffffffffffffffffffffffffffffffffff168273ffffffffffffffffffffffffffffffffffffffff16145b620005c4575f6009548262000516919062000b57565b905080600a5f8673ffffffffffffffffffffffffffffffffffffffff1673ffffffffffffffffffffffffffffffffffffffff1681526020019081526020015f205f82825462000566919062000ce9565b9250508190555080600a5f8573ffffffffffffffffffffffffffffffffffffffff1673ffffffffffffffffffffffffffffffffffffffff1681526020019081526020015f205f828254620005bb919062000c83565b92505081905550505b505050565b505050565b620005e08282620006ee60201b60201c565b620006b55760015f808481526020019081526020015f205f015f8373ffffffffffffffffffffffffffffffffffffffff1673ffffffffffffffffffffffffffffffffffffffff1681526020019081526020015f205f6101000a81548160ff0219169083151502179055506200065a6200021860201b60201c565b73ffffffffffffffffffffffffffffffffffffffff168173ffffffffffffffffffffffffffffffffffffffff16837f2f8788117e7eff1d82e926ec794901d17c78024a50270940304540a733656f0d60405160405180910390a45b5050565b5f620006e6835f018373ffffffffffffffffffffffffffffffffffffffff165f1b6200075160201b60201c565b905092915050565b5f805f8481526020019081526020015f205f015f8373ffffffffffffffffffffffffffffffffffffffff1673ffffffffffffffffffffffffffffffffffffffff1681526020019081526020015f205f9054906101000a900460ff16905092915050565b5f620007648383620007c260201b60201c565b620007b857825f0182908060018154018082558091505060019003905f5260205f20015f9091909190915055825f0180549050836001015f8481526020019081526020015f208190555060019050620007bc565b5f90505b92915050565b5f80836001015f8481526020019081526020015f20541415905092915050565b5f81519050919050565b7f4e487b71000000000000000000000000000000000000000000000000000000005f52604160045260245ffd5b7f4e487b71000000000000000000000000000000000000000000000000000000005f52602260045260245ffd5b5f60028204905060018216806200085e57607f821691505b60208210810362000874576200087362000819565b5b50919050565b5f819050815f5260205f209050919050565b5f6020601f8301049050919050565b5f82821b905092915050565b5f60088302620008d87fffffffffffffffffffffffffffffffffffffffffffffffffffffffffffffffff826200089b565b620008e486836200089b565b95508019841693508086168417925050509392505050565b5f819050919050565b5f819050919050565b5f6200092e620009286200092284620008fc565b62000905565b620008fc565b9050919050565b5f819050919050565b62000949836200090e565b62000961620009588262000935565b848454620008a7565b825550505050565b5f90565b6200097762000969565b620009848184846200093e565b505050565b5b81811015620009ab576200099f5f826200096d565b6001810190506200098a565b5050565b601f821115620009fa57620009c4816200087a565b620009cf846200088c565b81016020851015620009df578190505b620009f7620009ee856200088c565b83018262000989565b50505b505050565b5f82821c905092915050565b5f62000a1c5f1984600802620009ff565b1980831691505092915050565b5f62000a36838362000a0b565b9150826002028217905092915050565b62000a5182620007e2565b67ffffffffffffffff81111562000a6d5762000a6c620007ec565b5b62000a79825462000846565b62000a86828285620009af565b5f60209050601f83116001811462000abc575f841562000aa7578287015190505b62000ab3858262000a29565b86555062000b22565b601f19841662000acc866200087a565b5f5b8281101562000af55784890151825560018201915060208501945060208101905062000ace565b8683101562000b15578489015162000b11601f89168262000a0b565b8355505b6001600288020188555050505b505050505050565b7f4e487b71000000000000000000000000000000000000000000000000000000005f52601160045260245ffd5b5f62000b6382620008fc565b915062000b7083620008fc565b925082820262000b8081620008fc565b9150828204841483151762000b9a5762000b9962000b2a565b5b5092915050565b7f4e487b71000000000000000000000000000000000000000000000000000000005f52601260045260245ffd5b5f62000bda82620008fc565b915062000be783620008fc565b92508262000bfa5762000bf962000ba1565b5b828204905092915050565b5f82825260208201905092915050565b7f45524332303a206d696e7420746f20746865207a65726f2061646472657373005f82015250565b5f62000c4b601f8362000c05565b915062000c588262000c15565b602082019050919050565b5f6020820190508181035f83015262000c7c8162000c3d565b9050919050565b5f62000c8f82620008fc565b915062000c9c83620008fc565b925082820190508082111562000cb75762000cb662000b2a565b5b92915050565b62000cc881620008fc565b82525050565b5f60208201905062000ce35f83018462000cbd565b92915050565b5f62000cf582620008fc565b915062000d0283620008fc565b925082820390508181111562000d1d5762000d1c62000b2a565b5b92915050565b6130868062000d315f395ff3fe608060405234801561000f575f80fd5b50600436106101c2575f3560e01c806383eb70e5116100f7578063a9059cbb11610095578063d53913931161006f578063d53913931461053e578063d547741f1461055c578063dd62ed3e14610578578063f2fde38b146105a8576101c2565b8063a9059cbb146104c2578063bc4f2d6d146104f2578063ca15c8731461050e576101c2565b806391d14854116100d157806391d148541461042657806395d89b4114610456578063a217fddf14610474578063a457c2d714610492576101c2565b806383eb70e5146103ba5780638da5cb5b146103d85780639010d07c146103f6576101c2565b8063313ce5671161016457806342966c681161013e57806342966c681461034857806370a0823114610364578063715018a61461039457806379cc67901461039e576101c2565b8063313ce567146102de57806336568abe146102fc5780633950935114610318576101c2565b806318160ddd116101a057806318160ddd1461024457806323b872dd14610262578063248a9ca3146102925780632f2ff15d146102c2576101c2565b806301ffc9a7146101c657806306fdde03146101f6578063095ea7b314610214575b5f80fd5b6101e060048036038101906101db9190612116565b6105c4565b6040516101ed919061215b565b60405180910390f35b6101fe61063d565b60405161020b91906121fe565b60405180910390f35b61022e600480360381019061022991906122ab565b6106cd565b60405161023b919061215b565b60405180910390f35b61024c6106ef565b60405161025991906122f8565b60405180910390f35b61027c60048036038101906102779190612311565b610705565b604051610289919061215b565b60405180910390f35b6102ac60048036038101906102a79190612394565b6107d2565b6040516102b991906123ce565b60405180910390f35b6102dc60048036038101906102d791906123e7565b6107ee565b005b6102e661080f565b6040516102f39190612440565b60405180910390f35b610316600480360381019061031191906123e7565b610817565b005b610332600480360381019061032d91906122ab565b61089a565b60405161033f919061215b565b60405180910390f35b610362600480360381019061035d9190612459565b6108d0565b005b61037e60048036038101906103799190612484565b6108e4565b60405161038b91906122f8565b60405180910390f35b61039c610937565b005b6103b860048036038101906103b391906122ab565b61094a565b005b6103c261096a565b6040516103cf91906123ce565b60405180910390f35b6103e061098e565b6040516103ed91906124be565b60405180910390f35b610410600480360381019061040b91906124d7565b6109b6565b60405161041d91906124be565b60405180910390f35b610440600480360381019061043b91906123e7565b6109e2565b60405161044d919061215b565b60405180910390f35b61045e610a45565b60405161046b91906121fe565b60405180910390f35b61047c610ad5565b60405161048991906123ce565b60405180910390f35b6104ac60048036038101906104a791906122ab565b610adb565b6040516104b9919061215b565b60405180910390f35b6104dc60048036038101906104d791906122ab565b610b50565b6040516104e9919061215b565b60405180910390f35b61050c60048036038101906105079190612459565b610c22565b005b61052860048036038101906105239190612394565b610c8d565b60405161053591906122f8565b60405180910390f35b610546610cae565b60405161055391906123ce565b60405180910390f35b610576600480360381019061057191906123e7565b610cd2565b005b610592600480360381019061058d9190612515565b610cf3565b60405161059f91906122f8565b60405180910390f35b6105c260048036038101906105bd9190612484565b610d75565b005b5f7f5a05180f000000000000000000000000000000000000000000000000000000007bffffffffffffffffffffffffffffffffffffffffffffffffffffffff1916827bffffffffffffffffffffffffffffffffffffffffffffffffffffffff19161480610636575061063582610df7565b5b9050919050565b60606005805461064c90612580565b80601f016020809104026020016040519081016040528092919081815260200182805461067890612580565b80156106c35780601f1061069a576101008083540402835291602001916106c3565b820191905f5260205f20905b8154815290600101906020018083116106a657829003601f168201915b5050505050905090565b5f806106d7610e70565b90506106e4818585610e77565b600191505092915050565b5f600954600854610700919061260a565b905090565b5f8060095483610715919061263a565b905080600a5f8773ffffffffffffffffffffffffffffffffffffffff1673ffffffffffffffffffffffffffffffffffffffff1681526020019081526020015f205f828254610763919061267b565b9250508190555080600a5f8673ffffffffffffffffffffffffffffffffffffffff1673ffffffffffffffffffffffffffffffffffffffff1681526020019081526020015f205f8282546107b691906126ae565b925050819055506107c885858561103a565b9150509392505050565b5f805f8381526020019081526020015f20600101549050919050565b6107f7826107d2565b61080081611068565b61080a838361107c565b505050565b5f6012905090565b61081f610e70565b73ffffffffffffffffffffffffffffffffffffffff168173ffffffffffffffffffffffffffffffffffffffff161461088c576040517f08c379a000000000000000000000000000000000000000000000000000000000815260040161088390612751565b60405180910390fd5b61089682826110ae565b5050565b5f806108a4610e70565b90506108c58185856108b68589610cf3565b6108c091906126ae565b610e77565b600191505092915050565b6108e16108db610e70565b826110e0565b50565b5f600954600a5f8473ffffffffffffffffffffffffffffffffffffffff1673ffffffffffffffffffffffffffffffffffffffff1681526020019081526020015f2054610930919061260a565b9050919050565b61093f6112a5565b6109485f611323565b565b61095c82610956610e70565b836113e6565b61096682826110e0565b5050565b7f5fde63b561377d1441afa201ff619faac2ff8fed70a7fbdbe7a5cb07768c0b7581565b5f60075f9054906101000a900473ffffffffffffffffffffffffffffffffffffffff16905090565b5f6109da8260015f8681526020019081526020015f2061147190919063ffffffff16565b905092915050565b5f805f8481526020019081526020015f205f015f8373ffffffffffffffffffffffffffffffffffffffff1673ffffffffffffffffffffffffffffffffffffffff1681526020019081526020015f205f9054906101000a900460ff16905092915050565b606060068054610a5490612580565b80601f0160208091040260200160405190810160405280929190818152602001828054610a8090612580565b8015610acb5780601f10610aa257610100808354040283529160200191610acb565b820191905f5260205f20905b815481529060010190602001808311610aae57829003601f168201915b5050505050905090565b5f801b81565b5f80610ae5610e70565b90505f610af28286610cf3565b905083811015610b37576040517f08c379a0000000000000000000000000000000000000000000000000000000008152600401610b2e906127df565b60405180910390fd5b610b448286868403610e77565b60019250505092915050565b5f8060095483610b60919061263a565b905080600a5f610b6e610e70565b73ffffffffffffffffffffffffffffffffffffffff1673ffffffffffffffffffffffffffffffffffffffff1681526020019081526020015f205f828254610bb5919061267b565b9250508190555080600a5f8673ffffffffffffffffffffffffffffffffffffffff1673ffffffffffffffffffffffffffffffffffffffff1681526020019081526020015f205f828254610c0891906126ae565b92505081905550610c198484611488565b91505092915050565b610c2a6112a5565b5f8111610c6c576040517f08c379a0000000000000000000000000000000000000000000000000000000008152600401610c639061286d565b60405180910390fd5b80600854610c7a919061260a565b600981905550610c8a33826114aa565b50565b5f610ca760015f8481526020019081526020015f206115f9565b9050919050565b7f9f2df0fed2c77648de5860a4cc508cd0818c85b8b8a1ab4ceeef8d981c8956a681565b610cdb826107d2565b610ce481611068565b610cee83836110ae565b505050565b5f60035f8473ffffffffffffffffffffffffffffffffffffffff1673ffffffffffffffffffffffffffffffffffffffff1681526020019081526020015f205f8373ffffffffffffffffffffffffffffffffffffffff1673ffffffffffffffffffffffffffffffffffffffff1681526020019081526020015f2054905092915050565b610d7d6112a5565b5f73ffffffffffffffffffffffffffffffffffffffff168173ffffffffffffffffffffffffffffffffffffffff1603610deb576040517f08c379a0000000000000000000000000000000000000000000000000000000008152600401610de2906128fb565b60405180910390fd5b610df481611323565b50565b5f7f7965db0b000000000000000000000000000000000000000000000000000000007bffffffffffffffffffffffffffffffffffffffffffffffffffffffff1916827bffffffffffffffffffffffffffffffffffffffffffffffffffffffff19161480610e695750610e688261160c565b5b9050919050565b5f33905090565b5f73ffffffffffffffffffffffffffffffffffffffff168373ffffffffffffffffffffffffffffffffffffffff1603610ee5576040517f08c379a0000000000000000000000000000000000000000000000000000000008152600401610edc90612989565b60405180910390fd5b5f73ffffffffffffffffffffffffffffffffffffffff168273ffffffffffffffffffffffffffffffffffffffff1603610f53576040517f08c379a0000000000000000000000000000000000000000000000000000000008152600401610f4a90612a17565b60405180910390fd5b8060035f8573ffffffffffffffffffffffffffffffffffffffff1673ffffffffffffffffffffffffffffffffffffffff1681526020019081526020015f205f8473ffffffffffffffffffffffffffffffffffffffff1673ffffffffffffffffffffffffffffffffffffffff1681526020019081526020015f20819055508173ffffffffffffffffffffffffffffffffffffffff168373ffffffffffffffffffffffffffffffffffffffff167f8c5be1e5ebec7d5bd14f71427d1e84f3dd0314c0f7b2291e5b200ac8c7c3b9258360405161102d91906122f8565b60405180910390a3505050565b5f80611044610e70565b90506110518582856113e6565b61105c858585611675565b60019150509392505050565b61107981611074610e70565b6118e4565b50565b6110868282611968565b6110a98160015f8581526020019081526020015f20611a4290919063ffffffff16565b505050565b6110b88282611a6f565b6110db8160015f8581526020019081526020015f20611b4990919063ffffffff16565b505050565b5f73ffffffffffffffffffffffffffffffffffffffff168273ffffffffffffffffffffffffffffffffffffffff160361114e576040517f08c379a000000000000000000000000000000000000000000000000000000000815260040161114590612aa5565b60405180910390fd5b611159825f83611b76565b5f60025f8473ffffffffffffffffffffffffffffffffffffffff1673ffffffffffffffffffffffffffffffffffffffff1681526020019081526020015f20549050818110156111dd576040517f08c379a00000000000000000000000000000000000000000000000000000000081526004016111d490612b33565b60405180910390fd5b81810360025f8573ffffffffffffffffffffffffffffffffffffffff1673ffffffffffffffffffffffffffffffffffffffff1681526020019081526020015f20819055508160045f82825403925050819055505f73ffffffffffffffffffffffffffffffffffffffff168373ffffffffffffffffffffffffffffffffffffffff167fddf252ad1be2c89b69c2b068fc378daa952ba7f163c4a11628f55a4df523b3ef8460405161128d91906122f8565b60405180910390a36112a0835f84611c9d565b505050565b6112ad610e70565b73ffffffffffffffffffffffffffffffffffffffff166112cb61098e565b73ffffffffffffffffffffffffffffffffffffffff1614611321576040517f08c379a000000000000000000000000000000000000000000000000000000000815260040161131890612b9b565b60405180910390fd5b565b5f60075f9054906101000a900473ffffffffffffffffffffffffffffffffffffffff1690508160075f6101000a81548173ffffffffffffffffffffffffffffffffffffffff021916908373ffffffffffffffffffffffffffffffffffffffff1602179055508173ffffffffffffffffffffffffffffffffffffffff168173ffffffffffffffffffffffffffffffffffffffff167f8be0079c531659141344cd1fd0a4f28419497f9722a3daafe3b4186f6b6457e060405160405180910390a35050565b5f6113f18484610cf3565b90507fffffffffffffffffffffffffffffffffffffffffffffffffffffffffffffffff811461146b578181101561145d576040517f08c379a000000000000000000000000000000000000000000000000000000000815260040161145490612c03565b60405180910390fd5b61146a8484848403610e77565b5b50505050565b5f61147e835f0183611ca2565b5f1c905092915050565b5f80611492610e70565b905061149f818585611675565b600191505092915050565b5f73ffffffffffffffffffffffffffffffffffffffff168273ffffffffffffffffffffffffffffffffffffffff1603611518576040517f08c379a000000000000000000000000000000000000000000000000000000000815260040161150f90612c6b565b60405180910390fd5b6115235f8383611b76565b8060045f82825461153491906126ae565b925050819055508060025f8473ffffffffffffffffffffffffffffffffffffffff1673ffffffffffffffffffffffffffffffffffffffff1681526020019081526020015f205f82825401925050819055508173ffffffffffffffffffffffffffffffffffffffff165f73ffffffffffffffffffffffffffffffffffffffff167fddf252ad1be2c89b69c2b068fc378daa952ba7f163c4a11628f55a4df523b3ef836040516115e291906122f8565b60405180910390a36115f55f8383611c9d565b5050565b5f611605825f01611cc9565b9050919050565b5f7f01ffc9a7000000000000000000000000000000000000000000000000000000007bffffffffffffffffffffffffffffffffffffffffffffffffffffffff1916827bffffffffffffffffffffffffffffffffffffffffffffffffffffffff1916149050919050565b5f73ffffffffffffffffffffffffffffffffffffffff168373ffffffffffffffffffffffffffffffffffffffff16036116e3576040517f08c379a00000000000000000000000000000000000000000000000000000000081526004016116da90612cf9565b60405180910390fd5b5f73ffffffffffffffffffffffffffffffffffffffff168273ffffffffffffffffffffffffffffffffffffffff1603611751576040517f08c379a000000000000000000000000000000000000000000000000000000000815260040161174890612d87565b60405180910390fd5b61175c838383611b76565b5f60025f8573ffffffffffffffffffffffffffffffffffffffff1673ffffffffffffffffffffffffffffffffffffffff1681526020019081526020015f20549050818110156117e0576040517f08c379a00000000000000000000000000000000000000000000000000000000081526004016117d790612e15565b60405180910390fd5b81810360025f8673ffffffffffffffffffffffffffffffffffffffff1673ffffffffffffffffffffffffffffffffffffffff1681526020019081526020015f20819055508160025f8573ffffffffffffffffffffffffffffffffffffffff1673ffffffffffffffffffffffffffffffffffffffff1681526020019081526020015f205f82825401925050819055508273ffffffffffffffffffffffffffffffffffffffff168473ffffffffffffffffffffffffffffffffffffffff167fddf252ad1be2c89b69c2b068fc378daa952ba7f163c4a11628f55a4df523b3ef846040516118cb91906122f8565b60405180910390a36118de848484611c9d565b50505050565b6118ee82826109e2565b611964576118fb81611cd8565b611908835f1c6020611d05565b604051602001611919929190612f01565b6040516020818303038152906040526040517f08c379a000000000000000000000000000000000000000000000000000000000815260040161195b91906121fe565b60405180910390fd5b5050565b61197282826109e2565b611a3e5760015f808481526020019081526020015f205f015f8373ffffffffffffffffffffffffffffffffffffffff1673ffffffffffffffffffffffffffffffffffffffff1681526020019081526020015f205f6101000a81548160ff0219169083151502179055506119e3610e70565b73ffffffffffffffffffffffffffffffffffffffff168173ffffffffffffffffffffffffffffffffffffffff16837f2f8788117e7eff1d82e926ec794901d17c78024a50270940304540a733656f0d60405160405180910390a45b5050565b5f611a67835f018373ffffffffffffffffffffffffffffffffffffffff165f1b611f3a565b905092915050565b611a7982826109e2565b15611b45575f805f8481526020019081526020015f205f015f8373ffffffffffffffffffffffffffffffffffffffff1673ffffffffffffffffffffffffffffffffffffffff1681526020019081526020015f205f6101000a81548160ff021916908315150217905550611aea610e70565b73ffffffffffffffffffffffffffffffffffffffff168173ffffffffffffffffffffffffffffffffffffffff16837ff6391f5c32d9c69d2a47ea670b442974b53935d1edc7fd64eb21e047a839171b60405160405180910390a45b5050565b5f611b6e835f018373ffffffffffffffffffffffffffffffffffffffff165f1b611fa1565b905092915050565b5f73ffffffffffffffffffffffffffffffffffffffff168373ffffffffffffffffffffffffffffffffffffffff161480611bdb57505f73ffffffffffffffffffffffffffffffffffffffff168273ffffffffffffffffffffffffffffffffffffffff16145b611c98575f60095482611bee919061263a565b905080600a5f8673ffffffffffffffffffffffffffffffffffffffff1673ffffffffffffffffffffffffffffffffffffffff1681526020019081526020015f205f828254611c3c919061267b565b9250508190555080600a5f8573ffffffffffffffffffffffffffffffffffffffff1673ffffffffffffffffffffffffffffffffffffffff1681526020019081526020015f205f828254611c8f91906126ae565b92505081905550505b505050565b505050565b5f825f018281548110611cb857611cb7612f3a565b5b905f5260205f200154905092915050565b5f815f01805490509050919050565b6060611cfe8273ffffffffffffffffffffffffffffffffffffffff16601460ff16611d05565b9050919050565b60605f6002836002611d17919061263a565b611d2191906126ae565b67ffffffffffffffff811115611d3a57611d39612f67565b5b6040519080825280601f01601f191660200182016040528015611d6c5781602001600182028036833780820191505090505b5090507f3000000000000000000000000000000000000000000000000000000000000000815f81518110611da357611da2612f3a565b5b60200101907effffffffffffffffffffffffffffffffffffffffffffffffffffffffffffff191690815f1a9053507f780000000000000000000000000000000000000000000000000000000000000081600181518110611e0657611e05612f3a565b5b60200101907effffffffffffffffffffffffffffffffffffffffffffffffffffffffffffff191690815f1a9053505f6001846002611e44919061263a565b611e4e91906126ae565b90505b6001811115611eed577f3031323334353637383961626364656600000000000000000000000000000000600f861660108110611e9057611e8f612f3a565b5b1a60f81b828281518110611ea757611ea6612f3a565b5b60200101907effffffffffffffffffffffffffffffffffffffffffffffffffffffffffffff191690815f1a905350600485901c945080611ee690612f94565b9050611e51565b505f8414611f30576040517f08c379a0000000000000000000000000000000000000000000000000000000008152600401611f2790613005565b60405180910390fd5b8091505092915050565b5f611f45838361209d565b611f9757825f0182908060018154018082558091505060019003905f5260205f20015f9091909190915055825f0180549050836001015f8481526020019081526020015f208190555060019050611f9b565b5f90505b92915050565b5f80836001015f8481526020019081526020015f205490505f8114612092575f600182611fce919061267b565b90505f6001865f0180549050611fe4919061267b565b905081811461204a575f865f01828154811061200357612002612f3a565b5b905f5260205f200154905080875f01848154811061202457612023612f3a565b5b905f5260205f20018190555083876001015f8381526020019081526020015f2081905550505b855f0180548061205d5761205c613023565b5b600190038181905f5260205f20015f90559055856001015f8681526020019081526020015f205f905560019350505050612097565b5f9150505b92915050565b5f80836001015f8481526020019081526020015f20541415905092915050565b5f80fd5b5f7fffffffff0000000000000000000000000000000000000000000000000000000082169050919050565b6120f5816120c1565b81146120ff575f80fd5b50565b5f81359050612110816120ec565b92915050565b5f6020828403121561212b5761212a6120bd565b5b5f61213884828501612102565b91505092915050565b5f8115159050919050565b61215581612141565b82525050565b5f60208201905061216e5f83018461214c565b92915050565b5f81519050919050565b5f82825260208201905092915050565b5f5b838110156121ab578082015181840152602081019050612190565b5f8484015250505050565b5f601f19601f8301169050919050565b5f6121d082612174565b6121da818561217e565b93506121ea81856020860161218e565b6121f3816121b6565b840191505092915050565b5f6020820190508181035f83015261221681846121c6565b905092915050565b5f73ffffffffffffffffffffffffffffffffffffffff82169050919050565b5f6122478261221e565b9050919050565b6122578161223d565b8114612261575f80fd5b50565b5f813590506122728161224e565b92915050565b5f819050919050565b61228a81612278565b8114612294575f80fd5b50565b5f813590506122a581612281565b92915050565b5f80604083850312156122c1576122c06120bd565b5b5f6122ce85828601612264565b92505060206122df85828601612297565b9150509250929050565b6122f281612278565b82525050565b5f60208201905061230b5f8301846122e9565b92915050565b5f805f60608486031215612328576123276120bd565b5b5f61233586828701612264565b935050602061234686828701612264565b925050604061235786828701612297565b9150509250925092565b5f819050919050565b61237381612361565b811461237d575f80fd5b50565b5f8135905061238e8161236a565b92915050565b5f602082840312156123a9576123a86120bd565b5b5f6123b684828501612380565b91505092915050565b6123c881612361565b82525050565b5f6020820190506123e15f8301846123bf565b92915050565b5f80604083850312156123fd576123fc6120bd565b5b5f61240a85828601612380565b925050602061241b85828601612264565b9150509250929050565b5f60ff82169050919050565b61243a81612425565b82525050565b5f6020820190506124535f830184612431565b92915050565b5f6020828403121561246e5761246d6120bd565b5b5f61247b84828501612297565b91505092915050565b5f60208284031215612499576124986120bd565b5b5f6124a684828501612264565b91505092915050565b6124b88161223d565b82525050565b5f6020820190506124d15f8301846124af565b92915050565b5f80604083850312156124ed576124ec6120bd565b5b5f6124fa85828601612380565b925050602061250b85828601612297565b9150509250929050565b5f806040838503121561252b5761252a6120bd565b5b5f61253885828601612264565b925050602061254985828601612264565b9150509250929050565b7f4e487b71000000000000000000000000000000000000000000000000000000005f52602260045260245ffd5b5f600282049050600182168061259757607f821691505b6020821081036125aa576125a9612553565b5b50919050565b7f4e487b71000000000000000000000000000000000000000000000000000000005f52601260045260245ffd5b7f4e487b71000000000000000000000000000000000000000000000000000000005f52601160045260245ffd5b5f61261482612278565b915061261f83612278565b92508261262f5761262e6125b0565b5b828204905092915050565b5f61264482612278565b915061264f83612278565b925082820261265d81612278565b91508282048414831517612674576126736125dd565b5b5092915050565b5f61268582612278565b915061269083612278565b92508282039050818111156126a8576126a76125dd565b5b92915050565b5f6126b882612278565b91506126c383612278565b92508282019050808211156126db576126da6125dd565b5b92915050565b7f416363657373436f6e74726f6c3a2063616e206f6e6c792072656e6f756e63655f8201527f20726f6c657320666f722073656c660000000000000000000000000000000000602082015250565b5f61273b602f8361217e565b9150612746826126e1565b604082019050919050565b5f6020820190508181035f8301526127688161272f565b9050919050565b7f45524332303a2064656372656173656420616c6c6f77616e63652062656c6f775f8201527f207a65726f000000000000000000000000000000000000000000000000000000602082015250565b5f6127c960258361217e565b91506127d48261276f565b604082019050919050565b5f6020820190508181035f8301526127f6816127bd565b9050919050565b7f4e657720737570706c79206d7573742062652067726561746572207468616e205f8201527f3000000000000000000000000000000000000000000000000000000000000000602082015250565b5f61285760218361217e565b9150612862826127fd565b604082019050919050565b5f6020820190508181035f8301526128848161284b565b9050919050565b7f4f776e61626c653a206e6577206f776e657220697320746865207a65726f20615f8201527f6464726573730000000000000000000000000000000000000000000000000000602082015250565b5f6128e560268361217e565b91506128f08261288b565b604082019050919050565b5f6020820190508181035f830152612912816128d9565b9050919050565b7f45524332303a20617070726f76652066726f6d20746865207a65726f206164645f8201527f7265737300000000000000000000000000000000000000000000000000000000602082015250565b5f61297360248361217e565b915061297e82612919565b604082019050919050565b5f6020820190508181035f8301526129a081612967565b9050919050565b7f45524332303a20617070726f766520746f20746865207a65726f2061646472655f8201527f7373000000000000000000000000000000000000000000000000000000000000602082015250565b5f612a0160228361217e565b9150612a0c826129a7565b604082019050919050565b5f6020820190508181035f830152612a2e816129f5565b9050919050565b7f45524332303a206275726e2066726f6d20746865207a65726f206164647265735f8201527f7300000000000000000000000000000000000000000000000000000000000000602082015250565b5f612a8f60218361217e565b9150612a9a82612a35565b604082019050919050565b5f6020820190508181035f830152612abc81612a83565b9050919050565b7f45524332303a206275726e20616d6f756e7420657863656564732062616c616e5f8201527f6365000000000000000000000000000000000000000000000000000000000000602082015250565b5f612b1d60228361217e565b9150612b2882612ac3565b604082019050919050565b5f6020820190508181035f830152612b4a81612b11565b9050919050565b7f4f776e61626c653a2063616c6c6572206973206e6f7420746865206f776e65725f82015250565b5f612b8560208361217e565b9150612b9082612b51565b602082019050919050565b5f6020820190508181035f830152612bb281612b79565b9050919050565b7f45524332303a20696e73756666696369656e7420616c6c6f77616e63650000005f82015250565b5f612bed601d8361217e565b9150612bf882612bb9565b602082019050919050565b5f6020820190508181035f830152612c1a81612be1565b9050919050565b7f45524332303a206d696e7420746f20746865207a65726f2061646472657373005f82015250565b5f612c55601f8361217e565b9150612c6082612c21565b602082019050919050565b5f6020820190508181035f830152612c8281612c49565b9050919050565b7f45524332303a207472616e736665722066726f6d20746865207a65726f2061645f8201527f6472657373000000000000000000000000000000000000000000000000000000602082015250565b5f612ce360258361217e565b9150612cee82612c89565b604082019050919050565b5f6020820190508181035f830152612d1081612cd7565b9050919050565b7f45524332303a207472616e7366657220746f20746865207a65726f20616464725f8201527f6573730000000000000000000000000000000000000000000000000000000000602082015250565b5f612d7160238361217e565b9150612d7c82612d17565b604082019050919050565b5f6020820190508181035f830152612d9e81612d65565b9050919050565b7f45524332303a207472616e7366657220616d6f756e74206578636565647320625f8201527f616c616e63650000000000000000000000000000000000000000000000000000602082015250565b5f612dff60268361217e565b9150612e0a82612da5565b604082019050919050565b5f6020820190508181035f830152612e2c81612df3565b9050919050565b5f81905092915050565b7f416363657373436f6e74726f6c3a206163636f756e74200000000000000000005f82015250565b5f612e71601783612e33565b9150612e7c82612e3d565b601782019050919050565b5f612e9182612174565b612e9b8185612e33565b9350612eab81856020860161218e565b80840191505092915050565b7f206973206d697373696e6720726f6c65200000000000000000000000000000005f82015250565b5f612eeb601183612e33565b9150612ef682612eb7565b601182019050919050565b5f612f0b82612e65565b9150612f178285612e87565b9150612f2282612edf565b9150612f2e8284612e87565b91508190509392505050565b7f4e487b71000000000000000000000000000000000000000000000000000000005f52603260045260245ffd5b7f4e487b71000000000000000000000000000000000000000000000000000000005f52604160045260245ffd5b5f612f9e82612278565b91505f8203612fb057612faf6125dd565b5b600182039050919050565b7f537472696e67733a20686578206c656e67746820696e73756666696369656e745f82015250565b5f612fef60208361217e565b9150612ffa82612fbb565b602082019050919050565b5f6020820190508181035f83015261301c81612fe3565b9050919050565b7f4e487b71000000000000000000000000000000000000000000000000000000005f52603160045260245ffdfea2646970667358221220d179fc44186679d3e2ff78ce6578861bbe100d76caf9e85ba7cfe236b3d0a95364736f6c63430008150033",
  "immutableReferences": {},
  "source": "// SPDX-License-Identifier: MIT\r\npragma solidity ^0.8.21;\r\n\r\nimport \"./interfaces/IRebasingToken.sol\";\r\nimport \"./tokens/extensions/ERC20PresetMinterRebaser.sol\";\r\nimport \"./utils/Ownable.sol\";\r\n\r\ncontract RebasingToken is ERC20PresetMinterRebaser, Ownable, IRebasingToken {\r\n    uint256 private _totalGons;\r\n    uint256 private _gonsPerFragment;\r\n    uint256 private constant INITIAL_SUPPLY = 1000000 * 10 ** 18; // Initial supply of 1,000,000 tokens\r\n\r\n    mapping(address => uint256) private _gonBalances;\r\n\r\n    constructor() ERC20PresetMinterRebaser(\"RebasingToken\", \"RBT\") {\r\n        _totalGons = INITIAL_SUPPLY * 10**18; // Initialize total gons\r\n        _gonsPerFragment = _totalGons / INITIAL_SUPPLY; // Initial gons per fragment\r\n        _gonBalances[msg.sender] = _totalGons;\r\n        _mint(msg.sender, INITIAL_SUPPLY);\r\n    }\r\n\r\n    function _beforeTokenTransfer(address from, address to, uint256 amount) internal override {\r\n        if (from == address(0) || to == address(0)) return; // Ignore minting and burning\r\n        uint256 gonValue = amount * _gonsPerFragment;\r\n        _gonBalances[from] -= gonValue;\r\n        _gonBalances[to] += gonValue;\r\n    }\r\n\r\n    function totalSupply() public view override(ERC20, IRebasingToken) returns (uint256) {\r\n        return _totalGons / _gonsPerFragment;\r\n    }\r\n\r\n    function balanceOf(address account) public view override(ERC20, IRebasingToken) returns (uint256) {\r\n        return _gonBalances[account] / _gonsPerFragment;\r\n    }\r\n\r\n    function transfer(address recipient, uint256 amount) public override(ERC20, IRebasingToken) returns (bool) {\r\n        uint256 gonValue = amount * _gonsPerFragment;\r\n        _gonBalances[_msgSender()] -= gonValue;\r\n        _gonBalances[recipient] += gonValue;\r\n        return super.transfer(recipient, amount);\r\n    }\r\n\r\n    function transferFrom(address sender, address recipient, uint256 amount) public override(ERC20, IRebasingToken) returns (bool) {\r\n        uint256 gonValue = amount * _gonsPerFragment;\r\n        _gonBalances[sender] -= gonValue;\r\n        _gonBalances[recipient] += gonValue;\r\n        return super.transferFrom(sender, recipient, amount);\r\n    }\r\n\r\n    function rebase(uint256 newSupply) external onlyOwner override {\r\n        require(newSupply > 0, \"New supply must be greater than 0\");\r\n        _gonsPerFragment = _totalGons / newSupply;\r\n        _mint(msg.sender, newSupply);\r\n    }\r\n}",
  "sourcePath": "F:\\Works\\Hundpad\\Staking\\V2\\rebasing-contract\\contracts\\RebasingToken.sol",
  "compiler": {
    "name": "solc",
    "version": "0.8.21+commit.d9974bed.Emscripten.clang"
  },
  "schemaVersion": "3.4.16",
  "updatedAt": "2024-06-07T10:44:05.693Z",
  "devdoc": {
    "kind": "dev",
    "methods": {},
    "version": 1
  },
  "userdoc": {
    "kind": "user",
    "methods": {},
    "version": 1
  }
}