{
  "contractName": "StakingContract",
  "abi": [
    {
      "inputs": [
        {
          "internalType": "contract IERC20",
          "name": "_lpToken",
          "type": "address"
        },
        {
          "internalType": "contract IRebasingToken",
          "name": "_stakingToken",
          "type": "address"
        }
      ],
      "stateMutability": "nonpayable",
      "type": "constructor"
    },
    {
      "anonymous": false,
      "inputs": [
        {
          "indexed": true,
          "internalType": "address",
          "name": "user",
          "type": "address"
        },
        {
          "indexed": false,
          "internalType": "uint256",
          "name": "amount",
          "type": "uint256"
        }
      ],
      "name": "Claim",
      "type": "event"
    },
    {
      "anonymous": false,
      "inputs": [
        {
          "indexed": true,
          "internalType": "address",
          "name": "user",
          "type": "address"
        },
        {
          "indexed": false,
          "internalType": "uint256",
          "name": "amount",
          "type": "uint256"
        }
      ],
      "name": "Compound",
      "type": "event"
    },
    {
      "anonymous": false,
      "inputs": [
        {
          "indexed": true,
          "internalType": "address",
          "name": "previousOwner",
          "type": "address"
        },
        {
          "indexed": true,
          "internalType": "address",
          "name": "newOwner",
          "type": "address"
        }
      ],
      "name": "OwnershipTransferred",
      "type": "event"
    },
    {
      "anonymous": false,
      "inputs": [
        {
          "indexed": true,
          "internalType": "address",
          "name": "user",
          "type": "address"
        },
        {
          "indexed": false,
          "internalType": "uint256",
          "name": "amount",
          "type": "uint256"
        }
      ],
      "name": "Stake",
      "type": "event"
    },
    {
      "anonymous": false,
      "inputs": [
        {
          "indexed": true,
          "internalType": "address",
          "name": "user",
          "type": "address"
        },
        {
          "indexed": false,
          "internalType": "uint256",
          "name": "amount",
          "type": "uint256"
        }
      ],
      "name": "Unstake",
      "type": "event"
    },
    {
      "inputs": [],
      "name": "fixedAPY",
      "outputs": [
        {
          "internalType": "uint256",
          "name": "",
          "type": "uint256"
        }
      ],
      "stateMutability": "view",
      "type": "function"
    },
    {
      "inputs": [],
      "name": "lpToken",
      "outputs": [
        {
          "internalType": "contract IERC20",
          "name": "",
          "type": "address"
        }
      ],
      "stateMutability": "view",
      "type": "function"
    },
    {
      "inputs": [],
      "name": "owner",
      "outputs": [
        {
          "internalType": "address",
          "name": "",
          "type": "address"
        }
      ],
      "stateMutability": "view",
      "type": "function"
    },
    {
      "inputs": [],
      "name": "renounceOwnership",
      "outputs": [],
      "stateMutability": "nonpayable",
      "type": "function"
    },
    {
      "inputs": [
        {
          "internalType": "address",
          "name": "",
          "type": "address"
        }
      ],
      "name": "stakers",
      "outputs": [
        {
          "internalType": "uint256",
          "name": "amount",
          "type": "uint256"
        },
        {
          "internalType": "uint256",
          "name": "rewardDebt",
          "type": "uint256"
        }
      ],
      "stateMutability": "view",
      "type": "function"
    },
    {
      "inputs": [],
      "name": "stakingToken",
      "outputs": [
        {
          "internalType": "contract IRebasingToken",
          "name": "",
          "type": "address"
        }
      ],
      "stateMutability": "view",
      "type": "function"
    },
    {
      "inputs": [],
      "name": "taxRate",
      "outputs": [
        {
          "internalType": "uint256",
          "name": "",
          "type": "uint256"
        }
      ],
      "stateMutability": "view",
      "type": "function"
    },
    {
      "inputs": [
        {
          "internalType": "address",
          "name": "newOwner",
          "type": "address"
        }
      ],
      "name": "transferOwnership",
      "outputs": [],
      "stateMutability": "nonpayable",
      "type": "function"
    },
    {
      "inputs": [],
      "name": "variableAPYMax",
      "outputs": [
        {
          "internalType": "uint256",
          "name": "",
          "type": "uint256"
        }
      ],
      "stateMutability": "view",
      "type": "function"
    },
    {
      "inputs": [],
      "name": "variableAPYMin",
      "outputs": [
        {
          "internalType": "uint256",
          "name": "",
          "type": "uint256"
        }
      ],
      "stateMutability": "view",
      "type": "function"
    },
    {
      "inputs": [
        {
          "internalType": "uint256",
          "name": "_fixedAPY",
          "type": "uint256"
        }
      ],
      "name": "setFixedAPY",
      "outputs": [],
      "stateMutability": "nonpayable",
      "type": "function"
    },
    {
      "inputs": [
        {
          "internalType": "uint256",
          "name": "_max",
          "type": "uint256"
        },
        {
          "internalType": "uint256",
          "name": "_min",
          "type": "uint256"
        }
      ],
      "name": "setVariableAPY",
      "outputs": [],
      "stateMutability": "nonpayable",
      "type": "function"
    },
    {
      "inputs": [
        {
          "internalType": "uint256",
          "name": "_taxRate",
          "type": "uint256"
        }
      ],
      "name": "setTaxRate",
      "outputs": [],
      "stateMutability": "nonpayable",
      "type": "function"
    },
    {
      "inputs": [
        {
          "internalType": "uint256",
          "name": "amount",
          "type": "uint256"
        }
      ],
      "name": "stake",
      "outputs": [],
      "stateMutability": "nonpayable",
      "type": "function"
    },
    {
      "inputs": [
        {
          "internalType": "uint256",
          "name": "amount",
          "type": "uint256"
        }
      ],
      "name": "unstake",
      "outputs": [],
      "stateMutability": "nonpayable",
      "type": "function"
    },
    {
      "inputs": [],
      "name": "claim",
      "outputs": [],
      "stateMutability": "nonpayable",
      "type": "function"
    },
    {
      "inputs": [],
      "name": "updateRewards",
      "outputs": [],
      "stateMutability": "nonpayable",
      "type": "function"
    },
    {
      "inputs": [],
      "name": "calculateVariableAPY",
      "outputs": [
        {
          "internalType": "uint256",
          "name": "",
          "type": "uint256"
        }
      ],
      "stateMutability": "view",
      "type": "function"
    }
  ],
  "bytecode": "0x60806040526113886003556113886004556103e860055560646006553480156200002857600080fd5b5060405162001b7538038062001b7583398181016040528101906200004e91906200028e565b6200006e62000062620000ff60201b60201c565b6200010760201b60201c565b80600160006101000a81548173ffffffffffffffffffffffffffffffffffffffff021916908373ffffffffffffffffffffffffffffffffffffffff16021790555081600260006101000a81548173ffffffffffffffffffffffffffffffffffffffff021916908373ffffffffffffffffffffffffffffffffffffffff160217905550426008819055505050620002d5565b600033905090565b60008060009054906101000a900473ffffffffffffffffffffffffffffffffffffffff169050816000806101000a81548173ffffffffffffffffffffffffffffffffffffffff021916908373ffffffffffffffffffffffffffffffffffffffff1602179055508173ffffffffffffffffffffffffffffffffffffffff168173ffffffffffffffffffffffffffffffffffffffff167f8be0079c531659141344cd1fd0a4f28419497f9722a3daafe3b4186f6b6457e060405160405180910390a35050565b600080fd5b600073ffffffffffffffffffffffffffffffffffffffff82169050919050565b6000620001fd82620001d0565b9050919050565b60006200021182620001f0565b9050919050565b620002238162000204565b81146200022f57600080fd5b50565b600081519050620002438162000218565b92915050565b60006200025682620001f0565b9050919050565b620002688162000249565b81146200027457600080fd5b50565b60008151905062000288816200025d565b92915050565b60008060408385031215620002a857620002a7620001cb565b5b6000620002b88582860162000232565b9250506020620002cb8582860162000277565b9150509250929050565b61189080620002e56000396000f3fe608060405234801561001057600080fd5b50600436106101165760003560e01c806372f702f3116100a25780639168ae72116100715780639168ae721461025f578063a694fc3a14610290578063c6d69a30146102ac578063ee848e79146102c8578063f2fde38b146102e657610116565b806372f702f3146101e957806375db4ced14610207578063771a3a1d146102235780638da5cb5b1461024157610116565b80634e71d92d116100e95780634e71d92d1461017d57806350f19c87146101875780635fcbd285146101a3578063605f9887146101c1578063715018a6146101df57610116565b806329db93811461011b5780632e17de78146101395780633e158b0c1461015557806348c9eaaf1461015f575b600080fd5b610123610302565b6040516101309190611252565b60405180910390f35b610153600480360381019061014e919061129e565b610308565b005b61015d610607565b005b610167610839565b6040516101749190611252565b60405180910390f35b61018561083f565b005b6101a1600480360381019061019c919061129e565b6109ec565b005b6101ab6109fe565b6040516101b8919061134a565b60405180910390f35b6101c9610a24565b6040516101d69190611252565b60405180910390f35b6101e7610cad565b005b6101f1610cc1565b6040516101fe9190611386565b60405180910390f35b610221600480360381019061021c91906113a1565b610ce7565b005b61022b610d01565b6040516102389190611252565b60405180910390f35b610249610d07565b6040516102569190611402565b60405180910390f35b61027960048036038101906102749190611449565b610d30565b604051610287929190611476565b60405180910390f35b6102aa60048036038101906102a5919061129e565b610d54565b005b6102c660048036038101906102c1919061129e565b610ff1565b005b6102d0611003565b6040516102dd9190611252565b60405180910390f35b61030060048036038101906102fb9190611449565b611009565b005b60055481565b610310610607565b6000600760003373ffffffffffffffffffffffffffffffffffffffff1673ffffffffffffffffffffffffffffffffffffffff1681526020019081526020016000209050818160000154101561039a576040517f08c379a0000000000000000000000000000000000000000000000000000000008152600401610391906114fc565b60405180910390fd5b60008160010154670de0b6b3a764000060095484600001546103bc919061154b565b6103c691906115bc565b6103d091906115ed565b9050600081111561047d57600160009054906101000a900473ffffffffffffffffffffffffffffffffffffffff1673ffffffffffffffffffffffffffffffffffffffff1663a9059cbb33836040518363ffffffff1660e01b8152600401610438929190611621565b6020604051808303816000875af1158015610457573d6000803e3d6000fd5b505050506040513d601f19601f8201168201806040525081019061047b9190611682565b505b600083111561058757600061271060065485610499919061154b565b6104a391906115bc565b9050600160009054906101000a900473ffffffffffffffffffffffffffffffffffffffff1673ffffffffffffffffffffffffffffffffffffffff1663a9059cbb3383876104f091906115ed565b6040518363ffffffff1660e01b815260040161050d929190611621565b6020604051808303816000875af115801561052c573d6000803e3d6000fd5b505050506040513d601f19601f820116820180604052508101906105509190611682565b508383600001600082825461056591906115ed565b9250508190555083600a600082825461057e91906115ed565b92505081905550505b670de0b6b3a764000060095483600001546105a2919061154b565b6105ac91906115bc565b82600101819055503373ffffffffffffffffffffffffffffffffffffffff167f85082129d87b2fe11527cb1b3b7a520aeb5aa6913f88a3d8757fe40d1db02fdd846040516105fa9190611252565b60405180910390a2505050565b600854421115610837576000600a54036106275742600881905550610837565b60006008544261063791906115ed565b90506000816301e13380612710600354600a54610654919061154b565b61065e91906115bc565b61066891906115bc565b610672919061154b565b9050600061067e610a24565b90506000836301e1338061271084600a54610699919061154b565b6106a391906115bc565b6106ad91906115bc565b6106b7919061154b565b9050600081846106c791906116af565b9050600160009054906101000a900473ffffffffffffffffffffffffffffffffffffffff1673ffffffffffffffffffffffffffffffffffffffff1663bc4f2d6d82600160009054906101000a900473ffffffffffffffffffffffffffffffffffffffff1673ffffffffffffffffffffffffffffffffffffffff166318160ddd6040518163ffffffff1660e01b8152600401602060405180830381865afa158015610775573d6000803e3d6000fd5b505050506040513d601f19601f8201168201806040525081019061079991906116f8565b6107a391906116af565b6040518263ffffffff1660e01b81526004016107bf9190611252565b600060405180830381600087803b1580156107d957600080fd5b505af11580156107ed573d6000803e3d6000fd5b50505050600a54670de0b6b3a764000082610808919061154b565b61081291906115bc565b6009600082825461082391906116af565b925050819055504260088190555050505050505b565b60035481565b610847610607565b6000600760003373ffffffffffffffffffffffffffffffffffffffff1673ffffffffffffffffffffffffffffffffffffffff168152602001908152602001600020905060008160010154670de0b6b3a764000060095484600001546108ac919061154b565b6108b691906115bc565b6108c091906115ed565b905060008111156109e857600160009054906101000a900473ffffffffffffffffffffffffffffffffffffffff1673ffffffffffffffffffffffffffffffffffffffff1663a9059cbb33836040518363ffffffff1660e01b8152600401610928929190611621565b6020604051808303816000875af1158015610947573d6000803e3d6000fd5b505050506040513d601f19601f8201168201806040525081019061096b9190611682565b50670de0b6b3a76400006009548360000154610987919061154b565b61099191906115bc565b82600101819055503373ffffffffffffffffffffffffffffffffffffffff167f47cee97cb7acd717b3c0aa1435d004cd5b3c8c57d70dbceb4e4458bbd60e39d4826040516109df9190611252565b60405180910390a25b5050565b6109f461108c565b8060038190555050565b600260009054906101000a900473ffffffffffffffffffffffffffffffffffffffff1681565b600080600160009054906101000a900473ffffffffffffffffffffffffffffffffffffffff1673ffffffffffffffffffffffffffffffffffffffff166318160ddd6040518163ffffffff1660e01b8152600401602060405180830381865afa158015610a94573d6000803e3d6000fd5b505050506040513d601f19601f82011682018060405250810190610ab891906116f8565b600160009054906101000a900473ffffffffffffffffffffffffffffffffffffffff1673ffffffffffffffffffffffffffffffffffffffff166370a08231306040518263ffffffff1660e01b8152600401610b139190611402565b602060405180830381865afa158015610b30573d6000803e3d6000fd5b505050506040513d601f19601f82011682018060405250810190610b5491906116f8565b600a54610b61919061154b565b610b6b91906115bc565b90506000600260009054906101000a900473ffffffffffffffffffffffffffffffffffffffff1673ffffffffffffffffffffffffffffffffffffffff166370a08231306040518263ffffffff1660e01b8152600401610bca9190611402565b602060405180830381865afa158015610be7573d6000803e3d6000fd5b505050506040513d601f19601f82011682018060405250810190610c0b91906116f8565b905060008103610c215760045492505050610caa565b600081670de0b6b3a764000084610c38919061154b565b610c4291906115bc565b9050670de0b6b3a76400008111610c595780610c63565b670de0b6b3a76400005b9050633b9aca00610c738261110a565b600454600554610c8391906115ed565b610c8d919061154b565b610c9791906115bc565b600454610ca491906116af565b93505050505b90565b610cb561108c565b610cbf600061116d565b565b600160009054906101000a900473ffffffffffffffffffffffffffffffffffffffff1681565b610cef61108c565b81600481905550806005819055505050565b60065481565b60008060009054906101000a900473ffffffffffffffffffffffffffffffffffffffff16905090565b60076020528060005260406000206000915090508060000154908060010154905082565b610d5c610607565b6000600760003373ffffffffffffffffffffffffffffffffffffffff1673ffffffffffffffffffffffffffffffffffffffff1681526020019081526020016000209050600081600001541115610e915760008160010154670de0b6b3a76400006009548460000154610dce919061154b565b610dd891906115bc565b610de291906115ed565b90506000811115610e8f57600160009054906101000a900473ffffffffffffffffffffffffffffffffffffffff1673ffffffffffffffffffffffffffffffffffffffff1663a9059cbb33836040518363ffffffff1660e01b8152600401610e4a929190611621565b6020604051808303816000875af1158015610e69573d6000803e3d6000fd5b505050506040513d601f19601f82011682018060405250810190610e8d9190611682565b505b505b6000821115610f7257600160009054906101000a900473ffffffffffffffffffffffffffffffffffffffff1673ffffffffffffffffffffffffffffffffffffffff166323b872dd3330856040518463ffffffff1660e01b8152600401610ef993929190611725565b6020604051808303816000875af1158015610f18573d6000803e3d6000fd5b505050506040513d601f19601f82011682018060405250810190610f3c9190611682565b5081816000016000828254610f5191906116af565b9250508190555081600a6000828254610f6a91906116af565b925050819055505b670de0b6b3a76400006009548260000154610f8d919061154b565b610f9791906115bc565b81600101819055503373ffffffffffffffffffffffffffffffffffffffff167febedb8b3c678666e7f36970bc8f57abf6d8fa2e828c0da91ea5b75bf68ed101a83604051610fe59190611252565b60405180910390a25050565b610ff961108c565b8060068190555050565b60045481565b61101161108c565b600073ffffffffffffffffffffffffffffffffffffffff168173ffffffffffffffffffffffffffffffffffffffff1603611080576040517f08c379a0000000000000000000000000000000000000000000000000000000008152600401611077906117ce565b60405180910390fd5b6110898161116d565b50565b611094611231565b73ffffffffffffffffffffffffffffffffffffffff166110b2610d07565b73ffffffffffffffffffffffffffffffffffffffff1614611108576040517f08c379a00000000000000000000000000000000000000000000000000000000081526004016110ff9061183a565b60405180910390fd5b565b600080600260018461111c91906116af565b61112691906115bc565b905060008390505b8082101561116357819050600282838661114891906115bc565b61115291906116af565b61115c91906115bc565b915061112e565b8192505050919050565b60008060009054906101000a900473ffffffffffffffffffffffffffffffffffffffff169050816000806101000a81548173ffffffffffffffffffffffffffffffffffffffff021916908373ffffffffffffffffffffffffffffffffffffffff1602179055508173ffffffffffffffffffffffffffffffffffffffff168173ffffffffffffffffffffffffffffffffffffffff167f8be0079c531659141344cd1fd0a4f28419497f9722a3daafe3b4186f6b6457e060405160405180910390a35050565b600033905090565b6000819050919050565b61124c81611239565b82525050565b60006020820190506112676000830184611243565b92915050565b600080fd5b61127b81611239565b811461128657600080fd5b50565b60008135905061129881611272565b92915050565b6000602082840312156112b4576112b361126d565b5b60006112c284828501611289565b91505092915050565b600073ffffffffffffffffffffffffffffffffffffffff82169050919050565b6000819050919050565b600061131061130b611306846112cb565b6112eb565b6112cb565b9050919050565b6000611322826112f5565b9050919050565b600061133482611317565b9050919050565b61134481611329565b82525050565b600060208201905061135f600083018461133b565b92915050565b600061137082611317565b9050919050565b61138081611365565b82525050565b600060208201905061139b6000830184611377565b92915050565b600080604083850312156113b8576113b761126d565b5b60006113c685828601611289565b92505060206113d785828601611289565b9150509250929050565b60006113ec826112cb565b9050919050565b6113fc816113e1565b82525050565b600060208201905061141760008301846113f3565b92915050565b611426816113e1565b811461143157600080fd5b50565b6000813590506114438161141d565b92915050565b60006020828403121561145f5761145e61126d565b5b600061146d84828501611434565b91505092915050565b600060408201905061148b6000830185611243565b6114986020830184611243565b9392505050565b600082825260208201905092915050565b7f496e73756666696369656e74207374616b656420616d6f756e74000000000000600082015250565b60006114e6601a8361149f565b91506114f1826114b0565b602082019050919050565b60006020820190508181036000830152611515816114d9565b9050919050565b7f4e487b7100000000000000000000000000000000000000000000000000000000600052601160045260246000fd5b600061155682611239565b915061156183611239565b925082820261156f81611239565b915082820484148315176115865761158561151c565b5b5092915050565b7f4e487b7100000000000000000000000000000000000000000000000000000000600052601260045260246000fd5b60006115c782611239565b91506115d283611239565b9250826115e2576115e161158d565b5b828204905092915050565b60006115f882611239565b915061160383611239565b925082820390508181111561161b5761161a61151c565b5b92915050565b600060408201905061163660008301856113f3565b6116436020830184611243565b9392505050565b60008115159050919050565b61165f8161164a565b811461166a57600080fd5b50565b60008151905061167c81611656565b92915050565b6000602082840312156116985761169761126d565b5b60006116a68482850161166d565b91505092915050565b60006116ba82611239565b91506116c583611239565b92508282019050808211156116dd576116dc61151c565b5b92915050565b6000815190506116f281611272565b92915050565b60006020828403121561170e5761170d61126d565b5b600061171c848285016116e3565b91505092915050565b600060608201905061173a60008301866113f3565b61174760208301856113f3565b6117546040830184611243565b949350505050565b7f4f776e61626c653a206e6577206f776e657220697320746865207a65726f206160008201527f6464726573730000000000000000000000000000000000000000000000000000602082015250565b60006117b860268361149f565b91506117c38261175c565b604082019050919050565b600060208201905081810360008301526117e7816117ab565b9050919050565b7f4f776e61626c653a2063616c6c6572206973206e6f7420746865206f776e6572600082015250565b600061182460208361149f565b915061182f826117ee565b602082019050919050565b6000602082019050818103600083015261185381611817565b905091905056fea26469706673582212208eff9edcf8995fc9d8094c1c4bf75f26f2ecfb1b6fab63700d03f708c56a6a9464736f6c63430008130033",
  "immutableReferences": {},
  "source": "// SPDX-License-Identifier: MIT\r\npragma solidity ^0.8.19;\r\n\r\nimport \"./interfaces/IERC20.sol\";\r\nimport \"./interfaces/IRebasingToken.sol\";\r\nimport \"./libraries/Address.sol\";\r\nimport \"./libraries/SafeERC20.sol\";\r\nimport \"./utils/Ownable.sol\";\r\n\r\ncontract StakingContract is Ownable {\r\n    using SafeERC20 for IERC20;\r\n\r\n    IRebasingToken public stakingToken;\r\n    IERC20 public lpToken;\r\n\r\n    uint256 public fixedAPY = 5000; // 50% fixed APY (multiply by 100 for percentage)\r\n    uint256 public variableAPYMax = 5000; // 50% max variable APY\r\n    uint256 public variableAPYMin = 1000; // 10% min variable APY\r\n    uint256 public taxRate = 100; // 1% tax rate (multiply by 100 for percentage)\r\n    \r\n    struct StakerInfo {\r\n        uint256 amount;\r\n        uint256 rewardDebt;\r\n    }\r\n\r\n    mapping(address => StakerInfo) public stakers;\r\n\r\n    uint256 private _lastRewardTime;\r\n    uint256 private _accRewardPerShare;\r\n    uint256 private _totalStaked;\r\n\r\n    event Stake(address indexed user, uint256 amount);\r\n    event Unstake(address indexed user, uint256 amount);\r\n    event Claim(address indexed user, uint256 amount);\r\n    event Compound(address indexed user, uint256 amount);\r\n\r\n    constructor(IERC20 _lpToken, IRebasingToken _stakingToken) {\r\n        stakingToken = _stakingToken;\r\n        lpToken = _lpToken;\r\n        _lastRewardTime = block.timestamp;\r\n    }\r\n\r\n    function setFixedAPY(uint256 _fixedAPY) external onlyOwner {\r\n        fixedAPY = _fixedAPY;\r\n    }\r\n\r\n    function setVariableAPY(uint256 _max, uint256 _min) external onlyOwner {\r\n        variableAPYMax = _max;\r\n        variableAPYMin = _min;\r\n    }\r\n\r\n    function setTaxRate(uint256 _taxRate) external onlyOwner {\r\n        taxRate = _taxRate;\r\n    }\r\n\r\n    function stake(uint256 amount) external {\r\n        updateRewards();\r\n        StakerInfo storage staker = stakers[msg.sender];\r\n        if (staker.amount > 0) {\r\n            uint256 pending = staker.amount * _accRewardPerShare / 1e18 - staker.rewardDebt;\r\n            if (pending > 0) {\r\n                stakingToken.transfer(msg.sender, pending);\r\n            }\r\n        }\r\n        if (amount > 0) {\r\n            stakingToken.transferFrom(msg.sender, address(this), amount);\r\n            staker.amount += amount;\r\n            _totalStaked += amount;\r\n        }\r\n        staker.rewardDebt = staker.amount * _accRewardPerShare / 1e18;\r\n        emit Stake(msg.sender, amount);\r\n    }\r\n\r\n    function unstake(uint256 amount) external {\r\n        updateRewards();\r\n        StakerInfo storage staker = stakers[msg.sender];\r\n        require(staker.amount >= amount, \"Insufficient staked amount\");\r\n        uint256 pending = staker.amount * _accRewardPerShare / 1e18 - staker.rewardDebt;\r\n        if (pending > 0) {\r\n            stakingToken.transfer(msg.sender, pending);\r\n        }\r\n        if (amount > 0) {\r\n            uint256 tax = amount * taxRate / 10000;\r\n            stakingToken.transfer(msg.sender, amount - tax);\r\n            staker.amount -= amount;\r\n            _totalStaked -= amount;\r\n        }\r\n        staker.rewardDebt = staker.amount * _accRewardPerShare / 1e18;\r\n        emit Unstake(msg.sender, amount);\r\n    }\r\n\r\n    function claim() external {\r\n        updateRewards();\r\n        StakerInfo storage staker = stakers[msg.sender];\r\n        uint256 pending = staker.amount * _accRewardPerShare / 1e18 - staker.rewardDebt;\r\n        if (pending > 0) {\r\n            stakingToken.transfer(msg.sender, pending);\r\n            staker.rewardDebt = staker.amount * _accRewardPerShare / 1e18;\r\n            emit Claim(msg.sender, pending);\r\n        }\r\n    }\r\n\r\n    function updateRewards() public {\r\n        if (block.timestamp <= _lastRewardTime) {\r\n            return;\r\n        }\r\n        if (_totalStaked == 0) {\r\n            _lastRewardTime = block.timestamp;\r\n            return;\r\n        }\r\n        uint256 multiplier = block.timestamp - _lastRewardTime;\r\n        uint256 fixedReward = _totalStaked * fixedAPY / 10000 / 365 days * multiplier;\r\n        uint256 variableAPY = calculateVariableAPY();\r\n        uint256 variableReward = _totalStaked * variableAPY / 10000 / 365 days * multiplier;\r\n        uint256 reward = fixedReward + variableReward;\r\n        stakingToken.rebase(stakingToken.totalSupply() + reward);\r\n        _accRewardPerShare += reward * 1e18 / _totalStaked;\r\n        _lastRewardTime = block.timestamp;\r\n    }\r\n\r\n    function calculateVariableAPY() public view returns (uint256) {\r\n        uint256 stakedValue = _totalStaked * stakingToken.balanceOf(address(this)) / stakingToken.totalSupply();\r\n        uint256 lpValue = lpToken.balanceOf(address(this));\r\n        if (lpValue == 0) {\r\n            return variableAPYMax;\r\n        }\r\n        uint256 ratio = stakedValue * 1e18 / lpValue;\r\n        ratio = ratio > 1e18 ? 1e18 : ratio;\r\n        return variableAPYMax + (variableAPYMin - variableAPYMax) * sqrt(ratio) / 1e9;\r\n    }\r\n\r\n    function sqrt(uint256 x) internal pure returns (uint256) {\r\n        uint256 z = (x + 1) / 2;\r\n        uint256 y = x;\r\n        while (z < y) {\r\n            y = z;\r\n            z = (x / z + z) / 2;\r\n        }\r\n        return z;\r\n    }\r\n}",
  "sourcePath": "F:\\Works\\Hundpad\\Staking\\V2\\rebasing-contract\\contracts\\StakingContract.sol",
  "compiler": {
    "name": "solc",
    "version": "0.8.19+commit.7dd6d404.Emscripten.clang"
  },
  "schemaVersion": "3.4.16",
  "updatedAt": "2024-06-07T12:59:52.798Z",
  "devdoc": {
    "kind": "dev",
    "methods": {},
    "version": 1
  },
  "userdoc": {
    "kind": "user",
    "methods": {},
    "version": 1
  }
}