{
  "contractName": "StakingContract",
  "abi": [
    {
      "inputs": [
        {
          "internalType": "contract IRebasingToken",
          "name": "_stakingToken",
          "type": "address"
        },
        {
          "internalType": "contract IERC20",
          "name": "_lpToken",
          "type": "address"
        }
      ],
      "stateMutability": "nonpayable",
      "type": "constructor"
    },
    {
      "anonymous": false,
      "inputs": [
        {
          "indexed": true,
          "internalType": "address",
          "name": "user",
          "type": "address"
        },
        {
          "indexed": false,
          "internalType": "uint256",
          "name": "amount",
          "type": "uint256"
        }
      ],
      "name": "Claim",
      "type": "event"
    },
    {
      "anonymous": false,
      "inputs": [
        {
          "indexed": true,
          "internalType": "address",
          "name": "user",
          "type": "address"
        },
        {
          "indexed": false,
          "internalType": "uint256",
          "name": "amount",
          "type": "uint256"
        }
      ],
      "name": "Compound",
      "type": "event"
    },
    {
      "anonymous": false,
      "inputs": [
        {
          "indexed": true,
          "internalType": "address",
          "name": "previousOwner",
          "type": "address"
        },
        {
          "indexed": true,
          "internalType": "address",
          "name": "newOwner",
          "type": "address"
        }
      ],
      "name": "OwnershipTransferred",
      "type": "event"
    },
    {
      "anonymous": false,
      "inputs": [
        {
          "indexed": true,
          "internalType": "address",
          "name": "user",
          "type": "address"
        },
        {
          "indexed": false,
          "internalType": "uint256",
          "name": "amount",
          "type": "uint256"
        }
      ],
      "name": "Stake",
      "type": "event"
    },
    {
      "anonymous": false,
      "inputs": [
        {
          "indexed": true,
          "internalType": "address",
          "name": "user",
          "type": "address"
        },
        {
          "indexed": false,
          "internalType": "uint256",
          "name": "amount",
          "type": "uint256"
        }
      ],
      "name": "Unstake",
      "type": "event"
    },
    {
      "inputs": [],
      "name": "fixedAPY",
      "outputs": [
        {
          "internalType": "uint256",
          "name": "",
          "type": "uint256"
        }
      ],
      "stateMutability": "view",
      "type": "function"
    },
    {
      "inputs": [],
      "name": "lpToken",
      "outputs": [
        {
          "internalType": "contract IERC20",
          "name": "",
          "type": "address"
        }
      ],
      "stateMutability": "view",
      "type": "function"
    },
    {
      "inputs": [],
      "name": "owner",
      "outputs": [
        {
          "internalType": "address",
          "name": "",
          "type": "address"
        }
      ],
      "stateMutability": "view",
      "type": "function"
    },
    {
      "inputs": [],
      "name": "renounceOwnership",
      "outputs": [],
      "stateMutability": "nonpayable",
      "type": "function"
    },
    {
      "inputs": [
        {
          "internalType": "address",
          "name": "",
          "type": "address"
        }
      ],
      "name": "stakers",
      "outputs": [
        {
          "internalType": "uint256",
          "name": "amount",
          "type": "uint256"
        },
        {
          "internalType": "uint256",
          "name": "rewardDebt",
          "type": "uint256"
        }
      ],
      "stateMutability": "view",
      "type": "function"
    },
    {
      "inputs": [],
      "name": "stakingToken",
      "outputs": [
        {
          "internalType": "contract IRebasingToken",
          "name": "",
          "type": "address"
        }
      ],
      "stateMutability": "view",
      "type": "function"
    },
    {
      "inputs": [],
      "name": "taxRate",
      "outputs": [
        {
          "internalType": "uint256",
          "name": "",
          "type": "uint256"
        }
      ],
      "stateMutability": "view",
      "type": "function"
    },
    {
      "inputs": [
        {
          "internalType": "address",
          "name": "newOwner",
          "type": "address"
        }
      ],
      "name": "transferOwnership",
      "outputs": [],
      "stateMutability": "nonpayable",
      "type": "function"
    },
    {
      "inputs": [],
      "name": "variableAPYMax",
      "outputs": [
        {
          "internalType": "uint256",
          "name": "",
          "type": "uint256"
        }
      ],
      "stateMutability": "view",
      "type": "function"
    },
    {
      "inputs": [],
      "name": "variableAPYMin",
      "outputs": [
        {
          "internalType": "uint256",
          "name": "",
          "type": "uint256"
        }
      ],
      "stateMutability": "view",
      "type": "function"
    },
    {
      "inputs": [
        {
          "internalType": "uint256",
          "name": "_fixedAPY",
          "type": "uint256"
        }
      ],
      "name": "setFixedAPY",
      "outputs": [],
      "stateMutability": "nonpayable",
      "type": "function"
    },
    {
      "inputs": [
        {
          "internalType": "uint256",
          "name": "_max",
          "type": "uint256"
        },
        {
          "internalType": "uint256",
          "name": "_min",
          "type": "uint256"
        }
      ],
      "name": "setVariableAPY",
      "outputs": [],
      "stateMutability": "nonpayable",
      "type": "function"
    },
    {
      "inputs": [
        {
          "internalType": "uint256",
          "name": "_taxRate",
          "type": "uint256"
        }
      ],
      "name": "setTaxRate",
      "outputs": [],
      "stateMutability": "nonpayable",
      "type": "function"
    },
    {
      "inputs": [
        {
          "internalType": "uint256",
          "name": "amount",
          "type": "uint256"
        }
      ],
      "name": "stake",
      "outputs": [],
      "stateMutability": "nonpayable",
      "type": "function"
    },
    {
      "inputs": [
        {
          "internalType": "uint256",
          "name": "amount",
          "type": "uint256"
        }
      ],
      "name": "unstake",
      "outputs": [],
      "stateMutability": "nonpayable",
      "type": "function"
    },
    {
      "inputs": [],
      "name": "claim",
      "outputs": [],
      "stateMutability": "nonpayable",
      "type": "function"
    },
    {
      "inputs": [],
      "name": "updateRewards",
      "outputs": [],
      "stateMutability": "nonpayable",
      "type": "function"
    },
    {
      "inputs": [],
      "name": "calculateVariableAPY",
      "outputs": [
        {
          "internalType": "uint256",
          "name": "",
          "type": "uint256"
        }
      ],
      "stateMutability": "view",
      "type": "function"
    }
  ],
  "bytecode": "0x60806040526113886003556113886004556103e8600555606460065534801562000027575f80fd5b5060405162001abe38038062001abe83398181016040528101906200004d91906200027e565b6200006d62000061620000fc60201b60201c565b6200010360201b60201c565b8160015f6101000a81548173ffffffffffffffffffffffffffffffffffffffff021916908373ffffffffffffffffffffffffffffffffffffffff1602179055508060025f6101000a81548173ffffffffffffffffffffffffffffffffffffffff021916908373ffffffffffffffffffffffffffffffffffffffff160217905550426008819055505050620002c3565b5f33905090565b5f805f9054906101000a900473ffffffffffffffffffffffffffffffffffffffff169050815f806101000a81548173ffffffffffffffffffffffffffffffffffffffff021916908373ffffffffffffffffffffffffffffffffffffffff1602179055508173ffffffffffffffffffffffffffffffffffffffff168173ffffffffffffffffffffffffffffffffffffffff167f8be0079c531659141344cd1fd0a4f28419497f9722a3daafe3b4186f6b6457e060405160405180910390a35050565b5f80fd5b5f73ffffffffffffffffffffffffffffffffffffffff82169050919050565b5f620001f382620001c8565b9050919050565b5f6200020682620001e7565b9050919050565b6200021881620001fa565b811462000223575f80fd5b50565b5f8151905062000236816200020d565b92915050565b5f6200024882620001e7565b9050919050565b6200025a816200023c565b811462000265575f80fd5b50565b5f8151905062000278816200024f565b92915050565b5f8060408385031215620002975762000296620001c4565b5b5f620002a68582860162000226565b9250506020620002b98582860162000268565b9150509250929050565b6117ed80620002d15f395ff3fe608060405234801561000f575f80fd5b5060043610610114575f3560e01c806372f702f3116100a05780639168ae721161006f5780639168ae721461025c578063a694fc3a1461028d578063c6d69a30146102a9578063ee848e79146102c5578063f2fde38b146102e357610114565b806372f702f3146101e657806375db4ced14610204578063771a3a1d146102205780638da5cb5b1461023e57610114565b80634e71d92d116100e75780634e71d92d1461017a57806350f19c87146101845780635fcbd285146101a0578063605f9887146101be578063715018a6146101dc57610114565b806329db9381146101185780632e17de78146101365780633e158b0c1461015257806348c9eaaf1461015c575b5f80fd5b6101206102ff565b60405161012d91906111ec565b60405180910390f35b610150600480360381019061014b9190611233565b610305565b005b61015a6105ef565b005b610164610811565b60405161017191906111ec565b60405180910390f35b610182610817565b005b61019e60048036038101906101999190611233565b6109b9565b005b6101a86109cb565b6040516101b591906112d8565b60405180910390f35b6101c66109f0565b6040516101d391906111ec565b60405180910390f35b6101e4610c6c565b005b6101ee610c7f565b6040516101fb9190611311565b60405180910390f35b61021e6004803603810190610219919061132a565b610ca4565b005b610228610cbe565b60405161023591906111ec565b60405180910390f35b610246610cc4565b6040516102539190611388565b60405180910390f35b610276600480360381019061027191906113cb565b610ceb565b6040516102849291906113f6565b60405180910390f35b6102a760048036038101906102a29190611233565b610d0b565b005b6102c360048036038101906102be9190611233565b610f93565b005b6102cd610fa5565b6040516102da91906111ec565b60405180910390f35b6102fd60048036038101906102f891906113cb565b610fab565b005b60055481565b61030d6105ef565b5f60075f3373ffffffffffffffffffffffffffffffffffffffff1673ffffffffffffffffffffffffffffffffffffffff1681526020019081526020015f20905081815f01541015610393576040517f08c379a000000000000000000000000000000000000000000000000000000000815260040161038a90611477565b60405180910390fd5b5f8160010154670de0b6b3a7640000600954845f01546103b391906114c2565b6103bd9190611530565b6103c79190611560565b90505f81111561046f5760015f9054906101000a900473ffffffffffffffffffffffffffffffffffffffff1673ffffffffffffffffffffffffffffffffffffffff1663a9059cbb33836040518363ffffffff1660e01b815260040161042d929190611593565b6020604051808303815f875af1158015610449573d5f803e3d5ffd5b505050506040513d601f19601f8201168201806040525081019061046d91906115ef565b505b5f831115610570575f6127106006548561048991906114c2565b6104939190611530565b905060015f9054906101000a900473ffffffffffffffffffffffffffffffffffffffff1673ffffffffffffffffffffffffffffffffffffffff1663a9059cbb3383876104df9190611560565b6040518363ffffffff1660e01b81526004016104fc929190611593565b6020604051808303815f875af1158015610518573d5f803e3d5ffd5b505050506040513d601f19601f8201168201806040525081019061053c91906115ef565b5083835f015f82825461054f9190611560565b9250508190555083600a5f8282546105679190611560565b92505081905550505b670de0b6b3a7640000600954835f015461058a91906114c2565b6105949190611530565b82600101819055503373ffffffffffffffffffffffffffffffffffffffff167f85082129d87b2fe11527cb1b3b7a520aeb5aa6913f88a3d8757fe40d1db02fdd846040516105e291906111ec565b60405180910390a2505050565b60085442111561080f575f600a540361060e574260088190555061080f565b5f6008544261061d9190611560565b90505f816301e13380612710600354600a5461063991906114c2565b6106439190611530565b61064d9190611530565b61065791906114c2565b90505f6106626109f0565b90505f836301e1338061271084600a5461067c91906114c2565b6106869190611530565b6106909190611530565b61069a91906114c2565b90505f81846106a9919061161a565b905060015f9054906101000a900473ffffffffffffffffffffffffffffffffffffffff1673ffffffffffffffffffffffffffffffffffffffff1663bc4f2d6d8260015f9054906101000a900473ffffffffffffffffffffffffffffffffffffffff1673ffffffffffffffffffffffffffffffffffffffff166318160ddd6040518163ffffffff1660e01b8152600401602060405180830381865afa158015610753573d5f803e3d5ffd5b505050506040513d601f19601f820116820180604052508101906107779190611661565b610781919061161a565b6040518263ffffffff1660e01b815260040161079d91906111ec565b5f604051808303815f87803b1580156107b4575f80fd5b505af11580156107c6573d5f803e3d5ffd5b50505050600a54670de0b6b3a7640000826107e191906114c2565b6107eb9190611530565b60095f8282546107fb919061161a565b925050819055504260088190555050505050505b565b60035481565b61081f6105ef565b5f60075f3373ffffffffffffffffffffffffffffffffffffffff1673ffffffffffffffffffffffffffffffffffffffff1681526020019081526020015f2090505f8160010154670de0b6b3a7640000600954845f015461087f91906114c2565b6108899190611530565b6108939190611560565b90505f8111156109b55760015f9054906101000a900473ffffffffffffffffffffffffffffffffffffffff1673ffffffffffffffffffffffffffffffffffffffff1663a9059cbb33836040518363ffffffff1660e01b81526004016108f9929190611593565b6020604051808303815f875af1158015610915573d5f803e3d5ffd5b505050506040513d601f19601f8201168201806040525081019061093991906115ef565b50670de0b6b3a7640000600954835f015461095491906114c2565b61095e9190611530565b82600101819055503373ffffffffffffffffffffffffffffffffffffffff167f47cee97cb7acd717b3c0aa1435d004cd5b3c8c57d70dbceb4e4458bbd60e39d4826040516109ac91906111ec565b60405180910390a25b5050565b6109c161102d565b8060038190555050565b60025f9054906101000a900473ffffffffffffffffffffffffffffffffffffffff1681565b5f8060015f9054906101000a900473ffffffffffffffffffffffffffffffffffffffff1673ffffffffffffffffffffffffffffffffffffffff166318160ddd6040518163ffffffff1660e01b8152600401602060405180830381865afa158015610a5c573d5f803e3d5ffd5b505050506040513d601f19601f82011682018060405250810190610a809190611661565b60015f9054906101000a900473ffffffffffffffffffffffffffffffffffffffff1673ffffffffffffffffffffffffffffffffffffffff166370a08231306040518263ffffffff1660e01b8152600401610ada9190611388565b602060405180830381865afa158015610af5573d5f803e3d5ffd5b505050506040513d601f19601f82011682018060405250810190610b199190611661565b600a54610b2691906114c2565b610b309190611530565b90505f60025f9054906101000a900473ffffffffffffffffffffffffffffffffffffffff1673ffffffffffffffffffffffffffffffffffffffff166370a08231306040518263ffffffff1660e01b8152600401610b8d9190611388565b602060405180830381865afa158015610ba8573d5f803e3d5ffd5b505050506040513d601f19601f82011682018060405250810190610bcc9190611661565b90505f8103610be15760045492505050610c69565b5f81670de0b6b3a764000084610bf791906114c2565b610c019190611530565b9050670de0b6b3a76400008111610c185780610c22565b670de0b6b3a76400005b9050633b9aca00610c32826110ab565b600454600554610c429190611560565b610c4c91906114c2565b610c569190611530565b600454610c63919061161a565b93505050505b90565b610c7461102d565b610c7d5f61110c565b565b60015f9054906101000a900473ffffffffffffffffffffffffffffffffffffffff1681565b610cac61102d565b81600481905550806005819055505050565b60065481565b5f805f9054906101000a900473ffffffffffffffffffffffffffffffffffffffff16905090565b6007602052805f5260405f205f91509050805f0154908060010154905082565b610d136105ef565b5f60075f3373ffffffffffffffffffffffffffffffffffffffff1673ffffffffffffffffffffffffffffffffffffffff1681526020019081526020015f2090505f815f01541115610e3c575f8160010154670de0b6b3a7640000600954845f0154610d7e91906114c2565b610d889190611530565b610d929190611560565b90505f811115610e3a5760015f9054906101000a900473ffffffffffffffffffffffffffffffffffffffff1673ffffffffffffffffffffffffffffffffffffffff1663a9059cbb33836040518363ffffffff1660e01b8152600401610df8929190611593565b6020604051808303815f875af1158015610e14573d5f803e3d5ffd5b505050506040513d601f19601f82011682018060405250810190610e3891906115ef565b505b505b5f821115610f155760015f9054906101000a900473ffffffffffffffffffffffffffffffffffffffff1673ffffffffffffffffffffffffffffffffffffffff166323b872dd3330856040518463ffffffff1660e01b8152600401610ea29392919061168c565b6020604051808303815f875af1158015610ebe573d5f803e3d5ffd5b505050506040513d601f19601f82011682018060405250810190610ee291906115ef565b5081815f015f828254610ef5919061161a565b9250508190555081600a5f828254610f0d919061161a565b925050819055505b670de0b6b3a7640000600954825f0154610f2f91906114c2565b610f399190611530565b81600101819055503373ffffffffffffffffffffffffffffffffffffffff167febedb8b3c678666e7f36970bc8f57abf6d8fa2e828c0da91ea5b75bf68ed101a83604051610f8791906111ec565b60405180910390a25050565b610f9b61102d565b8060068190555050565b60045481565b610fb361102d565b5f73ffffffffffffffffffffffffffffffffffffffff168173ffffffffffffffffffffffffffffffffffffffff1603611021576040517f08c379a000000000000000000000000000000000000000000000000000000000815260040161101890611731565b60405180910390fd5b61102a8161110c565b50565b6110356111cd565b73ffffffffffffffffffffffffffffffffffffffff16611053610cc4565b73ffffffffffffffffffffffffffffffffffffffff16146110a9576040517f08c379a00000000000000000000000000000000000000000000000000000000081526004016110a090611799565b60405180910390fd5b565b5f8060026001846110bc919061161a565b6110c69190611530565b90505f8390505b808210156111025781905060028283866110e79190611530565b6110f1919061161a565b6110fb9190611530565b91506110cd565b8192505050919050565b5f805f9054906101000a900473ffffffffffffffffffffffffffffffffffffffff169050815f806101000a81548173ffffffffffffffffffffffffffffffffffffffff021916908373ffffffffffffffffffffffffffffffffffffffff1602179055508173ffffffffffffffffffffffffffffffffffffffff168173ffffffffffffffffffffffffffffffffffffffff167f8be0079c531659141344cd1fd0a4f28419497f9722a3daafe3b4186f6b6457e060405160405180910390a35050565b5f33905090565b5f819050919050565b6111e6816111d4565b82525050565b5f6020820190506111ff5f8301846111dd565b92915050565b5f80fd5b611212816111d4565b811461121c575f80fd5b50565b5f8135905061122d81611209565b92915050565b5f6020828403121561124857611247611205565b5b5f6112558482850161121f565b91505092915050565b5f73ffffffffffffffffffffffffffffffffffffffff82169050919050565b5f819050919050565b5f6112a061129b6112968461125e565b61127d565b61125e565b9050919050565b5f6112b182611286565b9050919050565b5f6112c2826112a7565b9050919050565b6112d2816112b8565b82525050565b5f6020820190506112eb5f8301846112c9565b92915050565b5f6112fb826112a7565b9050919050565b61130b816112f1565b82525050565b5f6020820190506113245f830184611302565b92915050565b5f80604083850312156113405761133f611205565b5b5f61134d8582860161121f565b925050602061135e8582860161121f565b9150509250929050565b5f6113728261125e565b9050919050565b61138281611368565b82525050565b5f60208201905061139b5f830184611379565b92915050565b6113aa81611368565b81146113b4575f80fd5b50565b5f813590506113c5816113a1565b92915050565b5f602082840312156113e0576113df611205565b5b5f6113ed848285016113b7565b91505092915050565b5f6040820190506114095f8301856111dd565b61141660208301846111dd565b9392505050565b5f82825260208201905092915050565b7f496e73756666696369656e74207374616b656420616d6f756e740000000000005f82015250565b5f611461601a8361141d565b915061146c8261142d565b602082019050919050565b5f6020820190508181035f83015261148e81611455565b9050919050565b7f4e487b71000000000000000000000000000000000000000000000000000000005f52601160045260245ffd5b5f6114cc826111d4565b91506114d7836111d4565b92508282026114e5816111d4565b915082820484148315176114fc576114fb611495565b5b5092915050565b7f4e487b71000000000000000000000000000000000000000000000000000000005f52601260045260245ffd5b5f61153a826111d4565b9150611545836111d4565b92508261155557611554611503565b5b828204905092915050565b5f61156a826111d4565b9150611575836111d4565b925082820390508181111561158d5761158c611495565b5b92915050565b5f6040820190506115a65f830185611379565b6115b360208301846111dd565b9392505050565b5f8115159050919050565b6115ce816115ba565b81146115d8575f80fd5b50565b5f815190506115e9816115c5565b92915050565b5f6020828403121561160457611603611205565b5b5f611611848285016115db565b91505092915050565b5f611624826111d4565b915061162f836111d4565b925082820190508082111561164757611646611495565b5b92915050565b5f8151905061165b81611209565b92915050565b5f6020828403121561167657611675611205565b5b5f6116838482850161164d565b91505092915050565b5f60608201905061169f5f830186611379565b6116ac6020830185611379565b6116b960408301846111dd565b949350505050565b7f4f776e61626c653a206e6577206f776e657220697320746865207a65726f20615f8201527f6464726573730000000000000000000000000000000000000000000000000000602082015250565b5f61171b60268361141d565b9150611726826116c1565b604082019050919050565b5f6020820190508181035f8301526117488161170f565b9050919050565b7f4f776e61626c653a2063616c6c6572206973206e6f7420746865206f776e65725f82015250565b5f61178360208361141d565b915061178e8261174f565b602082019050919050565b5f6020820190508181035f8301526117b081611777565b905091905056fea2646970667358221220a74e44b1d8e38c4875efab97905bc2e13cd605892f01285ef08da02f6b04847b64736f6c63430008150033",
  "immutableReferences": {},
  "source": "// SPDX-License-Identifier: MIT\r\npragma solidity ^0.8.21;\r\n\r\nimport \"./interfaces/IERC20.sol\";\r\nimport \"./interfaces/IRebasingToken.sol\";\r\nimport \"./libraries/Address.sol\";\r\nimport \"./libraries/SafeERC20.sol\";\r\nimport \"./utils/Ownable.sol\";\r\n\r\ncontract StakingContract is Ownable {\r\n    using SafeERC20 for IERC20;\r\n\r\n    IRebasingToken public stakingToken;\r\n    IERC20 public lpToken;\r\n\r\n    uint256 public fixedAPY = 5000; // 50% fixed APY (multiply by 100 for percentage)\r\n    uint256 public variableAPYMax = 5000; // 50% max variable APY\r\n    uint256 public variableAPYMin = 1000; // 10% min variable APY\r\n    uint256 public taxRate = 100; // 1% tax rate (multiply by 100 for percentage)\r\n    \r\n    struct StakerInfo {\r\n        uint256 amount;\r\n        uint256 rewardDebt;\r\n    }\r\n\r\n    mapping(address => StakerInfo) public stakers;\r\n\r\n    uint256 private _lastRewardTime;\r\n    uint256 private _accRewardPerShare;\r\n    uint256 private _totalStaked;\r\n\r\n    event Stake(address indexed user, uint256 amount);\r\n    event Unstake(address indexed user, uint256 amount);\r\n    event Claim(address indexed user, uint256 amount);\r\n    event Compound(address indexed user, uint256 amount);\r\n\r\n    constructor(IRebasingToken _stakingToken, IERC20 _lpToken) {\r\n        stakingToken = _stakingToken;\r\n        lpToken = _lpToken;\r\n        _lastRewardTime = block.timestamp;\r\n    }\r\n\r\n    function setFixedAPY(uint256 _fixedAPY) external onlyOwner {\r\n        fixedAPY = _fixedAPY;\r\n    }\r\n\r\n    function setVariableAPY(uint256 _max, uint256 _min) external onlyOwner {\r\n        variableAPYMax = _max;\r\n        variableAPYMin = _min;\r\n    }\r\n\r\n    function setTaxRate(uint256 _taxRate) external onlyOwner {\r\n        taxRate = _taxRate;\r\n    }\r\n\r\n    function stake(uint256 amount) external {\r\n        updateRewards();\r\n        StakerInfo storage staker = stakers[msg.sender];\r\n        if (staker.amount > 0) {\r\n            uint256 pending = staker.amount * _accRewardPerShare / 1e18 - staker.rewardDebt;\r\n            if (pending > 0) {\r\n                stakingToken.transfer(msg.sender, pending);\r\n            }\r\n        }\r\n        if (amount > 0) {\r\n            stakingToken.transferFrom(msg.sender, address(this), amount);\r\n            staker.amount += amount;\r\n            _totalStaked += amount;\r\n        }\r\n        staker.rewardDebt = staker.amount * _accRewardPerShare / 1e18;\r\n        emit Stake(msg.sender, amount);\r\n    }\r\n\r\n    function unstake(uint256 amount) external {\r\n        updateRewards();\r\n        StakerInfo storage staker = stakers[msg.sender];\r\n        require(staker.amount >= amount, \"Insufficient staked amount\");\r\n        uint256 pending = staker.amount * _accRewardPerShare / 1e18 - staker.rewardDebt;\r\n        if (pending > 0) {\r\n            stakingToken.transfer(msg.sender, pending);\r\n        }\r\n        if (amount > 0) {\r\n            uint256 tax = amount * taxRate / 10000;\r\n            stakingToken.transfer(msg.sender, amount - tax);\r\n            staker.amount -= amount;\r\n            _totalStaked -= amount;\r\n        }\r\n        staker.rewardDebt = staker.amount * _accRewardPerShare / 1e18;\r\n        emit Unstake(msg.sender, amount);\r\n    }\r\n\r\n    function claim() external {\r\n        updateRewards();\r\n        StakerInfo storage staker = stakers[msg.sender];\r\n        uint256 pending = staker.amount * _accRewardPerShare / 1e18 - staker.rewardDebt;\r\n        if (pending > 0) {\r\n            stakingToken.transfer(msg.sender, pending);\r\n            staker.rewardDebt = staker.amount * _accRewardPerShare / 1e18;\r\n            emit Claim(msg.sender, pending);\r\n        }\r\n    }\r\n\r\n    function updateRewards() public {\r\n        if (block.timestamp <= _lastRewardTime) {\r\n            return;\r\n        }\r\n        if (_totalStaked == 0) {\r\n            _lastRewardTime = block.timestamp;\r\n            return;\r\n        }\r\n        uint256 multiplier = block.timestamp - _lastRewardTime;\r\n        uint256 fixedReward = _totalStaked * fixedAPY / 10000 / 365 days * multiplier;\r\n        uint256 variableAPY = calculateVariableAPY();\r\n        uint256 variableReward = _totalStaked * variableAPY / 10000 / 365 days * multiplier;\r\n        uint256 reward = fixedReward + variableReward;\r\n        stakingToken.rebase(stakingToken.totalSupply() + reward);\r\n        _accRewardPerShare += reward * 1e18 / _totalStaked;\r\n        _lastRewardTime = block.timestamp;\r\n    }\r\n\r\n    function calculateVariableAPY() public view returns (uint256) {\r\n        uint256 stakedValue = _totalStaked * stakingToken.balanceOf(address(this)) / stakingToken.totalSupply();\r\n        uint256 lpValue = lpToken.balanceOf(address(this));\r\n        if (lpValue == 0) {\r\n            return variableAPYMax;\r\n        }\r\n        uint256 ratio = stakedValue * 1e18 / lpValue;\r\n        ratio = ratio > 1e18 ? 1e18 : ratio;\r\n        return variableAPYMax + (variableAPYMin - variableAPYMax) * sqrt(ratio) / 1e9;\r\n    }\r\n\r\n    function sqrt(uint256 x) internal pure returns (uint256) {\r\n        uint256 z = (x + 1) / 2;\r\n        uint256 y = x;\r\n        while (z < y) {\r\n            y = z;\r\n            z = (x / z + z) / 2;\r\n        }\r\n        return z;\r\n    }\r\n}",
  "sourcePath": "F:\\Works\\Hundpad\\Staking\\V2\\rebasing-contract\\contracts\\StakingContract.sol",
  "compiler": {
    "name": "solc",
    "version": "0.8.21+commit.d9974bed.Emscripten.clang"
  },
  "schemaVersion": "3.4.16",
  "updatedAt": "2024-06-07T10:44:05.715Z",
  "devdoc": {
    "kind": "dev",
    "methods": {},
    "version": 1
  },
  "userdoc": {
    "kind": "user",
    "methods": {},
    "version": 1
  }
}